:020000040800F2
:100000000811002015020008E9030008E1030008B8
:10001000E5030008BD020008DF0A00080000000038
:10002000000000000000000000000000810800083F
:10003000C1020008000000005D08000895090008E2
:100040002F0200082F0200082F0200082F020008CC
:100050002F0200082F0200082F0200082F020008BC
:100060002F0200082F0200082F0200082F020008AC
:100070002F0200082F0200082F0200082F0200089C
:100080002F0200082F0200082F0200082F0200088C
:100090002F0200082F0200082F0200082F0200087C
:1000A0002F0200082F0200082F0200082F0200086C
:1000B0002F0200082F0200082F0200082F0200085C
:1000C0002F0200082F0200082F0200082F0200084C
:1000D0002F020008F90900082F0200082F0200086B
:1000E0002F0200082F0200082F0200082F0200082C
:1000F0002F0200082F0200082F0200082F0200081C
:100100002F0200082F0200082F0200082F0200080B
:100110002F0200082F0200082F0200082F020008FB
:100120002F0200082F0200082F0200082F020008EB
:1001300000F002F800F05EF80AA090E8000C82449B
:100140008344AAF10107DA4501D100F053F8AFF278
:10015000090EBAE80F0013F0010F18BFFB1A43F0A5
:1001600001031847E01300000014000010F8013BE1
:100170000A4413F0030408BF10F8014B1D1108BF17
:1001800010F8015B641E05D010F8016B641E01F8C5
:10019000016BF9D1002D15D010F8014B03F00C03C1
:1001A0000C2BA1EB04040ABF10F8013BA4EB831451
:1001B000A4EB032405F1010314F8016B5B1E01F8A5
:1001C000016BF9D5914238BF10F8013BD1D370478C
:1001D0000023002400250026103A28BF78C1FBD850
:1001E000520728BF30C148BF0B6070471FB51FBD05
:1001F00010B510BD00F033F81146FFF7F7FF00F01F
:10020000BBFC00F051F803B4FFF7F2FF03BC00F0B1
:1002100068FC00000948804709480047FEE7FEE700
:10022000FEE7FEE7FEE7FEE7FEE7FEE7FEE7FEE7A6
:1002300004480549054A064B704700009909000823
:1002400031010008080B002008110020080D0020D3
:10025000080D00207047704770477047704775461B
:1002600000F028F8AE4605006946534620F0070026
:10027000854618B020B5FFF7DBFFBDE820404FF002
:1002800000064FF000074FF000084FF0000B21F080
:100290000701AC46ACE8C009ACE8C009ACE8C0094D
:1002A000ACE8C0098D4670470446AFF30080204695
:1002B000FFF7A9FF00487047A80A002000BFFEE72B
:1002C00070472DE9F041024600250026002000235A
:1002D0000024002791F803C00CF00F0591F803C02B
:1002E0000CF0100CBCF1000F03D091F802C04CEAE6
:1002F000050591F800C0BCF1000F31D01468002052
:100300002BE04FF0010C0CFA00F3B1F800C00CEA3E
:1003100003069E4220D183004FF00F0C0CFA03F726
:10032000BC4305FA03FC4CEA040491F803C0BCF199
:10033000280F06D14FF0010C0CFA00FCC2F814C0D3
:100340000AE091F803C0BCF1480F05D14FF0010C51
:100350000CFA00FCC2F810C0401C0828D1D314606D
:10036000B1F800C0BCF1FF0F34DD546800202EE06E
:1003700000F1080C4FF0010808FA0CF3B1F800C0C6
:100380000CEA03069E4221D183004FF00F0C0CFAB9
:1003900003F7BC4305FA03FC4CEA040491F803C0DC
:1003A000BCF1280F05D100F1080C08FA0CF8C2F8CE
:1003B000148091F803C0BCF1480F07D100F1080C7C
:1003C0004FF0010808FA0CF8C2F81080401C082809
:1003D000CED35460BDE8F081416170470161704740
:1003E00000BFFEE700BFFEE7704770B5002419E0CC
:1003F00004F1B001C8B2002100F0F8F9002108466C
:1004000000F0F4F90021102000F0F0F9002505E0DB
:100410000121002000F0EAF9681CC5B2802DF7DB4D
:10042000601CC4B2082CE3DB70BD2DE9F05F06460A
:100430000F4690461C46DDF828A04FF0000BE11750
:1004400004EB5171C910A4EBC10131B92046E11789
:1004500004EB5171C1F3C70506E02046E11704EB38
:100460005171C910491CCDB23D4615E029463046B0
:1004700000F0DAF8B1460BE059460BF1010B1AF81F
:100480000100012100F0B2F909F1010000F0FF09BB
:10049000C145F1DB681CC5B2A542E7DBBDE8F09FB2
:1004A00008B501214FF4947000F0DAF94FF4FC70B4
:1004B000ADF8000010208DF8030003208DF8020035
:1004C00069465648FFF7FDFE4FF4FC715348FFF7AD
:1004D00085FF0320ADF8000069465148FFF7F1FEA3
:1004E00003214F48FFF77AFF4FF40040ADF80000BA
:1004F00069464C48FFF7E5FE4FF400414948FFF7D5
:100500006DFF10214548FFF769FF642000F00EFBE6
:1005100010214248FFF760FF642000F007FB102124
:100520003E48FFF75BFF0021AE2000F05FF900219D
:10053000084600F05BF90021102000F057F9002177
:10054000402000F053F90021812000F04FF90021F4
:10055000CF2000F04BF90021A12000F047F9002145
:10056000C82000F043F90021A62000F03FF9002147
:10057000A82000F03BF900213F2000F037F90021CE
:10058000D32000F033F90021084600F02FF90021B4
:10059000D52000F02BF90021802000F027F9002160
:1005A000D92000F023F90021F12000F01FF90021EB
:1005B000DA2000F01BF90021122000F017F90021C9
:1005C000DB2000F013F90021402000F00FF900219A
:1005D000202000F00BF90021022000F007F9002193
:1005E0008D2000F003F90021142000F0FFF8002115
:1005F000A42000F0FBF80021A62000F0F7F800216D
:10060000AF2000F0F3F80021AF2000F0EFF8FFF783
:10061000ECFE0021084600F007F808BD0014014078
:10062000001001400020014070B504460D4605F160
:10063000B001C8B2002100F0D9F8102141EA14102D
:10064000002100F0D3F804F00F0141F00100002177
:1006500000F0CCF870BD00002DE9F04180460E4658
:100660001546002731464046FFF7DEFF00240AE02A
:10067000124A02EB8511085D012100F0B7F8781CE1
:10068000C7B2601CC4B2102CF2DB701CC1B2404671
:10069000FFF7CAFF00240CE06900491C074A02EB7F
:1006A0004111085D012100F0A1F8781CC7B2601C5F
:1006B000C4B2102CF0DBBDE8F0810000140800206B
:1006C0002DE9F04107460E46904600250024A8F18A
:1006D0002000C5B27F2F02DD0027B01CC6B2314614
:1006E0003846FFF7A1FF002408E004EB05110F4A8C
:1006F000505C012100F07AF8601CC4B2082CF4DBD5
:10070000701CC1B23846FFF78FFF002409E004EBEC
:1007100005110831054A505C012100F067F8601CA2
:10072000C4B2082CF3DBBDE8F0810000520F0008D2
:100730002DE9FF5F074691461D460E9E4FF0000AC9
:10074000002433E0281B401EC1B20A2000F0E2FA68
:10075000B9FBF0F00A21B0FBF1F201FB1208BAF18B
:10076000000F13D1681EA04210DDB8F1000F0BD1AD
:10077000B34606EBDB71491001FB0471C8B22022BD
:100780000199FFF79DFF0FE04FF0010AB34606EB1A
:10079000DB71491001FB0471C8B208F13001CAB223
:1007A0000199FFF78DFF00BF601CC4B2AC42C9DBEA
:1007B000BDE8FF9F2DE9F04104460F46154600268F
:1007C0000EE0AA5D39462046FFF77AFF04F10800E3
:1007D000C4B2782C02DD0024B81CC7B2701CC6B2AB
:1007E000A85D0028EDD1BDE8F081000070B5044699
:1007F0000E4626B120211848FFF7F0FD03E0202126
:100800001548FFF7E9FD08211348FFF7E5FD00252E
:1008100017E040211048FFF7DFFD04F0800020B111
:1008200080210D48FFF7DAFD03E080210A48FFF739
:10083000D3FD40210848FFF7D1FD6006040E681C77
:10084000C5B2082DE5DB08210348FFF7C7FD2021CD
:100850000148FFF7C3FD70BD001401407047000060
:1008600029B1064A92690243044B9A6104E0034AA3
:1008700092698243014B9A61704700000010024068
:10088000704710B500F002F810BD00000CB5002054
:10089000019000903348006840F48030314908608E
:1008A00000BF3048006800F4003000900198401C00
:1008B0000190009818B90198B0F5A06FF1D12948BE
:1008C000006800F4003010B10120009001E0002029
:1008D00000900098012843D12348006840F01000A0
:1008E000214908600846006820F0030008600846B7
:1008F000006840F0020008601A48406819494860E2
:100900000846406848600846406840F48060486097
:100910000846406820F47C1048600846406840F46F
:10092000E81048600846006840F08070086000BF2A
:100930000C48006800F000700028F9D009484068B1
:1009400020F00300074948600846406840F0020074
:10095000486000BF0348406800F00C000828F9D147
:100960000CBD00000010024000200240042808D105
:100970004FF0E021096941F004014FF0E0221161DC
:1009800007E04FF0E021096921F004014FF0E02277
:10099000116170477047000010B51348006840F0BF
:1009A00001001149086008464068104908400E4996
:1009B0004860084600680E4908400B490860084630
:1009C000006820F4802008600846406820F4FE009B
:1009D00048604FF41F008860FFF753FF4FF000603E
:1009E0000449086010BD0000001002400000FFF83C
:1009F000FFFFF6FE08ED00E010B540F225511D485E
:100A000000F03EF810B31B4800F064F8C4B21A4876
:100A1000008800F40040C8B91748008800F48040FE
:100A200060B10A2C03D000201349088020E012484E
:100A3000008840F400401049088019E00D2C06D1D0
:100A40000D48008840F480400B49088010E00A48B7
:100A50000088C0F30D0009490C5407480088401C69
:100A60000549088008460088C72801DD0020088065
:100A700010BD000000380140DC090020E009002022
:100A800070B50246002400230025002040F66A16B7
:100A9000B14200D100BFC1F3421501F01F0301268E
:100AA00006FA03F3012D02D19689334006E0022DA8
:100AB00002D1168A334001E0968A33400C12012697
:100AC00006FA04F41688344013B10CB1012000E09A
:100AD000002070BD01468888C0F30800704700BF41
:100AE000FEE7014600BF704710B56FF00400FFF746
:100AF0003DFF0A4800680A49B0FBF1F00949087057
:100B00000846007800EB4001C1EBC0104FF6FF71C2
:100B100001EAC0000449088010BD00000008002060
:100B200000127A00D4090020D60900200146114A9B
:100B300012884A434FF0E0235A6100229A611A4614
:100B4000126942F001021A6100BF4FF0E022106901
:100B500000F001021AB100F48032002AF5D04FF003
:100B6000E022126922F001024FF0E0231A61002214
:100B70009A617047D609002008B5FFF7B5FFFFF767
:100B80008FFCFFF732FC2024AFE0FFF72EFC0022A1
:100B900011461046FFF760FD012200211220FFF7E9
:100BA0005BFD022200212420FFF756FD03220021D5
:100BB0003620FFF751FD042200214820FFF74CFDAD
:100BC000052200215A20FFF747FD062200216C2054
:100BD000FFF742FD45A203210020FFF7EBFD47A2EE
:100BE00006210020FFF7E6FD46A206213F20FFF781
:100BF000E1FD224606213020FFF762FD601CC4B2F1
:100C00007E2C00DD202410200323224606210090A4
:100C10006720FFF78DFD4FF4FA50FFF787FF4FF481
:100C2000FA50FFF783FF4FF4FA50FFF77FFF4FF4BE
:100C3000FA50FFF77BFF4FF4FA50FFF777FF4FF4BE
:100C4000FA50FFF773FF4FF4FA50FFF76FFFFFF70B
:100C5000CCFB2E4808238022002100900846FFF795
:100C6000E4FB4FF4FA50FFF761FF4FF4FA50FFF73F
:100C70005DFF4FF4FA50FFF759FF4FF4FA50FFF7BA
:100C800055FF4FF4FA50FFF751FF4FF4FA50FFF7BA
:100C90004DFF4FF4FA50FFF749FF4FF4FA50FFF7BA
:100CA00045FF1B4808238022002100900846FFF7DB
:100CB000BCFB4FF4FA50FFF739FF4FF4FA50FFF73F
:100CC00035FF4FF4FA50FFF731FF4FF4FA50FFF7BA
:100CD0002DFF4FF4FA50FFF729FF4FF4FA50FFF7BA
:100CE00025FF4FF4FA50FFF721FF4EE7312E33274F
:100CF000204F4C4544205445535400004153434930
:100D0000493A0000434F44453A00000000000020EB
:100D10000004002010B50246012000E050430B0003
:100D2000A1F10104E1B2F9D110BD00000000000002
:100D30000000002F000000000700070000147F14CF
:100D40007F1400242A7F2A120062640813230036CD
:100D50004955225000000503000000001C224100FC
:100D6000000041221C000014083E08140008083E40
:100D70000808000000A0600000080808080800003B
:100D800060600000002010080402003E5149453E0A
:100D90000000427F40000042615149460021414528
:100DA0004B31001814127F10002745454539003C8F
:100DB0004A4949300001710905030036494949365D
:100DC00000064949291E000036360000000056364C
:100DD0000000000814224100001414141414000030
:100DE0004122140800020151090600324959513EBE
:100DF000007C1211127C007F49494936003E414176
:100E00004122007F4141221C007F49494941007F26
:100E100009090901003E4149497A007F0808087F15
:100E20000000417F4100002040413F01007F081445
:100E30002241007F40404040007F020C027F007F43
:100E40000408107F003E4141413E007F0909090628
:100E5000003E4151215E007F09192946004649495B
:100E600049310001017F0101003F4040403F001F28
:100E70002040201F003F4038403F006314081463A7
:100E800000070870080700615149454300007F4191
:100E9000410000552A552A55000041417F000004B9
:100EA00002010204004040404040000001020400F2
:100EB000002054545478007F484444380038444457
:100EC000442000384444487F0038545454180008E3
:100ED0007E0901020018A4A4A47C007F0804047801
:100EE0000000447D4000004080847D00007F102889
:100EF00044000000417F4000007C04180478007C1E
:100F00000804047800384444443800FC242424189D
:100F10000018242418FC007C0804040800485454D9
:100F2000542000043F444020003C4040207C001CF2
:100F30002040201C003C4030403C00442810284405
:100F4000001CA0A0A07C004464544C44141414144D
:100F50001414000000000000000000000000000069
:100F60000000000000F80000000000000033300026
:100F7000000000100C06100C06000000000000002D
:100F8000000040C07840C0784000043F04043F04A3
:100F90000400007088FC08300000001820FF211EAB
:100FA0000000F008F000E018000000211C031E21E2
:100FB0001E0000F00888700000001E21232419275D
:100FC000211010160E0000000000000000000000BC
:100FD0000000000000E018040200000000071820D4
:100FE000400000020418E000000000402018070044
:100FF0000000404080F0804040000202010F0102EA
:101000000200000000F0000000000101011F0101CA
:101010000100000000000000000080B0700000002F
:1010200000000000000000000000000101010101BB
:10103000010100000000000000000030300000004E
:101040000000000000008060180400601806010025
:10105000000000E010080810E000000F1020201031
:101060000F00001010F8000000000020203F20209A
:101070000000007008080888700000302824222131
:1010800030000030088888483000001820202011E7
:101090000E000000C02010F8000000070424243FC8
:1010A000240000F808888808080000192120201171
:1010B0000E0000E0108888180000000F1120201199
:1010C0000E0000380808C83808000000003F000083
:1010D00000000070880808887000001C222121226E
:1010E0001C0000E010080810E0000000312222116E
:1010F0000F00000000C0C000000000000030300001
:10110000000000000080000000000000806000007F
:1011100000000000804020100800000102040810B8
:1011200020004040404040404000040404040404C7
:101130000400000810204080000000201008040275
:101140000100007048080808F00000000030360177
:101150000000C030C828E810E00007182724231436
:101160000B000000C038E0000000203C23020227F2
:10117000382008F8888888700000203F202020113F
:101180000E00C0300808080838000718202020107A
:10119000080008F808080810E000203F2020201070
:1011A0000F0008F88888E8081000203F202023203E
:1011B000180008F88888E8081000203F2000030085
:1011C0000000C03008080838000007182020221E40
:1011D000020008F808000008F808203F210101215A
:1011E0003F20000808F8080800000020203F2020C9
:1011F000000000000808F8080800C08080807F0018
:10120000000008F888C028180800203F2001263870
:10121000200008F8080000000000203F20202020C7
:10122000300008F8F800F8F80800203F003F003FC1
:10123000200008F830C00008F808203F20000718F8
:101240003F00E01008080810E0000F1020202010D8
:101250000F0008F808080808F000203F21010101EC
:101260000000E01008080810E0000F18242438508F
:101270004F0008F8888888887000203F2000030C01
:10128000302000708808080838000038202121220A
:101290001C00180808F8080818000000203F20006B
:1012A000000008F808000008F808001F202020208F
:1012B0001F000878880000C83808000007380E01B1
:1012C0000000F80800F80008F800033C0700073C9D
:1012D0000300081868808068180820302C03032C4D
:1012E00030200838C800C83808000000203F20001F
:1012F000000010080808C8380800203826212020DF
:101300001800000000FE020202000000007F4040C2
:101310004000000C30C00000000000000001063852
:10132000C00000020202FE000000004040407F00BA
:10133000000000000402020204000000000000009F
:10134000000000000000000000008080808080809D
:101350008080000202040000000000000000000085
:1013600000000000808080800000001924222222DA
:101370003F2008F8008080000000003F112020116D
:101380000E000000008080800000000E1120202050
:101390001100000000808088F800000E112020104D
:1013A0003F200000808080800000001F2222222237
:1013B0001300008080F0888888180020203F2020BB
:1013C00000000000808080808000006B94949493E3
:1013D000600008F8008080800000203F210000208D
:1013E0003F2000809898000000000020203F20202F
:1013F0000000000000809898000000C08080807F7E
:10140000000008F8000080808000203F24022D307A
:101410002000000808F8000000000020203F2020E5
:1014200000008080808080808000203F20003F205E
:10143000003F8080008080800000203F210000204D
:101440003F200000808080800000001F202020209E
:101450001F00808000808000000080FFA1202011FC
:101460000E000000008080808000000E112020A06F
:10147000FF80808080008080800020203F2120002D
:101480000100000080808080800000332424242418
:101490001900008080E0808000000000001F2020F4
:1014A00000008080000000808000001F20202010AD
:1014B0003F20808080000080808000010E30080680
:1014C000010080800080008080800F300C030C3091
:1014D0000F0000808000808080000020312E0E31BF
:1014E0002000808080000080808080818E701806BF
:1014F000010000808080808080000021302C22212B
:10150000300000000000807C020200000000003F6C
:10151000404000000000FF00000000000000FF004D
:1015200000000002027C800000000040403F0000FC
:101530000000000601010202040400000000000097
:10154000000000006415000800000020E009000011
:101550006C0100081C180008E009002028070000A2
:10156000D001000840120003050911FF118905C3CD
:1015700000E000F000F8000100083A4428FF11AA3A
:10158000440001500B83013844829292740183110C
:1015900020087C44FF017D7D7D04410540047D01E0
:1015A000FF6E920102613F033B01017E814191493F
:1015B000F20101011BC230083F3F0303F313110185
:1015C000100601F1116181402005816111F147335D
:1015D000414107200401C12120A321C11431193147
:1015E00037040736D33303033F3F426006E0E00091
:1015F000007FA8127FBF40040618060A10080000EA
:1016000040407F4040A410041F204001A3201F142D
:101610003300600E6004300C03460534C21004072A
:1016200007060170090404048444444484078005C7
:101630000484C4041501120A71112140073D0707F3
:10164000C9200F0000101814121100000F10101004
:101650000F0F131F1015600D081012120D00001847
:1016600000000D120A51295130015E015280010122
:101670003B4514047F030CA915DE1C05385454584F
:101680002503080A2004047800003C40407C200028
:10169000092CFFAAAAAA280800FF681006264949B3
:1016A0004932101005020408100F0D6F00049D014F
:1016B000040D9D0004156343F80801240500F81883
:1016C00060E82404806018235720202923E010219B
:1016D000A310E01449B4313908043C886818630D3C
:1016E00015FF037DEA039DFF0371144DFF031D06E3
:1016F000043D2E040942E91C0640202020C04A0473
:10170000110721EA3E40520452600E81187129519E
:10171000070D4769031C060C0A0A090C0004156B27
:101720002D00042004080F081510050809090E07EC
:101730001D180430050909090F0A512951070DFF29
:1017400000040D2200047C04A24A041F071C0B02A3
:101750000304060708090000F06A052310FF050EC0
:1017600013F091052E0FED052EFF06060A120F2F1E
:10177000100840405F55555575045B5F4094D95043
:1017800024060F09498979B70211201F200800FE9D
:1017900002424ACA4A030C04124202FEF904000C37
:1017A0001340504C4340404F50505C40FE13F8886B
:1017B0000122FF050E13F8DA072E1F9D03227F205A
:1017C00003109F80E2338082010C0716E2A2928A06
:1017D0008682DF050C041640807F3808040B142431
:1017E00024A4FEA3220022CC009C1F0806F9083E78
:1017F0000131070C0510FF020202EF06257C539011
:1018000008C3FE089807080F1C0444827F018080EB
:0C18100040432C102846817F000000009F
:0400000508000215D8
:00000001FF
