:020000040800F2
:10000000A03B0020C5520008B9070008BB07000844
:10001000BD070008BF070008C10700080000000076
:10002000000000000000000000000000C3070008FE
:10003000C507000800000000C7070008C90700083E
:10004000DF520008DF520008DF520008DF520008CC
:10005000DF520008DF520008DF520008DF520008BC
:10006000DF520008DF520008DF520008DF520008AC
:10007000DF520008DF520008DF520008DF5200089C
:10008000DF520008DF520008DF520008DF5200088C
:10009000DF520008DF520008DF520008DF5200087C
:1000A000DF520008DF520008DF520008DF5200086C
:1000B000DF520008954F00084B500008DF5200083F
:1000C000DF520008DF520008DF520008DF5200084C
:1000D000DF5200085D520008DF520008DF520008BE
:1000E000DF520008DF520008DF520008DF5200082C
:1000F000DF520008DF520008DF520008DF5200081C
:10010000DF520008DF520008D9500008DF52000813
:10011000DF520008DF520008DF520008DF520008FB
:10012000DF520008DF520008DF520008DF520008EB
:1001300000F002F800F066F80AA090E8000C824493
:100140008344AAF10107DA4501D100F05BF8AFF270
:10015000090EBAE80F0013F0010F18BFFB1A43F0A5
:100160000103184744B3000064B3000010F8013BDA
:100170000A4413F0030408BF10F8014B1D1108BF17
:1001800010F8015B641E05D010F8016B641E01F8C5
:10019000016BF9D1002D15D010F8014B03F00C03C1
:1001A0000C2BA1EB04040ABF10F8013BA4EB831451
:1001B000A4EB032405F1010314F8016B5B1E01F8A5
:1001C000016BF9D5914238BF10F8013BD1D370478C
:1001D0000023002400250026103A28BF78C1FBD850
:1001E000520728BF30C148BF0B607047642906F032
:1001F0009386782906F0CC86002070471FB51FBD76
:1002000010B510BD06F0AEFF1146FFF7F7FF00F086
:100210002DFA06F0CCFF03B4FFF7F2FF03BC04F0A5
:10022000C7FF00002DE9FE4F012000F0BDFB024694
:1002300000241020CDE9000404232146204604F0C8
:1002400089F9012000F0B0FB0100FA4802D0C0F8A3
:10025000944102E00121C0F89411012000F0A4FBB8
:1002600018B10121F44806F049FAF448018801293F
:100270007ED104802546C8244FF4F07B5B46F04ACB
:100280004FF496710020CDE9004504F085FA40F264
:1002900026295B46EB4A49460020CDE9004504F09B
:1002A0007BFA4FF00808CDE9004848F230470C23AC
:1002B0005A4649460020029704F0C3FACDE90048A7
:1002C0000C235A464FF496710020029704F0B9FAB5
:1002D000DD4C4FF4007804F11409A580DB4DA788AC
:1002E00055F8370008F0DAFFD54929F8170021F84A
:1002F00017007F1CB8B2A0804045F0D34FF6E070E5
:10030000C827CDE900704FF4F07B0A465B464FF4F6
:100310009671002004F040FA48F23040082100971E
:10032000CDE901100C235A464FF49671002004F0D9
:1003300088FAC649404604F028FD0020DFF804B3DF
:10034000A080AA464F46A588C1495AF83500804684
:1003500008F05EFE08F0A2FF81B21E20B1FBF0F0B3
:1003600027F815002BF81500404608F07BFF00E049
:100370005EE100B2208081460AEBC500406808F0CB
:1003800071FF00B260808046484608F0A7FF09214F
:1003900009F071F96FF00E09494609F06CF905464C
:1003A000A060404608F09AFF092109F064F9494627
:1003B00009F061F90146E06008F0BCFF804629467B
:1003C000084608F0B7FF414608F022FE08F0F4FDA9
:1003D00007F0B2FF6FF0080209F01FF907F0D2FF33
:1003E0002061A588CDB3102109F045F908F056FF2A
:1003F00027F815006D1CA8B2A080B0F5007FA2D32D
:100400000520A0805B4682B203EB420133F8120064
:1004100031F80A5C854228D931F8085C854224D934
:1004200031F8065C854220D931F8045C85421CD93C
:100430008D88A84219D231F8025C854215D94D88C1
:10044000A84212D2CD88A8420FD20D89A8420CD260
:100450004989884209D296B20CE0FFE70F2109F0E2
:100460000AF908F01BFF3880C4E7521C90B2A08044
:10047000FF28C8D977491F200880304608F02EFF92
:10048000029008F099FD0022734B08F085FA08F0FD
:10049000EFF900241025CDE900540246042314216D
:1004A000C82004F057F8DFF8B4B157465AF83600C0
:1004B000594608F015FE08F0F1FECDE90054024659
:1004C0004FF4967804231421404604F043F80121A8
:1004D000029809F0D0F808F06FFDDFF884A14FF022
:1004E00033394A46534608F057FA08F0C1F9CDE9C6
:1004F0000054024604232821C82004F02BF807EBFF
:1005000006105946006808F0EBFD08F0C7FECDE97B
:100510000054024604232821404604F01BF85149A8
:10052000029808F007FF08F047FD4A46534608F0D6
:1005300033FA08F09DF9CDE90054024604233C212A
:10054000C82004F007F806EB4600594657F830007B
:1005500008F0C6FD08F0A2FECDE9005402460423CF
:100560003C21404603F0F6FF0221029809F083F88F
:1005700008F022FD4A46534608F00EFA08F078F9D2
:10058000CDE90054024604235021C82003F0E2FFC5
:1005900007EB46105946006808F0A2FD08F07EFE01
:1005A000CDE90054024604235021404603F0D2FF17
:1005B0002D49029808F0BEFE08F0FEFC4A4653465C
:1005C00008F0EAF908F054F9CDE900540246042392
:1005D0006421C82003F0BEFF06EB8600594657F899
:1005E000300008F07DFD08F059FECDE900540246C8
:1005F00004236421404603F0ADFF4FF6E070C824A9
:10060000CDE900404FF4F07540F226262B460D4A06
:100610003146002004F0C0F848F230410820009430
:10062000CDE901010C232A463146002004F009F9E6
:10063000BDE8FE8F00802142000400403C04002001
:1006400064040020640C00200000002074140020CA
:10065000005043472A040020008833400000F04245
:1006600033330F40000040400000A0401CB504F0B0
:1006700053FD4FF4A06004F045FE4FF4E13004F068
:10068000A1FD00F077F900F04DF900F093FE04F0C1
:1006900095F96321472004F039FC4721632004F0D9
:1006A000F3FC00254FF448734FF4F072C82128463C
:1006B000009503F088FD304F4FF4784610243E80BB
:1006C0002EA0CDE900402346C8221421002003F0CB
:1006D00090FF2BA0CDE900401023C8222821002044
:1006E00003F087FF28A0CDE900401023C8223C2159
:1006F000002003F07EFF26A0CDE900401023C82291
:100700005021002003F075FF23A0CDE90040102305
:10071000C8226421002003F06CFFA846B146204D9A
:10072000BA46204E204CA5F114074FF4007B4FF43D
:10073000FA6004F01FFDFFF775FD28882060306027
:10074000AAF800904046A7F804805B4681B2226870
:1007500035F81100904200D920603268904200D2F2
:100760003060491C88B2B8809842EFD30FA021684E
:1007700006F092FBDBE700002A0400204A5000004C
:1007800045524A494500000053414E4A4945000040
:1007900053494A494500000057554A494500000061
:1007A0001400002034040020300400206164636DD4
:1007B00061783A25640000007047FEE7FEE7FEE737
:1007C000FEE7704770477047704700000CB5002285
:1007D0004C4800920192016841F4803101604FF46D
:1007E000A063016801F4003101910099491C009156
:1007F000019911B900999942F3D10168890333D560
:100800000121019140490A6842F010020A600A6819
:1008100022F003020A600A6842F002020A6041689C
:10082000416041684160416841F4806141604168D4
:1008300021F47C114160416841F4E8114160016894
:1008400041F08071016001688901FCD5416821F0A7
:1008500003014160416841F0020141604168C1F318
:1008600081010229FAD10CBD01920CBD254810B5B9
:10087000016841F0010101604168244A1140416072
:100880000168234A11400160016821F48021016060
:10089000416821F4FE0141604FF41F018160FFF7C0
:1008A00095FF1C494FF00060086010BD154A10B557
:1008B0005068194B10F00C01184803D0042901D0DE
:1008C000082901D0036012E05168536801F47011E7
:1008D0004FF0020413F4803F04EB914102D05368BF
:1008E0009B0301D50E4B00E00B4B5943016051684F
:1008F0000A4AC1F30311121D515C0268CA4002602A
:1009000010BD000000100240002002400000FFF86F
:10091000FFFFF6FE08ED00E000127A00140400204C
:1009200000093D0038B50121482005F058FB20247E
:10093000ADF8004010208DF8030003200B4D8DF81A
:1009400002006946284605F062F92021284605F094
:10095000C8F9ADF80040064C6946204605F057F945
:100960002021204605F0BDF938BD0000000C0140F3
:100970000018014008B50121442005F030FB1C207F
:10098000ADF8000048208DF803006946364805F0B0
:100990003EF90120ADF8000028208DF803006946DB
:1009A000324805F034F908BD2DE9F041304C2F4FA5
:1009B0002D4D012608B1267001E02078A0B110214C
:1009C000284605F07AF9B0B10821284605F075F9F6
:1009D00088B10421284605F070F960B1012138463C
:1009E00005F06BF9012806D01021284605F065F9BD
:1009F000012824D035E00A2004F0BCFB0020207040
:100A00001021284605F059F980B10821284605F043
:100A100054F970B10421284605F04FF958B101216D
:100A2000384605F04AF9012807D01AE00120BDE850
:100A3000F0810220FBE70320F9E70420F7E7082113
:100A4000284605F03AF901280BD10421284605F083
:100A500034F9012805D10121384605F02EF900B9F5
:100A600026700020E3E70000001801400008014064
:100A700028040020FE4908807047FD49891C088031
:100A80007047FB4808B5801C0088ADF80000BDF831
:100A9000000008BDF64A1080901C01807047F449A0
:100AA00010B50880052004F04EFBBDE81040E8E7D3
:100AB000F048EF49008908807047ED49891C08809B
:100AC0007047C0F34511C20AC00200EB4110104448
:100AD00080B27047401EC0B2FCD270472DE9F04F83
:100AE000E44F0B463A46BD880C0ADFF884B391897F
:100AF0005289A5F513464FEA102C0BF1020A413E2C
:100B00001DD0A5F5A646103E19D03E46BE4696F825
:100B100006903688A5F5D047A6EB0008A8F1010895
:100B2000043F17D0A5F5C857633F28D0A5F5AA47BD
:100B30007646103F51D0B9F1010F63D064E0ABF8B5
:100B400000205246AAF800C0C0B2AAF80000ABF8D4
:100B500000100FE0B9F1010F01D11FFA88F0ABF8D6
:100B60000020050A5246AAF80050C0B2AAF80000B8
:100B7000ABF800101480D8B21080BDE8F08FB9F146
:100B8000000F1BD0ABF800205246AAF800C0C0B23C
:100B9000AAF80000761E300AAAF80000F0B2108011
:100BA000ABF8001011461480D8B21080BEF80200D5
:100BB000401E020A0A80C0B20880DEE71FFA88F0F1
:100BC000ABF8002000265246AAF80060AAF80060A0
:100BD000060AAAF80060C0B2E1E7ABF80020AAF864
:100BE00000C0521CABF80020C0B2AAF80000ABF85D
:100BF0000010AAF80040491CABF80010D8B2AAF8BF
:100C00000000BAE71FFA88F001461046FFF742FFDE
:100C1000B089BDE8F04F19463CE7F0B5954E002489
:100C200025463288824202D972888A4201D8002041
:100C3000F0BDFFF753FFB08849F241378C4B41F6C6
:100C4000631C45F2103145F21052B84208D0A0F5AD
:100C5000D04EBEF1040E03D0884201D0604502D1CF
:100C60004FF02E0E06E0904202D14FF4385E01E0C4
:100C70004FF0220EA3F800E0A0F51343203B03D170
:100C80000220401EC0B2FCD2FFF7FBFEB3886345D2
:100C9000CED00220401EC0B2FCD2FFF7F2FE844646
:100CA000B088B84203D0884201D090420CD10220D3
:100CB000401EC0B2FCD2FFF7E4FE05460CF0FF0078
:100CC0004FF6FF7303EA0024B088A0F51343253BD9
:100CD0001CD0A0F58A43353B18D01B1D16D0A0F5BB
:100CE0003543053B12D0B3F580530FD0B84203D043
:100CF000884201D090420BD14FEADC204FEAC0205D
:100D0000A10A40EA411040EAD520F0BD6046F0BD9E
:100D1000BDE8F0406046D4E6564855498088A0F5C5
:100D20001342413A13D0A0F5D042043A0FD0A0F5B7
:100D3000A642103A0BD0A0F5C852633A07D0A0F5EE
:100D4000AA42103A05D040F273110720A2E62920EA
:100D500001E04FF424500880704746484449808899
:100D6000A0F51342413A12D0A0F5D042043A0ED079
:100D7000A0F5A642103A0AD0A0F5C852633A06D0B0
:100D8000A0F5AA42103A04D00021072082E62820CC
:100D900001E04FF4205008807047F0B5354D002336
:100DA0002946AA79898846F6040741F66316012A7E
:100DB00001D02AB11DE0B9421BD0B14202D118E0E6
:100DC000B14216D1082814D2DFE800F00406080A60
:100DD0000C0E101206200CE007200AE0042008E0A8
:100DE000052006E0012004E0002002E0032000E0EE
:100DF0000220A1F5134C45F2103245F21054BCF11B
:100E0000410C07D0B94205D0914203D0A14201D094
:100E1000B1427AD1082812D2DFE800F011040608A6
:100E20000A0C0E1080230AE0402308E0C02306E0ED
:100E3000202304E0602302E0A02300E0E023A1429D
:100E400002D14FF4585000E03620914205D0A14223
:100E500003D0B14201D043F00803B94201D143F0BD
:100E600002031946FFF716FEAA88B2420FD003E02C
:100E7000FE07006C6414002098062888698802D553
:100E8000884202D303E0884201D929806880FE4865
:100E9000811CA2426A89028021D100230B80531C4D
:100EA000038000230B80931C03802B885B1E1C0A8D
:100EB0000C80D21C0280DAB20A80AA890280002348
:100EC0000B80531C038000230B80931C03806B88D2
:100ED0005B1E1C0A0C80D21C0280D8B212E00022D9
:100EE0000A800A802A88521E130A0B80D2B20A8016
:100EF000AA8902800020088008806888401E020AB3
:100F00000A80C0B20880F0BDFFE7082812D2DFE8EF
:100F100000F0040608110A0C0E1030230AE010231A
:100F200008E0202306E0382304E0282302E0182309
:100F300000E00823BDE8F040032043F48051A9E518
:100F400000B5FFF7CBFDFFF7B3FDD048CE49891CB4
:100F50000088088000BD2DE9F04FDFF83483934608
:100F600042460B46B8F804500C0ADFF81CA39189DE
:100F7000060A5289A5F513470AF10209413F18D024
:100F8000A5F5A647103F14D0B7F500771CD047460B
:100F9000A5F5C85CBE793F883F1A7F1EBCF1630C83
:100FA00027D0A5F5D04CBCF1040C3AD0012E4AD084
:100FB0004AE0AAF800204A46A9F80060C0B2A9F8A1
:100FC0000000AAF800103AE0AAF80020A9F8006092
:100FD000521CAAF80020C0B2A9F80000AAF800101C
:100FE000A9F80040491CAAF80010D8B2A9F80000DE
:100FF00033E006B9B8B2AAF80020050A4A46A9F8B3
:101000000050C7B2A9F80070A9F80050C0B2A9F802
:101010000000AAF80010A9F80040D8B2A9F8000012
:101020000DE0012E00D1B8B2AAF80020050A4A4608
:10103000A9F80050C0B2A9F80000AAF80010148066
:10104000D8B2108009E0B8B201461046FFF722FD81
:10105000B8F80C001946FFF71DFDB8F80810AAF8FB
:101060000010A9F800B088E5874A10B5BE211180AC
:10107000941C0521218007F03FFC4FF06632854B20
:1010800007F08AFC07F0F4FB208001202080FF207D
:10109000208000202080208010BD2DE9F04F7C4969
:1010A0002A232B24898845F2105A4FF4305B4FF4E1
:1010B000285E4FF448754FF0F00C49F241394FF477
:1010C000A07745F210364FF4F07280B170484FF0BF
:1010D0000108494580F806800780A0F802C001D0C9
:1010E000B1423ED12C2505814381848157E0684877
:1010F0004FF00008494580F80680A0F800C04780FE
:1011000006D0A1F5D04CBCF1040C01D0B1420CD1F9
:101110002C2505814381A1F5D0438481043B01D076
:10112000B14244D10780428041E0514507D1A0F847
:1011300008B0A0F80AE04FF42C5181810EE0A1F52F
:10114000C856633E06D02221018120214181212100
:1011500081812CE02C2101814481838102804580A2
:1011600025E0A1F5D04CBCF1040C09D051450BD1C0
:10117000A0F808B0A0F80AE04FF42C53838120E0D7
:101180002C250581448109E0A1F5C85CBCF1630C04
:1011900011D0222303812123438120238381A1F5C0
:1011A000D043043B01D0B14201D102804780BDE869
:1011B000F04F0020F1E54FF02C0CA0F808C043815F
:1011C000848105804280EAE72DE9FC4F0446914680
:1011D0004844401E86B2C818401E83B2009004EBFB
:1011E0000900401EC0F3072EDFF8A4C000980D468A
:1011F000C0F3072B6046BCF804204FEA1128818910
:101200004089A2F513474FEA142A413F10D0A2F5B6
:10121000A647103F0CD0A2F5D047043F08D09CF859
:10122000067041F6631C0197012F13D1624511D15D
:10123000154F3880B81CA0F800A0E2B20280A0F8D8
:1012400000E0F2B202803980A0F80080E9B20180AB
:10125000594626E00E4F62453F8827D1A7EB090289
:10126000121B094C009B92B29BB22080160AA01C54
:101270000680D6B206804A44521E160A0680D2B2B2
:101280000280218008E00000FE07006C2A04002094
:101290006414002066660440A0F80080E9B2018072
:1012A000190A0180D9B20180BDE8FC8FA2F5A04CDB
:1012B000BCF5A26C1FD0019801283FD0B44621464E
:1012C0002E4650204FF051094FF052085327FFF798
:1012D000E1FB61464846FFF7DDFB31464046FFF73C
:1012E000D9FB19463846FFF7D5FB29462046BDE80D
:1012F000FC4FFFF7F3BBFE4A1080971CA7F800A035
:1013000000F1010CA2F800C0E4B23C80841C1480FF
:10131000A7F800E0C01C1080F0B238801180A7F858
:101320000080481C1080E8B23880881C1080A7F824
:1013300000B0C91C1180D8B23880B5E7B81B401E78
:1013400086B2381B9C46401E294683B2B9E72DE978
:10135000F043E84F0646002438887D884543B88826
:10136000A0F5D041043902D1B879012808D0002174
:101370000846FFF7B3FBFFF79BFBDD48801C15E039
:101380000020B8714FF02A09A7F80A904FF02B08F7
:10139000A7F80C800146FFF7A1FB0120B871A7F860
:1013A0000A80A7F80C90E6E70680641CAC42FBD3E9
:1013B000BDE8F0832DE9F04F01210E029FB03046C9
:1013C00004F004FE01214FF4B47004F008FE01277C
:1013D000ADF83C704FF010088DF83F8003248DF875
:1013E0003E400FA9C44804F012FC4CF23370ADF833
:1013F0003C0018258DF83F508DF83E400FA9BF489E
:1014000004F005FC4FF68070ADF83C008DF83F50BD
:101410008DF83E400FA9BA4804F0F9FB41F20100F3
:10142000ADF83C008DF83F508DF83E400FA9B5480F
:1014300004F0EDFB00200F21CDE918011A901B905C
:101440001C901D901090CDE91104CDE91607149061
:1014500006211590CDE90010CDE902081390049003
:101460003101CDE908010690059007908900CDE98A
:101470000A010C9017A80D9010A80E90684604F071
:1014800065F90121062004F096FA322003F072FE7D
:101490000020FFF704FB974D954C49F24139A88095
:1014A00046F6040A45F2103B45F210574FF6FF7816
:1014B000FF2804D3404502D0B0F5134F70D1D3209C
:1014C0002080FFF7DEFAA880FFF7DBFAA880FFF79D
:1014D000D8FA08EA00204146A880FFF7D2FAAA8885
:1014E0001043A88048455BD0BF202080FFF7C9FA91
:1014F000A880FFF7C6FAA880FFF7C3FAA880FFF715
:10150000C0FA01EA0020A880FFF7BBFAAA881043BE
:10151000A880504544D0D4202080FFF7B2FAA8809C
:10152000FFF7AFFAA880FFF7ACFA01EA0020A88025
:10153000FFF7A7FAAA881043A880584530D04FF487
:101540005A402080FFF79DFAA8804FF45B4020802E
:10155000FFF797FA01EA0020A8804FF45C40208052
:10156000FFF78FFAAA881043A880B0F5004F7DD00E
:10157000B84215D0A1202080FFF783FAA880FFF79A
:1015800080FA01EA0020A880FFF77BFAA9880843C7
:10159000A0F5AE41A880613902D141F66310A88060
:1015A000A98859A005F078FCA888514DAD1C484584
:1015B0007ED1CF20208000202880C12028803020AC
:1015C0002880ED202080642028800320288012209D
:1015D000288081202880E8202080852028801020F5
:1015E00028807A202880CB202080392028802C2039
:1015F0002880002028803420288002202880F7209E
:10160000208020202880EA20208000202880288038
:10161000C02020801B202880C1202080012028801D
:10162000C5202080302028802880C7202080B72037
:10163000288036202080482028803A20208055208D
:101640002880B1202080002028801A202880B62001
:1016500020800A202880A2202880F22020800020DC
:101660002880262020800120288000E066E0E020FD
:1016700020800F2028802A202880282028800820E9
:1016800028800E2028800820288054202880A92027
:101690002880432028800A2028800F2028800020CE
:1016A0002880288028802880E1202080002000E0F9
:1016B00046E02880152028801720288007202880D1
:1016C00011202880062028802B2028805620288062
:1016D0003C20288005202880102028800F2028808A
:1016E0003F20288028800F2028802B20208013E096
:1016F000FE07006C64140020000C0140001401403F
:101700000018014000200140204C43442049443A45
:1017100025780D0A00000000002028802880012084
:1017200028803F2028802A202080002028802880B0
:101730002880EF202880112020806EE0AF802FE7E6
:10174000504571D111202080142003F013FDD020CA
:10175000208007202880422028801D202880D1203A
:101760002080002028801A20288009202880D2206C
:1017700020800120288022202880C0202080102066
:1017800028803B20288000202880022028801120EB
:101790002880C520208003202880C82020800020A9
:1017A00028802520288021202880052028800020CE
:1017B00028800A20288065202880252028807720FE
:1017C0002880502028800F20288000202880F820A2
:1017D000208001202880FE202080002028800220F8
:1017E00028802020208036202080082028803A2051
:1017F0002080552028802B202080002028802880D1
:10180000012028803F2028802A2020800020288056
:10181000288001202880DF202880782003F0AAFC7F
:10182000292001F02EBCFFE758457DD1ED20208016
:1018300001202880FE202880EE202080DE202880C5
:1018400021202880F120208001202880DF20208096
:1018500010202880C42020808F202880C62020804F
:1018600000202880E220288028802880BF20208037
:10187000AA202880B02020800D20288000202880E9
:101880000D2028800020288011202880002028801A
:1018900019202880002028802120288000202880EE
:1018A0002D202880002028803D20288000202880AE
:1018B0005D202880002028805D202880002028804E
:1018C000B120208080202880002028808B20288044
:1018D000002028809620288000202880B2202080A8
:1018E00000202880288002202880002028800320D3
:1018F000288000202880B320208000202880288095
:101900002880288028802880288028802880288097
:101910002880288028802880288028802880288087
:1019200028802880288000E0FEE328802880288006
:10193000B42020808B2028800020288096202880BA
:1019400000202880A120288000202880B520208029
:101950000220288000202880032028800020288062
:101960000420288000202880B620208000202880A5
:101970002880B72020800020288028803F202880D1
:10198000002028805E202880002028806420288075
:10199000002028808C20288000202880AC202880EF
:1019A00000202880DC2028800020288070202880CB
:1019B000002028809020288000202880EB2028808C
:1019C00000202880DC20288000202880B82020806B
:1019D000002028802880288028802880288028804F
:1019E0002880BA2020802420288000202880288079
:1019F0002880C1202080202028800020288054209A
:101A0000288000202880FF20288000202880C220F5
:101A100020800A20288000202880042028800020A0
:101A20002880C32020803C202880002028803A2065
:101A30002880002028803920288000202880372016
:101A40002880002028803C20288000202880362004
:101A500028800020288032202880002028802F2005
:101A60002880002028802C20288000202880292001
:101A700028800020288026202880002028802420FC
:101A800028800020288024202880002028802320EF
:101A90002880002028803C202880002028803620B4
:101AA00028800020288032202880002028802F20B5
:101AB0002880002028802C202880002028802920B1
:101AC00028800020288026202880002028802420AC
:101AD000288000202880242028800020288023209F
:101AE000288000202880C4202080622028800020B8
:101AF000288005202880002028808420288000203D
:101B00002880F020288000202880182028800020AD
:101B10002880A420288000202880182028800020E9
:101B2000288050202880002028800C202880002039
:101B300028801720288000202880952028800020D9
:101B40002880F320288000202880E620288000209C
:101B50002880C52020803220288000202880442032
:101B6000288000202880652028800020288076207A
:101B70002880002028808820288000202880C620F7
:101B80002080202028800020288017202880002006
:101B900028800120288000202880C7202080002065
:101BA0002880288028802880C82020800020288045
:101BB000288028802880C920208000202880288034
:101BC00028802880288028802880288028802880D5
:101BD000288028802880288028802880E020208075
:101BE00016202880002028801C20288000202880A3
:101BF000212028800020288036202880002028806E
:101C0000462028800020288052202880002028801C
:101C100064202880002028807A20288000202880C6
:101C20008B20288000202880992028800020288070
:101C3000A820288000202880B92028800020288023
:101C4000C420288000202880CA20288000202880E6
:101C5000D220288000202880D920288000202880B9
:101C6000E020288000202880F32028800020288081
:101C7000E120208016202880002028801C20288039
:101C800000202880222028800020288036202880DC
:101C9000002028804520288000202880522028808D
:101CA0000020288064202880002028807A20288036
:101CB000002028808B2028800020288099202880E0
:101CC00000202880A820288000202880B920288093
:101CD00000202880C420288000202880CA20288056
:101CE00000202880D220288000202880D82028802A
:101CF00000202880E020288000202880F3202880F1
:101D000000202880E22020800520288000202880D4
:101D10000B202880002028801B202880002028807D
:101D2000342028800020288044202880002028801B
:101D30004F202880002028806120288000202880D3
:101D40007920288000202880882028800020288072
:101D50009720288000202880A62028800020288026
:101D6000B720288000202880C220288000202880DA
:101D7000C720288000202880D120288000202880AB
:101D8000D620288000202880DD2028800020288080
:101D9000F320288000202880E32020800520288050
:101DA000002028800A202880002028801C202880ED
:101DB000002028803320288000202880442028808C
:101DC0000020288050202880002028806220288041
:101DD00000202880782028800020288088202880E3
:101DE000002028809720288000202880A620288096
:101DF00000202880B720288000202880C22028804A
:101E000000202880C720288000202880D12028801A
:101E100000202880D520288000202880DD202880F0
:101E200000202880F320288000202880E4202080C3
:101E30000120288000202880012028800020288080
:101E400002202880002028802A2028800020288046
:101E50003C202880002028804B20288000202880DB
:101E60005D20288000202880742028800020288081
:101E7000842028800020288093202880002028802B
:101E8000A220288000202880B320288000202880DD
:101E9000BE20288000202880C420288000202880A0
:101EA000CD20288000202880D32028800020288072
:101EB000DD20288000202880F32028800020288032
:101EC000E52020800020288028802880288002208B
:101ED00028800020288029202880002028803C207D
:101EE0002880002028804B202880002028805D202A
:101EF00028800020288074202880002028808420CA
:101F00002880002028809320288000202880A2207C
:101F1000288000202880B320288000202880BE2030
:101F2000288000202880C420288000202880CD2000
:101F3000288000202880D320288000202880DC20D2
:101F4000288000202880F320288000202880E62098
:101F50002080112028800020288034202880002024
:101F60002880562028800020288076202880002085
:101F70002880772028800020288066202880002064
:101F80002880882028800020288099202880002010
:101F90002880BB20288000202880992028800020CD
:101FA0002880662028800020288055202880002056
:101FB0002880552028800020288045202880002067
:101FC000288043202880002028804420288000206A
:101FD0002880E7202080322028800020288055207B
:101FE00028800020288076202880002028806620F5
:101FF00028800020288067202880002028806720F3
:102000002880002028808720288000202880992090
:10201000288000202880BB2028800020288099204C
:1020200028800020288077202880002028804420D5
:102030002880002028805620288000202880232007
:1020400028800020288033202880002028804520F8
:10205000288000202880E8202080002028802880F8
:102060009920288000202880872028800020288030
:102070008820288000202880772028800020288041
:102080006620288000202880882028800020288042
:10209000AA20288000202880BB20288000202880BB
:1020A0009920288000202880662028800020288011
:1020B0005520288000202880552028800020288056
:1020C0004420288000202880442028800020288068
:1020D0005520288000202880E9202080AA20288000
:1020E00000202880288028802080AA202880CF20D7
:1020F0002080002028802880288028802880288030
:10210000288028802880288028802880288028808F
:10211000288028802880F0202080002028805020DF
:1021200028800020288000E02CE028802880F320F0
:10213000208000202880F920208006202880102080
:10214000288029202880002028803A2020805520BF
:10215000288011202080642003F00CF829202080A2
:10216000352020800020288051202080FF202880DA
:10217000532020802C2028805520208082202880F9
:102180002C20FDE3B8427CD14FF470435521184612
:10219000FEF780FC4FF20105AA212846FEF77AFCE3
:1021A0006E1C52213046FEF775FCAF1C08213846E4
:1021B000FEF770FC4FF2040C01216046FEF76AFC4A
:1021C0000D214FF43040FEF765FC0D214BF201006C
:1021D000FEF760FC0D214BF20200FEF75BFC4FF4B2
:1021E000364934214846FEF755FC34214BF2016054
:1021F000FEF750FC34214BF20260FEF74BFC4FF42B
:10220000314A0D215046FEF745FC4BF2011B0D21D2
:102210005846FEF73FFC0D214BF20210FEF73AFC48
:1022200034214FF43740FEF735FC34214BF2017076
:10223000FEF730FC34214BF20270FEF72BFC00213C
:102240004FF43240FEF726FC00214BF20120FEF74E
:1022500021FC00214BF20220FEF71CFC24214FF44C
:102260003840FEF717FC24214BF60100FEF712FC64
:1022700024214BF60200FEF70DFC01214FF43F40F4
:1022800000E0FCE3FEF706FC0F214FF43340FEF7BD
:1022900001FC0F214BF20130FEF7FCFB0F214BF24A
:1022A0000230FEF7F7FB34214FF43940FEF7F2FB22
:1022B00034214BF60110FEF7EDFB34214BF60210F2
:1022C000FEF7E8FB08214FF43540FEF7E3FB082159
:1022D0004BF20150FEF7DEFB08214BF20250FEF7F5
:1022E000D9FB03214FF44240FEF7D4FB24214FF4E5
:1022F0003A40FEF7CFFB24214BF60120FEF7CAFB44
:1023000024214BF60220FEF7C5FB00214FF43C4090
:10231000FEF7C0FB78214BF60140FEF7BBFB002126
:102320004BF60240FEF7B6FB00214FF43D40FEF7AE
:10233000B1FB78214BF60150FEF7ACFB00214BF6C8
:102340000250FEF7A7FB00214FF43E40FEF7A2FB30
:1023500064214BF60160FEF79DFB00214FF45140D4
:10236000FEF798FB33214DF20110FEF793FB00219D
:102370004DF20210FEF78EFB34214DF20310FEF7F2
:1023800089FB00214DF20410FEF784FB3A214DF247
:102390000510FEF77FFB00214DF20610FEF77AFBD9
:1023A0004A214DF20710FEF775FB00214DF208108F
:1023B000FEF770FB5C214DF20910FEF76BFB00216C
:1023C0004DF20A10FEF766FB81214DF20B10FEF76D
:1023D00061FB00214DF20C10FEF75CFBA6214DF2D3
:1023E0000D10FEF757FB00214DF20E10FEF752FBC9
:1023F000E5214DF20F10FEF74DFB01214DF21010BB
:10240000FEF748FB13214DF21110FEF743FB0121AB
:102410004DF21210FEF73EFB54214DF21310FEF761
:1024200039FB01214DF21410FEF734FB82214DF2ED
:102430001510FEF72FFB01214DF21610FEF72AFBB7
:10244000CA214DF21710FEF725FB02214DF218109C
:10245000FEF720FB00214DF21910FEF71BFB0221B5
:102460004DF21A10FEF716FB01214DF21B10FEF77C
:1024700011FB02214DF21C10FEF70CFB34214DF232
:102480001D10FEF707FB02214DF21E10FEF702FBA6
:1024900067214DF21F10FEF7FDFA02214DF22010C8
:1024A000FEF7F8FA84214DF22110FEF7F3FA02212B
:1024B0004DF22210FEF7EEFAA4214DF22310FEF7A2
:1024C000E9FA02214DF22410FEF7E4FAB7214DF2A9
:1024D0002510FEF7DFFA02214DF22610FEF7DAFA98
:1024E000CF214DF22710FEF7D5FA02214DF2281028
:1024F000FEF7D0FADE214DF22910FEF7CBFA0221C9
:102500004DF22A10FEF7C6FAF2214DF22B10FEF71B
:10251000C1FA02214DF22C10FEF7BCFAFE214DF259
:102520002D10FEF7B7FA03214DF22E10FEF7B2FA86
:1025300010214DF22F10FEF7ADFA03214DF23010AD
:10254000FEF7A8FA33214DF23110FEF7A3FA03216A
:102550004DF23210FEF79EFA6D214DF23310FEF768
:1025600099FA00214FF45240FEF794FA33214DF2CC
:102570000120FEF78FFA00214DF20220FEF78AFAC1
:1025800034214DF20320FEF785FA00214DF204209C
:10259000FEF780FA3A214DF20520FEF77BFA002182
:1025A0004DF20620FEF776FA4A214DF20720FEF79B
:1025B00071FA00214DF20820FEF76CFA5C214DF211
:1025C0000920FEF767FA00214DF20A20FEF762FAB1
:1025D00081214DF20B20FEF75DFA00214DF20C2017
:1025E000FEF758FAA6214DF20D20FEF753FA00210E
:1025F0004DF20E20FEF74EFAE5214DF20F20FEF7C8
:1026000049FA01214DF21020FEF744FA13214DF250
:102610001120FEF73FFA01214DF21220FEF73AFA9F
:1026200054214DF21320FEF735FA01214DF214200A
:10263000FEF730FA82214DF21520FEF72BFA012128
:102640004DF21620FEF726FACA214DF21720FEF7AA
:1026500021FA02214DF21820FEF71CFA00214DF25A
:102660001920FEF717FA02214DF21A20FEF712FA8E
:1026700001214DF21B20FEF70DFA02214DF21C2024
:10268000FEF708FA34214DF21D20FEF703FA02216D
:102690004DF21E20FEF7FEF967214DF21F20FEF7D6
:1026A000F9F902214DF22020FEF7F4F984214DF2D0
:1026B0002120FEF7EFF902214DF22220FEF7EAF980
:1026C000A4214DF22320FEF7E5F902214DF224204A
:1026D000FEF7E0F9B7214DF22520FEF7DBF90221E4
:1026E0004DF22620FEF7D6F9CF214DF22720FEF736
:1026F000D1F902214DF22820FEF7CCF9DE214DF26E
:102700002920FEF7C7F902214DF22A20FEF7C2F96F
:10271000F2214DF22B20FEF7BDF902214DF22C20C3
:10272000FEF7B8F9FE214DF22D20FEF7B3F9032193
:102730004DF22E20FEF7AEF910214DF22F20FEF7BC
:10274000A9F903214DF23020FEF7A4F933214DF20F
:102750003120FEF79FF903214DF23220FEF79AF95E
:102760006D214DF23320FEF795F900214FF45340CF
:10277000FEF790F933214DF20130FEF78BF900217D
:102780004DF20230FEF786F934214DF20330FEF7A8
:1027900081F900214DF20430FEF77CF93A214DF227
:1027A0000530FEF777F900214DF20630FEF772F999
:1027B0004A214DF20730FEF76DF900214DF2083045
:1027C000FEF768F95C214DF20930FEF763F900214C
:1027D0004DF20A30FEF75EF981214DF20B30FEF723
:1027E00059F900214DF20C30FEF754F9A6214DF2B3
:1027F0000D30FEF74FF900214DF20E30FEF74AF989
:10280000E5214DF20F30FEF745F901214DF2103070
:10281000FEF740F913214DF21130FEF73BF901218B
:102820004DF21230FEF736F954214DF21330FEF717
:1028300031F901214DF21430FEF72CF982214DF2CD
:102840001530FEF727F901214DF21630FEF722F977
:10285000CA214DF21730FEF71DF902214DF2183052
:10286000FEF718F900214DF21930FEF713F9022195
:102870004DF21A30FEF70EF901214DF21B30FEF732
:1028800009F902214DF21C30FEF704F934214DF212
:102890001D30FEF7FFF802214DF21E30FEF7FAF868
:1028A00067214DF21F30FEF7F5F802214DF220307E
:1028B000FEF7F0F884214DF22130FEF7EBF802210B
:1028C0004DF22230FEF7E6F8A4214DF22330FEF758
:1028D000E1F802214DF22430FEF7DCF8B7214DF289
:1028E0002530FEF7D7F802214DF22630FEF7D2F858
:1028F000CF214DF22730FEF7CDF802214DF22830DE
:10290000FEF7C8F8DE214DF22930FEF7C3F80221A8
:102910004DF22A30FEF7BEF8F2214DF22B30FEF7D1
:10292000B9F802214DF22C30FEF7B4F8FE214DF239
:102930002D30FEF7AFF803214DF22E30FEF7AAF846
:1029400010214DF22F30FEF7A5F803214DF2303063
:10295000FEF7A0F833214DF23130FEF79BF803214A
:102960004DF23230FEF796F86D214DF23330FEF71E
:1029700091F800214FF45440FEF78CF8332100E029
:102980007FE34DF20140FEF785F800214DF2024051
:10299000FEF780F834214DF20340FEF77BF800216A
:1029A0004DF20440FEF776F83A214DF20540FEF76D
:1029B00071F800214DF20640FEF76CF84A214DF205
:1029C0000740FEF767F800214DF20840FEF762F875
:1029D0005C214DF20940FEF75DF800214DF20A40FE
:1029E000FEF758F881214DF20B40FEF753F8002115
:1029F0004DF20C40FEF74EF8A6214DF20D40FEF7C9
:102A000049F800214DF20E40FEF744F8E5214DF261
:102A10000F40FEF73FF801214DF21040FEF73AF863
:102A200013214DF21140FEF735F801214DF212400D
:102A3000FEF730F854214DF21340FEF72BF8012138
:102A40004DF21440FEF726F882214DF21540FEF7B4
:102A500021F801214DF21640FEF71CF8CA214DF273
:102A60001740FEF717F802214DF21840FEF712F852
:102A700000214DF21940FEF70DF8022100E002E3BB
:102A80004DF21A40FEF706F801214DF21B40FEF709
:102A900001F802214DF21C40FDF7FCFF34214DF2FC
:102AA0001D40FDF7F7FF02214DF21E40FDF7F2FF3A
:102AB00067214DF21F40FDF7EDFF02214DF220404E
:102AC000FDF7E8FF84214DF22140FDF7E3FF0221ED
:102AD0004DF22240FDF7DEFFA4214DF22340FDF729
:102AE000D9FF02214DF22440FDF7D4FFB7214DF26A
:102AF0002540FDF7CFFF02214DF22640FDF7CAFF2A
:102B0000CF214DF22740FDF7C5FF02214DF22840AD
:102B1000FDF7C0FFDE214DF22940FDF7BBFF02218A
:102B20004DF22A40FDF7B6FFF2214DF22B40FDF7A2
:102B3000B1FF02214DF22C40FDF7ACFFFE214DF21A
:102B40002D40FDF7A7FF03214DF22E40FDF7A2FF18
:102B500010214DF22F40FDF79DFF03214DF2304033
:102B6000FDF798FF33214DF23140FDF793FF03212C
:102B70004DF23240FDF78EFF6D214DF23340FDF7EF
:102B800089FF00214FF45540FDF784FF33214DF2BA
:102B90000150FDF77FFF00214DF20250FDF77AFF53
:102BA00034214DF20350FDF775FF00214DF2045022
:102BB000FDF770FF3A214DF20550FDF76BFF002144
:102BC0004DF20650FDF766FF4A214DF20750FDF722
:102BD00061FF00214DF20850FDF75CFF5C214DF2D2
:102BE0000950FDF757FF00214DF20A50FDF752FF43
:102BF00081214DF20B50FDF74DFF00214DF20C509D
:102C0000FDF748FFA6214DF20D50FDF743FF0021CF
:102C10004DF20E50FDF73EFFE5214DF20F50FDF74E
:102C200039FF01214DF21050FDF734FF13214DF211
:102C30001150FDF72FFF01214DF21250FDF72AFF31
:102C400054214DF21350FDF725FF01214DF2145090
:102C5000FDF720FF82214DF21550FDF71BFF0121EA
:102C60004DF21650FDF716FFCA214DF21750FDF731
:102C700011FF02214DF21850FDF70CFF00214DF21B
:102C80001950FDF707FF02214DF21A50FDF702FF20
:102C900001214DF21B50FDF7FDFE02214DF21C50AB
:102CA000FDF7F8FE34214DF21D50FDF7F3FE022131
:102CB0004DF21E50FDF7EEFE67214DF21F50FDF75D
:102CC000E9FE02214DF22050FDF7E4FE84214DF291
:102CD0002150FDF7DFFE02214DF22250FDF7DAFE12
:102CE000A4214DF22350FDF7D5FE02214DF22450D0
:102CF000FDF7D0FEB7214DF22550FDF7CBFE0221A6
:102D00004DF22650FDF7C6FECF214DF22750FDF7BC
:102D1000C1FE02214DF22850FDF7BCFEDE214DF22E
:102D20002950FDF7B7FE02214DF22A50FDF7B2FE01
:102D3000F2214DF22B50FDF7ADFE02214DF22C5049
:102D4000FDF7A8FEFE214DF22D50FDF7A3FE032155
:102D50004DF22E50FDF79EFE10214DF22F50FDF743
:102D600099FE03214DF23050FDF794FE33214DF2D0
:102D70003150FDF78FFE03214DF23250FDF78AFEF0
:102D80006D214DF23350FDF785FE00214FF4564082
:102D9000FDF780FE33214DF20160FDF77BFE00213F
:102DA0004DF20260FDF776FE34214DF20360FDF72F
:102DB00071FE00214DF20460FDF76CFE3A214DF2E8
:102DC0000560FDF767FE00214DF20660FDF762FE2B
:102DD0004A214DF20760FDF75DFE00214DF20860CB
:102DE000FDF758FE5C214DF20960FDF753FE00210E
:102DF0004DF20A60FDF74EFE81214DF20B60FDF7AA
:102E000049FE00214DF20C60FDF744FEA6214DF273
:102E10000D60FDF73FFE00214DF20E60FDF73AFE1A
:102E2000E5214DF20F60FDF735FE01214DF21060F6
:102E3000FDF730FE13214DF21160FDF72BFE01214D
:102E40004DF21260FDF726FE54214DF21360FDF79E
:102E500021FE01214DF21460FDF71CFE82214DF28E
:102E60001560FDF717FE01214DF21660FDF712FE09
:102E7000CA214DF21760FDF70DFE02214DF21860D8
:102E8000FDF708FE00214DF21960FDF703FE022157
:102E90004DF21A60FDF7FEFD01214DF21B60FDF7BA
:102EA000F9FD02214DF21C60FDF7F4FD34214DF2D5
:102EB0001D60FDF7EFFD02214DF21E60FDF7EAFDFA
:102EC00067214DF21F60FDF7E5FD02214DF2206004
:102ED000FDF7E0FD84214DF22160FDF7DBFD0221CD
:102EE0004DF22260FDF7D6FDA4214DF22360FDF7DF
:102EF000D1FD02214DF22460FDF7CCFDB7214DF24A
:102F00002560FDF7C7FD02214DF22660FDF7C2FDE9
:102F1000CF214DF22760FDF7BDFD02214DF2286063
:102F2000FDF7B8FDDE214DF22960FDF7B3FD02216A
:102F30004DF22A60FDF7AEFDF2214DF22B60FDF758
:102F4000A9FD02214DF22C60FDF7A4FDFE214DF2FA
:102F50002D60FDF79FFD03214DF22E60FDF79AFDD8
:102F600010214DF22F60FDF795FD03214DF23060E9
:102F7000FDF790FD33214DF23160FDF78BFD03210C
:102F80004DF23260FDF786FD6D214DF23360FDF7A5
:102F900081FD55211846FDF77DFDAA212846FDF744
:102FA00079FD52213046FDF775FD08213846FDF7C1
:102FB00071FD00216046FDF76DFDCC215046FDF707
:102FC00069FD00215846FDF765FD05214846FDF7DE
:102FD00061FD70214FF43740FDF75CFD70214BF22D
:102FE0000170FDF757FD01214FF43840FDF752FD08
:102FF00003214BF60100FDF74DFD03214BF60200C6
:10300000FDF748FD03214BF60300FDF743FD0221C8
:103010004FF43C40FDF73EFD00214BF60140FDF72B
:1030200039FD00214BF60240FDF734FDD0214FF46D
:103030004940FDF72FFD02214CF60110FDF72AFD56
:1030400050214CF60210FDF725FD50214CF60310DF
:10305000FDF720FD50214CF60410FDF71BFD00216B
:103060004FF45450FDF716FD55214FF46850FDF70D
:1030700011FD4FF488502080782002F064F84FF45E
:1030800024502080FEE3A0F513414FF4E06940F2A4
:10309000022A4FF4274B253924D040F20777C91E66
:1030A0007ED04FF4887B08317BD011397AD0A0F5DF
:1030B000A841083977D0A0F5A8514FF4407B0539D5
:1030C00072D0B1F5204170D0B1F580516ED0A0F52D
:1030D0008A4131396BD0091F6AD0A0F5C8516339D4
:1030E00067D0CFE747F6F001E520FDF7D3FC314686
:1030F0000120FDF7CFFC49460220FDF7CBFC41F251
:1031000030010320FDF7C6FC00210420FDF7C2FCBE
:1031100051460820FDF7BEFC00210920FDF7BAFC4E
:1031200000210A20FDF7B6FC00210C20FDF7B2FCBF
:1031300000210D20FDF7AEFC00210F20FDF7AAFCB9
:1031400000211020FDF7A6FC07211120FDF7A2FCAD
:1031500000211220FDF79EFC00211320FDF79AFCB0
:1031600000210720FDF796FC41F290611020FDF749
:1031700091FC40F227211120FDF78CFC9D211220AB
:10318000FDF788FC4FF4C8511320FDF783FC25217F
:103190002920FDF77FFC0D212B20FDF77BFC09E0AA
:1031A00077E033E1D8E1AEE24AE3FDE3FDE3FDE39E
:1031B000FDE3FDE307213020FDF76CFC40F2033115
:1031C0003120FDF767FC03213220FDF763FC40F25C
:1031D00006213520FDF75EFC08213620FDF75AFC5C
:1031E00040F206413720FDF755FC4FF4417138207D
:1031F000FDF750FC07213920FDF74CFC40F202613D
:103200003C20FDF747FC08213D20FDF743FC002151
:103210005020FDF73FFCEF215120FDF73BFC002142
:103220005220FDF737FC40F23F115320FDF732FCEE
:1032300059466020FDF72EFC01216120FDF72AFC94
:1032400000216A20FDF726FC00218020FDF722FCEA
:1032500000218120FDF71EFC00218220FDF71AFCD1
:1032600000218320FDF716FC00218420FDF712FCCD
:1032700000218520FDF70EFC10219020FDF70AFCAF
:103280004FF4C0619220FDF705FC40F23311072096
:10329000FDE341F28F01EC20FDF7FCFB41F234210C
:1032A000EF20FDF7F7FB31460120FDF7F3FB494620
:1032B0000220FDF7EFFB41F230010320FDF7EAFBAE
:1032C00000210420FDF7E6FB51460820FDF7E2FB54
:1032D00000210920FDF7DEFB00210A20FDF7DAFBC3
:1032E00001210C20FDF7D6FB00210D20FDF7D2FBBC
:1032F00000210F20FDF7CEFB00211020FDF7CAFBB7
:1033000007211120FDF7C6FB00211220FDF7C2FBAB
:1033100000211320FDF7BEFB01210720FDF7BAFBBA
:10332000322001F027FF41F290411020FDF7B2FB5F
:1033300040F227211120FDF7ADFB322001F01AFFEA
:103340008A211220FDF7A6FB322001F013FF4FF473
:10335000D0511320FDF79EFB06212920FDF79AFB93
:103360000D212B20FDF796FB322001F003FF0021F9
:103370002020FDF78FFB00212120FDF78BFB322061
:1033800001F0F8FE00213020FDF784FB40F20461DB
:103390003120FDF77FFB40F205313220FDF77AFB4B
:1033A00000213520FDF776FB40F609413620FDF778
:1033B00071FB4FF401713720FDF76CFB40F20131D6
:1033C0003820FDF767FB39463920FDF763FB002104
:1033D0003C20FDF75FFB40F60A213D20FDF75AFB3C
:1033E000322001F0C7FE00215020FDF753FBEF21F2
:1033F0005120FDF74FFB00215220FDF74BFB40F21F
:103400003F115320FDF746FB594651E10021084684
:10341000FDF740FB31460120FDF73CFB4946022009
:10342000FDF738FB41F230010320FDF733FB0021AB
:103430000420FDF72FFB51460820FDF72BFB002150
:103440000920FDF727FB00210A20FDF723FB0121BE
:103450000C20FDF71FFB00210D20FDF71BFB0021B9
:103460000F20FDF717FB322001F084FE40F201111E
:103470000720FDF70FFB322001F07CFE4FF4865150
:103480001020FDF707FB07211120FDF703FB5B462A
:1034900059461220FDF7FEFA4FF430611320FDF774
:1034A000F9FA00212920FDF7F5FA44F210012B204A
:1034B000FDF7F0FA00215020FDF7ECFAEF21512042
:1034C000FDF7E8FA00215220FDF7E4FA40F23F113F
:1034D0005320FDF7DFFA4FF41C516020FDF7DAFAB4
:1034E00001216120FDF7D6FA00216A20FDF7D2FA0A
:1034F00000218020FDF7CEFA00218120FDF7CAFAD5
:1035000000218220FDF7C6FA00218320FDF7C2FAD0
:1035100000218420FDF7BEFA00218520FDF7BAFACC
:1035200010219020FDF7B6FA00219220FDF7B2FAA3
:1035300001219320FDF7AEFA19469520FDF7AAFA6E
:1035400000219720FDF7A6FA00219820FDF7A2FAA6
:1035500040F27311072085E341F21401E720FDF7E3
:1035600099FA31460120FDF795FA4FF400710220D7
:10357000FDF790FA41F238010320FDF78BFA51462E
:103580000820FDF787FA00210920FDF783FA0021C2
:103590000A20FDF77FFA00210C20FDF77BFA0021BD
:1035A0000D20FDF777FA00210F20FDF773FA0021B7
:1035B0001020FDF76FFA07211120FDF76BFA0021AB
:1035C0001220FDF767FA00211320FDF763FAC820E7
:1035D00001F0D0FD41F290611020FDF75BFA40F25E
:1035E00027211120FDF756FA322001F0C3FD0C21EE
:1035F0001220FDF74FFA322001F0BCFD4FF40061BC
:103600001320FDF747FA11212920FDF743FA0B217A
:103610002B20FDF73FFA322001F0ACFD00212020E5
:10362000FDF738FA40F23F1319462120FDF732FA30
:1036300000213020FDF72EFA4FF48374214631200B
:10364000FDF728FA00213220FDF724FA4FF401712A
:103650003520FDF71FFA41F20A613620FDF71AFA0C
:1036600039463720FDF716FA21463820FDF712FAC1
:1036700039463920FDF70EFA40F202413C20FDF7B1
:1036800009FA40F60F413D20FDF704FA00215020D1
:10369000FDF700FAEF215120FDF7FCF9002152203F
:1036A000FDF7F8F919465320FDF7F4F94FF41C51D2
:1036B0006020FDF7EFF901216120FDF7EBF9002112
:1036C0006A20FDF7E7F900218020FDF7E3F90021EA
:1036D0008120FDF7DFF900218220FDF7DBF90021D1
:1036E0008320FDF7D7F900218420FDF7D3F90021CD
:1036F0008520FDF7CFF910219020FDF7CBF94FF48D
:10370000C0619220FDE331460120FDF7C3F949462F
:103710000220FDF7BFF941F230010320FDF7BAF9AD
:1037200000210420FDF7B6F940F207210820FDF73B
:10373000B1F900210920FDF7ADF900210A20FDF7BC
:10374000A9F900210C20FDF7A5F900210D20FDF7B6
:10375000A1F900210F20FDF79DF9142001F00AFDC9
:1037600041F2B0611020FDF795F901211120FDF71C
:1037700091F901211720FDF78DF94FF49C7112206A
:10378000FDF788F94FF400611320FDF783F9092153
:103790002920FDF77FF909212A20FDF77BF9002177
:1037A000A420FDF777F900215020FDF773F9EF21F0
:1037B0005120FDF76FF900215220FDF76BF940F21F
:1037C0003F115320FDF766F94FF41C516020FDF7BF
:1037D00061F901216120FDF75DF900216A20FDF703
:1037E00059F900218020FDF755F900218120FDF7CE
:1037F00051F900218220FDF74DF900218320FDF7CA
:1038000049F900218420FDF745F900218520FDF7C5
:1038100041F913219020FDF73DF900219220FDF799
:1038200039F903219320FDF735F959469520FDF725
:1038300031F940F273110720FDF72CF9322010E125
:1038400000210720FDF726F9322001F093FC4FF408
:103850008E711220FDF71EF90121A420FDF71AF93F
:103860000F210820FDF716F908210A20FDF712F9AB
:1038700008210D20FDF70EF939463020FDF70AF931
:10388000072100E06FE33120FDF704F940F2036106
:103890003220FDF7FFF84C4649463320FDF7FAF891
:1038A00051463420FDF7F6F802213520FDF7F2F8F5
:1038B00041F60F713620FDF7EDF839463720FDF758
:1038C000E9F800213820FDF7E5F800213920FDF75F
:1038D000E1F839463A20FDF7DDF800213B20FDF7FD
:1038E000D9F807213C20FDF7D5F800213D20FDF750
:1038F000D1F8322001F03EFC01210720FDF7CAF883
:1039000001211720FDF7C6F8322001F033FC4FF4F7
:10391000BD511020FDF7BEF840F217211120FDF730
:10392000B9F84FF48F711220FDF7B4F84FF47061BD
:103930001320FDF7AFF800212A20FDF7ABF80A218C
:103940002920FDF7A7F84FF49F711220FDF7A2F888
:1039500000215020FDF79EF8EF215120FDF79AF845
:1039600000215220FDF796F840F23F115320FDF759
:1039700091F84FF41C516020FDF78CF80121612073
:10398000FDF788F800216A20FDF784F800218020E7
:10399000FDF780F800218120FDF77CF800218220CE
:1039A000FDF778F8002104E05EE05CE125E2DBE26F
:1039B00082E38320FDF76EF800218420FDF76AF88A
:1039C00000218520FDF766F813219020FDF762F8AD
:1039D00059469220FDF75EF805219320FDF75AF82D
:1039E00000219520FDF756F800219720FDF752F8A9
:1039F00000219820FDF74EF831460120FDF74AF8E6
:103A000021460220FDF746F841F238010320FDF778
:103A100041F800210420FDF73DF800210C20FDF7BE
:103A200039F800210F20FDF735F800212020FDF79F
:103A300031F800212120FDF72DF821210720FDF785
:103A400029F8142001F096FB61210720FDF722F8E8
:103A5000142001F08FFB40F273110720FDF71AF8D4
:103A6000142001F087FBA1E300210846FDF712F8BE
:103A700000210846FDF70EF800210846FDF70AF878
:103A800000210846FDF706F80121A42000E0E5E04A
:103A9000FDF700F8142001F06DFB4FF41C54214693
:103AA0006020FCF7F7FF554651460820FCF7F2FF6F
:103AB0004FF405713020FCF7EDFF43F21571312012
:103AC000FCF7E8FF40F204613220FCF7E3FF40F628
:103AD00016613320FCF7DEFF42F211213420FCF79F
:103AE000D9FF4FF4A8513520FCF7D4FF48F2075115
:103AF0003620FCF7CFFF41F207413720FCF7CAFF21
:103B000041F203413820FCF7C5FF20213920FCF7A2
:103B1000C1FF1A219020FCF7BDFF00211020FCF707
:103B2000B9FF07211120FCF7B5FF00211220FCF797
:103B3000B1FF00211320FCF7ADFF142001F01AFBA8
:103B40004FF4E6611020FCF7A5FF40F23711112079
:103B5000FCF7A0FF142001F00DFB4FF4DC711220E4
:103B6000FCF798FF142001F005FB4FF4706113205F
:103B7000FCF790FF80212A20FCF78CFF48212920A8
:103B8000FCF788FF142001F0F5FA31460120FCF71C
:103B900081FF49460220FCF77DFF41F238010320F6
:103BA000FCF778FF29460820FCF774FF00210A2063
:103BB000FCF770FF00210C20FCF76CFF00210D20AA
:103BC000FCF768FF30210E20FCF764FF0021502035
:103BD000FCF760FFEF215120FCF75CFF0021522031
:103BE000FCF758FF40F23F115320FCF753FF2146EA
:103BF0006020FCF74FFF01216120FCF74BFF002103
:103C00006A20FCF747FF11219020FCF743FF4FF497
:103C1000C0619220FCF73EFF40F202419320FCF786
:103C200039FF02219420FCF735FF142001F0A2FA9D
:103C300001210720FCF72EFF142001F09BFA6121DF
:103C40000720FCF727FF40F273110720FCF722FF43
:103C500000212020FCF71EFF00212120FCF71AFF85
:103C6000222100207DE100210846FCF713FF0021FE
:103C70000846FCF70FFF142001F07CFA00210846EB
:103C8000FCF708FF00210846FCF704FF0021084666
:103C9000FCF700FF00210846FCF7FCFE0121A420F0
:103CA000FCF7F8FE142001F065FA4FF41C51602077
:103CB000FCF7F0FE40F606010820FCF7EBFE40F2B0
:103CC000037319463020FCF7E5FE01213120FCF793
:103CD000E1FE04213220FCF7DDFE4FF48171332038
:103CE000FCF7D8FE5C4659463420FCF7D3FE40F280
:103CF00003113520FCF7CEFE1F213620FCF7CAFE4B
:103D000019463720FCF7C6FE01213820FCF7C2FE19
:103D100004213920FCF7BEFE15219020FCF7BAFEE5
:103D20004FF482611020FCF7B5FE40F247211120CC
:103D3000FCF7B0FE4FF4DE711220FCF7ABFE4FF43F
:103D400060611320FCF7A6FE782001F013FA3146DB
:103D50000120FCF79FFE4FF400710220FCF79AFE51
:103D600041F230010320FCF795FE08210A20FCF700
:103D700091FE00210C20FCF78DFE20210E20FCF787
:103D800089FE00210F20FCF785FE00212020FCF792
:103D900081FE00212120FCF77DFE3D212A20FCF739
:103DA00079FE142001F0E6F92D212920FCF772FE9E
:103DB00000215020FCF76EFE4DF2EF015120FCF780
:103DC00069FE00215220FCF765FE40F23F115320AE
:103DD000FCF760FE00216120FCF75CFE00216A20F8
:103DE000FCF758FE21469220FCF754FE0521932053
:103DF000FCF750FE3146FFF7ADBB01210020FCF778
:103E000049FE0A2001F0B6F941F228611020FCF7C2
:103E100041FE0E211220FCF73DFE40F63921132011
:103E2000FCF738FE0A2001F0A5F940211120FCF72B
:103E300031FE50211520FCF72DFE0A2001F09AF9E1
:103E40001E211220FCF726FE0A2001F093F94FF400
:103E5000B1511020FCF71EFE42F639211320FCF769
:103E600019FE0A2001F086F931460120FCF712FE06
:103E700059460220FCF70EFE41F238010320FCF700
:103E800009FE51460820FCF705FE08210A20FCF730
:103E900001FE00213020FCF7FDFD40F202413120FF
:103EA000FCF7F8FD4FF483713220FCF7F3FD40F28C
:103EB00003513320FCF7EEFD4FF482713420FCF700
:103EC000E9FD40F201313520FCF7E4FD39463620AA
:103ED000FCF7E0FD40F205313720FCF7DBFD4FF445
:103EE00002713820FCF7D6FD40F60B713920FCF743
:103EF000D1FD02214120FCF7CDFD4FF41C51602083
:103F000000E0D4E0FCF7C6FD01216120FCF7C2FD12
:103F10004FF404719020FCF7BDFD4FF485719220A1
:103F2000FCF7B8FD04219320FCF7B4FD3146A02036
:103F3000FCF7B0FD01210720FCF7ACFD2121072093
:103F4000FCF7A8FD23210720FCF7A4FD332107205F
:103F5000FCF7A0FD40F233110720FCF79BFD002188
:103F6000A020FCF797FD21E130211520FCF792FD00
:103F700010219A20FCF78EFD20211120FCF78AFDEC
:103F800043F228411020FCF785FD02211220FCF7A6
:103F900081FD41F238011320FCF77CFD282001F05F
:103FA000E9F812210846FCF775FD282001F0E2F837
:103FB00043F220411020FCF76DFD43F2380113203D
:103FC000FCF768FD462001F0D5F800213020FCF711
:103FD00061FD40F202413120FCF75CFD40F2073107
:103FE0003220FCF757FD4FF441713320FCF752FDAE
:103FF00004213420FCF74EFD40F201413520FCF74E
:1040000049FD39463620FCF745FD40F205313720A1
:10401000FCF740FD4FF4C26319463820FCF73AFD27
:1040200019463920FCF736FD31460120FCF732FDF8
:1040300059460220FCF72EFD41F230010320FCF727
:1040400029FD40F608010820FCF724FD08210A207C
:10405000FCF720FD4FF41C516020FCF71BFD0121F3
:104060006120FCF717FD4FF49F719020FCF712FDC3
:1040700031469220FCF70EFD31469320FCF70AFDF5
:104080004FF44051A020FCF705FD1021A320FCF7C0
:1040900001FD01210720FCF7FDFC21210720FCF791
:1040A000F9FC23210720FCF7F5FC33210720FCF75E
:1040B000F1FC40F233119EE6E22020801D20288092
:1040C0000220288004202880642001F03CF8E020B1
:1040D0002080012028800A2001F04CF8E020208078
:1040E000032028800C2001F045F8012020800A20C0
:1040F00001F040F8E62020802F202880FF20288033
:104100002880B020208020202880002028800320C4
:10411000288040F21F3028800120288040F2DF10E4
:10412000288000202880B42020800420288040F2AD
:104130001F402880002028802E20288000202880F2
:10414000288028802880B6202080022028804FF4F4
:1041500003702880002028801720288015202880C0
:10416000002028802880F02020800320288029201B
:104170002080D020208000202880BE2020800520A4
:104180002880FE2028800120288000202880288088
:104190002880B82020800320288001202880BA2091
:1041A0002080012028806420FCF75EFF0020FCF7BF
:1041B00074FFFF490120C1F880014046FDF7C7F8B0
:1041C0001FB0BDE8F08F2DE9F843FA4D1F46804639
:1041D000AB88089EA3F5D040043802D1A879012805
:1041E00007D0A2EB0800401C85B20C46DFF8C8934C
:1041F00028E02B880846991A0024AC713A462A24F4
:10420000A3EB08036C812B27491E5B1EAF8189B28B
:104210009BB20096FFF7D7FF0120A8716F81AC8198
:10422000BDE8F88321464046FCF758FCFCF740FC0B
:104230000020494602E00E80401C80B2A842FAD31A
:10424000641CA4B2BC42EDD9EAE72DE9F0478246EE
:10425000A2EB0A00401C0E4685B2981B401C87B298
:104260000024DFF85493DDF8208014E0301981B287
:104270005046FCF733FCFCF71BFC0020494606E0E7
:1042800004FB050338F813200A80401C80B2A842C2
:10429000F6D3641CA4B2BC42E8D3BDE8F0872DE994
:1042A000FE4F0026A2EB000882465F1A701E3546BC
:1042B0008946B8F1000F02DD4FF0010102E003D1A1
:1042C0004FF00001019102E0C8F100080190002FB9
:1042D00002DD4FF0010002E003D14FF0000000903A
:1042E00002E0C7F1000700904046B84501DD0446F2
:1042F00000E03C46601C4FF0000B029015E01FFAF6
:1043000089F11FFA8AF0FCF71BFE46443D44A642A1
:1043100002DD0199361B8A44A54202DD00992D1B5E
:1043200089440BF101001FFA80FB02998B45E6DD01
:10433000BDE8FE8FF0B51C4615460E4607460B46F7
:10434000FFF7ADFF3A46234631461046FFF7A7FF79
:1043500023462A4619463846FFF7A1FF2A46234638
:104360003146BDE8F040104699E72DE9FC4F804604
:104370000024154603200F46A0EB450649E0781BB4
:1043800081B208EB040A01901FFA8AF0FCF7D8FD0D
:10439000381B81B208EB050900901FFA89F0FCF781
:1043A000CFFD07EB040B1FFA8BF11FFA89F0FCF726
:1043B000C7FD07EB05091FFA89F11FFA8AF0FCF720
:1043C000BFFDA8EB040A1FFA89F11FFA8AF0FCF777
:1043D000B7FDA8EB05091FFA8BF11FFA89F0FCF76E
:1043E000AFFD019881B21FFA8AF0FCF7A9FD009891
:1043F00081B21FFA89F0FCF7A3FD641C002E03DADA
:1044000006EB8406B61D04E0601B06EB80066D1EFD
:104410000A36AC42B3DDBDE8FC8F2DE9F84F824689
:104420001F460C468B46580700D0012000EBD700F2
:1044300079084843203AC0B202F0FF0900260090F4
:1044400041E00C2F10D0102F12D0182F3ED15B4915
:1044500009EBC90001EB80004FF00008855D2806DC
:104460000AD5574802880BE009EB49005549F1E7A6
:10447000554901EB0910EFE70A9828B950484288DE
:1044800021465046FCF767FD6806050E4948641C46
:10449000A4B24088A04219D9A4EB0B00B84209D1BC
:1044A0000AF101001FFA80FA42485C460188514532
:1044B0000CD906E008F1010000F0FF08B8F1080F80
:1044C000CDD3761CF6B200988642BAD3BDE8F88FF9
:1044D0000346012000E05843491EC9B2FBD2704791
:1044E0002DE9FF4F81B00027DDF838B01D46924618
:1044F00080463C46B9464FEA5B0627E0281B401E33
:10450000C1B20A20FFF7E4FFBAFBF0F00A21B0FBCA
:10451000F1F201FB120027B9691E8C4201DA48B1A1
:1045200001273030C2B206FB048080B25B46CDF872
:10453000009006E006FB048080B25B462022CDF8A6
:1045400000900299FFF769FF641CE4B2AC42D5D336
:1045500005B036E62DE9FF4F81B08046DDF83CA07E
:104560000E984FF000091F4693464C460AF001058D
:10457000460839E0381B401EC1B20A20FFF7A8FFE9
:10458000BBFBF0F00A21B0FBF1F201FB1200B9F124
:10459000000F05D1791E8C4202DAB8B14FF0010943
:1045A0003030C2B206FB048080B200950E9B16E04C
:1045B00000802142641400200008006C56A100080D
:1045C0002A040020F2960008669B00085FEA0A6051
:1045D00006FB04800E9B80B2009508D5302202991C
:1045E000FFF71BFF641CE4B2BC42C3D3B0E7202238
:1045F000F5E72DE9F84F044600F0FF0810190D46C5
:10460000DDE90A761FFA80FA58191FFA80F94FF08F
:10461000000B11E0544502D3E819444685B24D45DC
:104620000FD23B4629462046CDF800B0FFF7F5FEF5
:1046300004EB570084B2761C3278A2F120005E2889
:10464000E8D943E72DE9F04F0746DDE90B08DDF82F
:1046500024B09A4614460E4608B1D043C4B2DFF8DF
:1046600054930025BAF1000F03D0E00711D00A9A45
:1046700014E0200601D50A9A04E0B8F1000F05D134
:10468000B9F8022031463846FCF765FC6006040E96
:1046900009E0B8F1000F05D1B9F8022031463846DB
:1046A000FCF759FC6408BBF1000F0CD07F1CBFB2B3
:1046B000B6F5487F06D2B7F5F07F03D26D1CEDB298
:1046C000082DCFD37DE5761CB6B2F1E72DE9FF4F7B
:1046D00087B00546DDE914BA8846099802F084FCE3
:1046E000C0F34F000027049051E00026C6EBC6003F
:1046F000B149099A00EB80000B5C12F81720934235
:1047000037D100EB0109099899F8011000EB470037
:10471000407881422DD100241F220023CDE90032B0
:10472000CDE902BA09EB04000123C278281980B24E
:104730004146FFF787FF641CA4B2102CECD308F1AC
:10474000080080B2002405901F220023CDE900322A
:10475000CDE902BA09EB04000123C27C281980B21A
:104760000599FFF76FFF641CA4B2102CECD3103531
:10477000ADB2B5F5487F04D308F1100000251FFA4B
:1047800080F8761CB6B21E2EB0D37F1CBFB2049840
:104790008742AAD30BB014E52DE9F0438846814641
:1047A000DDE9075083491F461646088001241EE0B4
:1047B00036F8141006EB44006943CB1730F8020CAE
:1047C00008EB050201EB1351A2EB213168438BB2D8
:1047D000C11700EB1150A2EB203081B209EB0400AD
:1047E00082B2401E80B2FFF75AFD641CA4B2BC42E4
:1047F000DED3BDE8F0832DE9F04F9A46DDF8248042
:1048000091468346002501EB080717E000240BEBD7
:10481000050607E0381B81B2B0B20A9AFCF79BFB91
:10482000641CA4B239F8150000FB08F0C11700EBB6
:104830001150B4EB203FEDDB6D1CADB25545E5D317
:10484000BFE42DE9F04F9B46DDF82480174601EBCD
:1048500008090E4604460025A9F1010A08E060197E
:104860001FFA8AF180B20B9AFCF775FB6D1CADB292
:104870002819B842F3D3002508E060191FFA89F11E
:1048800080B20B9AFCF767FB6D1CADB22819B842D9
:10489000F3D3002506F1010908E060191FFA89F138
:1048A00080B20B9AFCF757FB6D1CADB22819B842C9
:1048B000F3D3002507E0601980B231460B9AFCF76C
:1048C0004AFB6D1CADB22819B842F4D3002507E0AD
:1048D000701981B220460B9AFCF73DFB6D1CADB2FE
:1048E0004545F5D3002504F1010908E0701981B2AE
:1048F0001FFA89F00B9AFCF72EFB6D1CADB24545F3
:10490000F4D304EB07090025A9F1010A08E07019A6
:1049100081B21FFA8AF00B9AFCF71DFB6D1CADB239
:104920004545F4D30025A9F1020908E0701981B2C8
:104930001FFA89F00B9AFCF70EFB6D1CADB24545D2
:10494000F4D3002015E0002507FB09FA0CE0E80786
:1049500008D19AFBFBF02044711980B289B20B9AFE
:10496000FCF7F9FA6D1CADB24545F0D309F1010031
:1049700080B281465845E6D3002016E0002508FBAA
:1049800009FA0DE0E80709D10A990B9A9AFBF1F0B0
:10499000304481B2601980B2FCF7DDFA6D1CADB213
:1049A000BD42EFD309F1010080B20A9981468842E5
:1049B000E4D306E42A040020B2AE0008F0B587B0C4
:1049C000012140F2046001F00AFB4FF4004001F0C5
:1049D0009AFA02277C4DADF8147000248DF8174028
:1049E00005A9284601F013F90420ADF814008DF84C
:1049F000174005A9284601F00AF9744D284600F031
:104A0000D9FC734E304600F0D5FC4FF46020CDE960
:104A100002048DF8044000948DF805408DF8107064
:104A20006946284600F0E2FC6946304600F0DEFCAC
:104A30000121284600F002FD0121304600F0FEFC75
:104A4000284600F018FD304600F015FD284600F01D
:104A500017FD0028FAD1304600F012FD0028FAD1E7
:104A6000284600F014FD304600F011FD284600F005
:104A700013FD0028FAD1304600F00EFD0028FAD1CF
:104A800007B0F0BD10B5514C014607230122204666
:104A900000F02CFD0121204600F005FD02212046FA
:104AA00000F0F8FD0028F9D02046BDE8104000F0E5
:104AB00061BD10B5464C014607230122204600F097
:104AC00015FD0121204600F0EEFC0221204600F0F9
:104AD000E1FD0028F9D02046BDE8104000F04ABDB5
:104AE0002DE9F04100250E4607462C4605E03846E4
:104AF000FFF7C8FF641C0544E4B2B442F7D3B5FB2A
:104B0000F6F080B2BDE8F0812DE9F047ADF5966D85
:104B10000E46824600246F460DF5C8780DF548799B
:104B2000002505E05046FFF7C4FF47F825006D1C3F
:104B3000B542F7D30A9848F8240042460A2008E014
:104B400057F8201052F82430994201D942F8241025
:104B5000401CB042F4D30A9849F824004A460A207F
:104B600008E057F8201052F82430994201D242F858
:104B70002410401CB042F4D3641C642CD0D3154ADA
:104B800058F82400434610600020146853F82010A1
:104B9000A14200D91160401C6428F6D359F82000C6
:104BA00050604B460020546853F82010A14200D9B1
:104BB0005160401C6428F6D3108891880DF5966DDD
:104BC000401A80B2BDE8F08700080140002401408F
:104BD000002801403004002030B500230CE001EB38
:104BE000C30402EBC305646884F000446C6051F8B0
:104BF000334042F833405B1C8342F0DB30BD2DE98B
:104C0000F041174688460546002417E005EBC4002E
:104C10004068014604F08EFB064655F83400014614
:104C200004F088FB314604F0F3F904F0C5F903F011
:104C300083FB03F0A7FB48F82400641CBC42E5DBBF
:104C4000BDE8F08170B50E461D461146049C04F087
:104C5000DFF920602946304604F0DAF9606070BD63
:104C600070B50E461D461146049C04F02FFC2060D2
:104C70002946304604F02AFC606070BD2DE9F047FB
:104C80000E46074614461D4619463046DDF820807C
:104C900004F050FB81462146384604F04BFB494660
:104CA00004F014FCC8F800002146304604F042FB32
:104CB00004462946384604F03DFB214604F0A8F995
:104CC000C8F80400BDE8F0872DE9F0470E46074616
:104CD000194614461D460846DDF8209004F02AFBCC
:104CE00080462146084604F025FB414604F090F931
:104CF00080462946304604F01DFB82462146384650
:104D000004F018FB514604F083F9414604F0E8F939
:104D1000C9F800002946384604F00CFB0546214638
:104D2000304604F007FB294604F0D0FB414604F06E
:104D3000D7F9C9F80400C5E72DE9F0411D4614462E
:104D4000884603F0C2FD06460F46404603F0BDFD0F
:104D50006C4A6D4B03F020FE32463B4603F000FCEC
:104D60000E46074602F06EFD03F00CFB2060012D9D
:104D700001D0002D08D13846314603F08DFA03F0FA
:104D800001FB80F0004060605AE72DE9F34F87B0E7
:104D90000E46079A0120814602EBD2704210012A8A
:104DA00002D009F10100F6E70798079C00EBD075E7
:104DB0006810A41E1BE082420FDA06EBC001D1E9A5
:104DC0000037CDE9013706EBC203D3E9007CC1E926
:104DD000007CDDE90117C3E90017691003E0401A00
:104DE00001EBD17149108142F9DD0844521CA24205
:104DF000E1DD012058E003F068FD02460B4600208B
:104E00004FF0804102F06CFD03F002FD834600EBA1
:104E1000DB704FEA600A012542E0A9EB080003F0CD
:104E200054FD02460B4600204FF0804102F058FD31
:104E300004460F46681E03F048FD22463B4603F039
:104E4000ABFD03F0E5FC069007986C1E401E059034
:104E500023E0DDE9061004EB0A07012303AAFFF7AC
:104E60006BFF01A80090DDE9032306EBC707D7E934
:104E70000001FFF703FF0097DDE9012306EBC407FC
:104E8000D7E90001FFF7ECFE0097DDE90123D7E940
:104E90000001FFF7D7FE05985C448442D9DB6D1C06
:104EA0005545BADD08F1010080464845A3DD09B04B
:104EB000BDE8F08F2DE9F0410D46804600240A46FA
:104EC000FFF78AFE29464046FFF75FFF2A46114654
:104ED0004046FFF781FE11E004F000FA074605EBBB
:104EE000C4063946706804F0FBF87060394655F81E
:104EF000340004F0F5F845F83400641C404644459D
:104F0000EADB9DE6182D4454FB21194070B50D468F
:104F1000044686B00121042001F061F81022ADF8AA
:104F200010208DF813200320744E8DF8120004A970
:104F3000304600F06CFE1021304600F0D2FE012118
:104F4000022001F055F8ADF804400020ADF8005003
:104F50006B4CADF80600ADF802006946204601F042
:104F600025F901221146204601F0DDFB1D218DF8B7
:104F70000C1002218DF80D108DF80E1001208DF807
:104F80000F0003A800F0C3F90121204601F0B6FB91
:104F900006B070BD10B55A4C0121204601F0D7FD76
:104FA000002823D00121204601F0DDFD0121084623
:104FB000FFF796FD04F0AAF9534B024651481988B1
:104FC00040F8312000EBC1000022491C89B2426048
:104FD0001980B1F5806F09D14C491A800120888071
:104FE0002046BDE81040002101F088BB10BD7FB510
:104FF0000D4604460121042000F0FAFFADF80440FC
:105000000020ADF80050424CADF80600ADF80200AB
:105010006946204601F0CAF801221146204601F0F7
:1050200082FB1E218DF80C1002218DF80D1003213A
:105030008DF80E1001208DF80F0003A800F067F91D
:105040000121204601F05AFB7FBD10B5304C0121F3
:10505000204601F07CFD002815D00121204601F0FA
:1050600082FD0121264801F049FB28490888401C9F
:1050700080B2A0F543420880503A04D10020088055
:105080004888401C488010BD7FB50D46044601216C
:10509000082000F0ADFFADF80440ADF8005000244A
:1050A0001C4DADF80640ADF802406946284601F0B7
:1050B0007DF801221146284601F035FB32208DF89B
:1050C0000C008DF80D408DF80E4001208DF80F007A
:1050D00003A800F01CF97FBD10B50E4C012120463D
:1050E00001F035FD002807D00121204601F03BFDED
:1050F00006488168491C816010BD0000000801401D
:1051000000040040741400202E0400203804002005
:1051100000080040000C004010B56FF0040000F0E3
:1051200036F9204820490068B0FBF1F01F49C0B2B1
:1051300000EB40020870C2EBC0104FF6FF7202EAAB
:10514000C000488010BD1949097848434FF0E0215C
:10515000486100238B61086940F00100086108691B
:10516000C20701D0C003FAD5086920F00100086128
:105170008B6170470D49498848434FF0E0214861F1
:1051800000238B61086940F0010008610869C207CB
:1051900001D0C003FAD5086920F0010008618B61D5
:1051A000704700001404002000127A00440400201C
:1051B000704740490A885206FCD53E4AC1B2121DCA
:1051C0001180704770B5054686B0012144F2040095
:1051D00000F005FF4FF40070ADF8100003248DF8C7
:1051E00012401820344E8DF8130004A9304600F008
:1051F0000EFD3015ADF8100004208DF8130004A941
:10520000304600F004FD25208DF814008DF815407F
:105210008DF8164001208DF8170005A800F077F8EA
:105220000020ADF80400ADF80600ADF80800ADF8B8
:105230000C000C201F4CADF80A0000956946204672
:1052400001F0C4FC012240F22551204601F03BFD53
:105250000121204601F02DFD06B070BD70B5154C42
:1052600040F22551204601F0E5FD00280ED02046F1
:1052700001F079FD114AC1B21088030406D4440438
:105280004FF0000306D50A2901D0138070BD40F409
:1052900000400DE00D2909D0C0F30D04084D401C5D
:1052A00080B229551080C728EFD870BD40F48040E7
:1052B000108070BD00380140000801404804002003
:1052C000743400200948804709480047FEE7FEE79C
:1052D000FEE7FEE7FEE7FEE7FEE7FEE7FEE7FEE7A6
:1052E00004480549054A064B704700006D08000850
:1052F00031010008A0350020A03B0020A03700208D
:10530000A03700202849084328490860704730B575
:105310000F23C27801780125F2B1244A126801F105
:10532000E02102F4E062C2F5E062120AC2F1040474
:10533000D3404278A24084781C401443220181F873
:105340000024007800F01F018D404009800000F12A
:10535000E020C0F8005130BD01F01F008540480931
:10536000800000F1E020C0F8805130BD104A1140AB
:1053700001430E48001F016070470C4A121D0029AE
:10538000116801D0014300E08143116070474FF084
:10539000E0210428086903D020F004000861704768
:1053A00040F00400FAE700000000FA050CED00E010
:1053B00080FFFF1FC54910B5884202D10121441565
:1053C0000AE0C349884202D10121041504E0C14921
:1053D00088420AD10121CC03204600F012FE20466B
:1053E000BDE81040002100F00CBE10BD10B54268B1
:1053F000B94B0C791A400B6842EA0422134343600C
:105400008268B64B1A40D1E9024323434C7942EA01
:10541000440213438360C26A097C22F47002491E6D
:10542000C9B242EA0151C16210BD0021016001719F
:1054300041718160C1600121017470470029816858
:1054400002D041F0010101E021F0010181607047CB
:105450000029816802D041F4807101E021F480715B
:1054600081607047002A4268C9B201D00A4300E057
:105470008A4342607047816841F00801816070474B
:10548000014600208968090700D50120704781681E
:1054900041F0040181607047014600208968490796
:1054A00000D5012070470029816802D041F4A00195
:1054B00001E021F4A0018160704701460020896865
:1054C000490200D5012070474268491E22F460421B
:1054D00042EA4131416070470029416802D041F4FD
:1054E000006101E021F400614160704770B507265A
:1054F00009290AD9C568A1F10A0404EB4404A640AD
:10550000B543A3401D43C56007E0056901EB4104B5
:10551000A640B543A3401D4305611F23072A09D2B6
:10552000446B521E02EB820293409C4391400C4319
:10553000446370BD0D2A09D2046BD21F02EB8202B4
:1055400093409C4391400C43046370BDC46A0D3A80
:1055500002EB820293409C4391400C43C46270BDB5
:105560000029816802D041F4801101E021F480110A
:1055700081607047C06C80B2704754484C300068FE
:1055800070470029416802D041F4806101E021F4B4
:105590008061416070470029416802D041F4805128
:1055A00001E021F4805141607047826822F4E042BA
:1055B0000A43826070470029816802D041F40041AB
:1055C00001E021F40041816070470029816802D028
:1055D00041F4021101E021F402118160704701469B
:1055E00000208968890200D50120704770B5072620
:1055F00009290AD9C568A1F10A0404EB4404A640AC
:10560000B543A3401D43C56007E0056901EB4104B4
:10561000A640B543A3401D430561836BC3F301540A
:10562000121B921C02EB82021F249440A343914060
:105630000B43836370BD826B491E22F4401242EA21
:1056400001518163704708B508440090026008BDAD
:1056500008B5084428300090006880B208BD426850
:105660001F4B1A400A434260704741628262704792
:10567000426822F01F020A43426070471349083112
:105680000028086802D040F4000001E020F4000087
:10569000086070470246002012680A4200D00120CC
:1056A0007047C9430160704710B502460020546836
:1056B0000B0AC9B20C401168194202D0002C00D06C
:1056C000012010BD6FEA11210160704700240140E4
:1056D00000280140003C0140FFFEF0FFFDF7F1FF14
:1056E000FFFD3FFF8100A1F1C04140B143F2D20074
:1056F00008606FF070404860C1F8040170474FF0D7
:10570000204243F2DB001060F3E710B51823402479
:105710004FF020414FF0FC32102805D041F8803F77
:105720004C608A60CA6010BD0B664C668A66CA66A9
:1057300010BD4FF02040182140F8A01F002141600B
:105740004FF0FC318160C1600161704710B5D0E954
:1057500001121143D0E903231A4311434269114353
:1057600082691143C2691143026A1143426A1143BB
:10577000826A1143C26A1143026B114302689200AC
:10578000A2F1C04211608168082907D1016889002F
:10579000A1F1C0410A6842F040020A60416BD1E9C0
:1057A000002342EA03128B688C891B0243EA0443FC
:1057B0001A430B8A42EA03520B7D896942EA03626B
:1057C0000A4301688900A1F1C0414A60C16AB1F58C
:1057D000804F08D000686FF070418000A0F1C04099
:1057E000C0F8041110BD816BD1E9002342EA031215
:1057F0008B680C8A1B0243EA04531A430B7D8969A8
:1058000042EA036200680A438000A0F1C040C0F889
:10581000042110BD30B5D0E901121143D0E90323B2
:105820001A431143426941EA4221826941EA423105
:1058300041F00804C169D1E9002342EA03220B893F
:10584000097B1B0443EA01610A43016AD1E900357F
:1058500043EA05230D89097B2D0445EA01610B43C9
:1058600001684FF02040102904D040F8804F82603A
:10587000C36030BD04668266C36630BD10B5D0E932
:10588000001241EA42218268102343EA4232114366
:105890004FF0204242F8A01FC168D1E9003443EA2A
:1058A00004230C89097B240444EA01610B439360BF
:1058B0000169D1E9003443EA04230C89097B2404FB
:1058C00044EA01610B43D3604069D0E9001341EA27
:1058D00003210389007B1B0443EA0060014311613B
:1058E00010BD10B500210222C0E900128160C16024
:1058F000016141618161D202C161C0E908125200B7
:10590000C0E90A210163436B0F221A60436B5A609E
:10591000446BFF23A360446BE260446B2261446BE1
:105920006261446BA161846B2260846B6260846BF2
:10593000A360836BDA60836B1A61836B5A61806B3F
:10594000816110BD10210160002141608160C16052
:10595000016141618161C269FC211160C2695160CC
:10596000C2699160C269D160026A1160026A5160C5
:10597000026A9160006AC160704700210160416065
:105980008160C268FC211160C2685160C268916088
:10599000C268D16002691160026951600269916058
:1059A0000269D16042691160426951604269916047
:1059B0004069C16070478000A0F1C04000290168C3
:1059C00002D041F0010101E0644A114001607047DA
:1059D0004FF0204251B1102804D052F8800F40F00F
:1059E00004000AE0106E40F004000AE05B49C91EA2
:1059F000102804D052F8800F084010607047106ED5
:105A00000840106670474FF02041002851F8A00F61
:105A100002D040F0040002E0504AD21E104008605C
:105A200070474FF0204251B1102804D052F8800F37
:105A300040F040000AE0106E40F040000AE04749A4
:105A40003F39102804D052F8800F0840106070478A
:105A5000106E0840106670474FF02041102802D0A9
:105A6000D1F894007047486F704710B54FF48074B8
:105A70004FF0204372B1102804D0A04205D153F852
:105A8000840F04E0586E08430DE053F8A40F084358
:105A9000186010BD102804D0A04206D153F8840F1E
:105AA00005E0586E8843586610BD53F8A40F88432C
:105AB000EEE7034600204FF02042102B08D0B3F54C
:105AC000807F07D0D2F8A4200A4200D0012070477E
:105AD000526EF9E7D2F88420F6E74FF02042102802
