:020000040800F2
:10000000602B00200D020008E1030008D90300085E
:10001000DD030008B50200082B0C000800000000FA
:10002000000000000000000000000000410800087F
:10003000B90200080000000049070008550900083F
:1000400027020008270200082702000827020008EC
:1000500027020008270200082702000827020008DC
:1000600027020008270200082702000827020008CC
:1000700027020008270200082702000827020008BC
:1000800027020008270200082702000827020008AC
:10009000270200082702000827020008270200089C
:1000A000270200082702000827020008270200088C
:1000B000270200082702000827020008270200087C
:1000C000270200082702000827020008270200086C
:1000D00027020008B90900082702000827020008C3
:1000E000270200082702000827020008270200084C
:1000F000270200082702000827020008270200083C
:10010000270200082702000827020008270200082B
:10011000270200082702000827020008270200081B
:10012000270200082702000827020008270200080B
:1001300000F002F800F05AF80AA090E8000C82449F
:100140008344AAF10107DA4501D100F04FF8AFF27C
:10015000090EBAE80F0013F0010F18BFFB1A43F0A5
:1001600001031847880E0000A80E00000A444FF053
:10017000000C10F8013B13F0070408BF10F8014B06
:100180001D1108BF10F8015B641E05D010F8016B4B
:10019000641E01F8016BF9D113F0080F1EBF10F8AF
:1001A000014BAD1C0C1B09D16D1E58BF01F801CBD2
:1001B000FAD505E014F8016B01F8016B6D1EF9D555
:1001C0009142D6D37047000000230024002500266A
:1001D000103A28BF78C1FBD8520728BF30C148BFAA
:1001E0000B6070471FB51FBD10B510BD00F033F890
:1001F0001146FFF7F7FF00F065FD00F051F803B47A
:10020000FFF7F2FF03BC00F012FD00000948804731
:1002100009480047FEE7FEE7FEE7FEE7FEE7FEE7E8
:10022000FEE7FEE7FEE7FEE704480549054A064B00
:1002300070470000590900083101000860250020BE
:10024000602B002060270020602700207047704747
:10025000704770477047754600F028F8AE460500B5
:100260006946534620F00700854618B020B5FFF7D1
:10027000DBFFBDE820404FF000064FF000074FF0D5
:1002800000084FF0000B21F00701AC46ACE8C009B4
:10029000ACE8C009ACE8C009ACE8C0098D467047BD
:1002A0000446AFF300802046FFF7A9FF00487047DF
:1002B000FC24002000BFFEE770472DE9F041024614
:1002C00000250026002000230024002791F803C009
:1002D0000CF00F0591F803C00CF0100CBCF1000FEE
:1002E00003D091F802C04CEA050591F800C0BCF1BA
:1002F000000F31D0146800202BE04FF0010C0CFAF5
:1003000000F3B1F800C00CEA03069E4220D183003E
:100310004FF00F0C0CFA03F7BC4305FA03FC4CEA50
:10032000040491F803C0BCF1280F06D14FF0010C72
:100330000CFA00FCC2F814C00AE091F803C0BCF14A
:10034000480F05D14FF0010C0CFA00FCC2F810C0A8
:10035000401C0828D1D31460B1F800C0BCF1FF0FD5
:1003600034DD546800202EE000F1080C4FF0010845
:1003700008FA0CF3B1F800C00CEA03069E4221D142
:1003800083004FF00F0C0CFA03F7BC4305FA03FC93
:100390004CEA040491F803C0BCF1280F05D100F128
:1003A000080C08FA0CF8C2F8148091F803C0BCF1EC
:1003B000480F07D100F1080C4FF0010808FA0CF8BB
:1003C000C2F81080401C0828CED35460BDE8F081EC
:1003D000416170470161704700BFFEE700BFFEE763
:1003E0007047000070B5002100230F22C47804B3C9
:1003F000154C246804F4E064C4F5E064210AC1F1FA
:100400000403CA40447804FA03F184781440214379
:1004100009010E4C0678A155047804F01F0501244B
:10042000AC4005786D11AD0005F1E025C5F800413F
:1004300009E0047804F01F050124AC40044D06785F
:10044000761145F8264070BD0CED00E000E400E0B8
:1004500080E100E002490143024A11607047000058
:100460000000FA050CED00E070B5002419E004F17D
:10047000B001C8B2002100F02FF90021084600F0B9
:100480002BF90021102000F027F9002505E00121BB
:10049000002000F021F9681CC5B2802DF7DB601C3C
:1004A000C4B2082CE3DB70BD2DE9F05F06460F46B1
:1004B00090461C46DDF828A04FF0000BE11704EB36
:1004C0005171C910A4EBC10131B92046E11704EB09
:1004D0005171C1F3C70506E02046E11704EB5171E5
:1004E000C910491CCDB23D4615E02946304600F002
:1004F000DBF8B1460BE059460BF1010B1AF801008D
:10050000012100F0E9F809F1010000F0FF09C145FF
:10051000F1DB681CC5B2A542E7DBBDE8F09F000037
:1005200008B501214FF4947000F010F94FF4FC70FD
:10053000ADF8000010208DF8030003208DF80200B4
:1005400069465648FFF7B9FE4FF4FC715348FFF770
:1005500041FF0320ADF8000069465148FFF7ADFEAA
:1005600003214F48FFF736FF4FF40040ADF800007D
:1005700069464C48FFF7A1FE4FF400414948FFF798
:1005800029FF10214548FFF725FF642000F074FB88
:1005900010214248FFF71CFF642000F06DFB102182
:1005A0003E48FFF717FF0021AE2000F095F800212C
:1005B000084600F091F80021102000F08DF800218D
:1005C000402000F089F80021812000F085F800210A
:1005D000CF2000F081F80021A12000F07DF800215B
:1005E000C82000F079F80021A62000F075F800215D
:1005F000A82000F071F800213F2000F06DF80021E4
:10060000D32000F069F80021084600F065F80021C9
:10061000D52000F061F80021802000F05DF8002175
:10062000D92000F059F80021F12000F055F8002100
:10063000DA2000F051F80021122000F04DF80021DE
:10064000DB2000F049F80021402000F045F80021AF
:10065000202000F041F80021022000F03DF80021A8
:100660008D2000F039F80021142000F035F8002129
:10067000A42000F031F80021A62000F02DF8002180
:10068000AF2000F029F80021AF2000F025F8FFF797
:10069000EBFE0021084600F007F808BD00140140F9
:1006A000001001400020014070B504460D4605F1E0
:1006B000B001C8B2002100F00FF8102141EA141077
:1006C000002100F009F804F00F0141F001000021C1
:1006D00000F002F870BD000070B504460E4626B169
:1006E00020211848FFF776FE03E020211548FFF788
:1006F0006FFE08211348FFF76BFE002517E040212D
:100700001048FFF765FE04F0800020B180210D48FD
:10071000FFF760FE03E080210A48FFF759FE402101
:100720000848FFF757FE6006040E681CC5B2082D86
:10073000E5DB08210348FFF74DFE20210148FFF7C4
:1007400049FE70BD001401407047000029B1064AFF
:1007500092690243044B9A6104E0034A926982431E
:10076000014B9A61704700000010024030B5002133
:100770000022002400232D4D6D6805F00C0121B1ED
:10078000042905D0082923D105E0294D056022E080
:10079000274D05601FE0254D6D6805F47012234D4F
:1007A0006D6805F48034022505EB92421CB9214D99
:1007B000554305600BE01D4D6D6805F400351DB116
:1007C0001C4D5543056002E0194D5543056002E09C
:1007D000174D056000BF00BF144D6D6805F0F001B6
:1007E0000909154D6B5C0568DD4045600F4D6D686E
:1007F00005F4E061090A104D6B5C4568DD408560D9
:100800000A4D6D6805F46051C90A0B4D6B5C456873
:10081000DD40C560054D6D6805F44041890B074D0D
:100820006B5CC568B5FBF3F5056130BD0010024097
:1008300000127A0000093D001F2400202F24002010
:10084000704710B500F002F810BD00000CB5002094
:10085000019000903348006840F4803031490860CE
:1008600000BF3048006800F4003000900198401C40
:100870000190009818B90198B0F5A06FF1D12948FE
:10088000006800F4003010B10120009001E0002069
:1008900000900098012843D12348006840F01000E0
:1008A000214908600846006820F0030008600846F7
:1008B000006840F0020008601A4840681949486022
:1008C0000846406848600846406840F480604860D8
:1008D0000846406820F47C1048600846406840F4B0
:1008E000E81048600846006840F08070086000BF6B
:1008F0000C48006800F000700028F9D009484068F2
:1009000020F00300074948600846406840F00200B4
:10091000486000BF0348406800F00C000828F9D187
:100920000CBD00000010024000200240042808D145
:100930004FF0E021096941F004014FF0E02211611C
:1009400007E04FF0E021096921F004014FF0E022B7
:10095000116170477047000010B51348006840F0FF
:1009600001001149086008464068104908400E49D6
:100970004860084600680E4908400B490860084670
:10098000006820F4802008600846406820F4FE00DB
:1009900048604FF41F008860FFF753FF4FF000607E
:1009A0000449086010BD0000001002400000FFF87C
:1009B000FFFFF6FE08ED00E010B540F2255130488B
:1009C00000F072F810B32E4800F02AF9C4B22D4896
:1009D000008800F40040C8B92A48008800F480402C
:1009E00060B10A2C03D000202649088020E0254869
:1009F000008840F400402349088019E00D2C06D1FE
:100A00002048008840F480401E49088010E01D48BE
:100A10000088C0F30D001C490C541A480088401C83
:100A20001849088008460088C72801DD0020088092
:100A300015480078312803D10120144908701EE0C0
:100A400011480078322803D102201049087016E0BE
:100A50000D480078332803D103200C4908700EE0BC
:100A600009480078342803D104200849087006E0BA
:100A700005480078392802D109200449087010BDC2
:100A8000003801401C240020342400201E240020B3
:100A900021B1828942F40052828104E082894DF6BC
:100AA000FF731A408281704770B50246002400230C
:100AB0000025002040F66A16B14200D100BFC1F304
:100AC000421501F01F03012606FA03F3012D02D19E
:100AD0009689334006E0022D02D1168A334001E0A8
:100AE000968A33400C12012606FA04F41688344024
:100AF00013B10CB1012000E0002070BDF0B5034639
:100B0000002400260025002040F66A17B94200D1D3
:100B100000BF1846C1F3421401F01F06012707FA6F
:100B200006F5012C01D10C3004E0022C01D110306B
:100B300000E014301AB107682F43076002E007682D
:100B4000AF430760F0BD00002DE9F04786B00546D1
:100B50000E460024A24600BFA1460027B08900B17E
:100B600000BF2F462C8A4CF6FF700440F0880443E7
:100B70002C82AC894EF6F3100440B08831890843CA
:100B8000718908430443AC81AC8A4FF6FF400440AE
:100B9000B0890443AC8201A8FFF7E8FD1F488742F3
:100BA00002D1DDF810A001E0DDF80CA0A88900F466
:100BB000004040B10AEBCA0000EB0A10316849005E
:100BC000B0FBF1F807E00AEBCA0000EB0A1031684D
:100BD0008900B0FBF1F86420B8FBF0F004012009B3
:100BE000642101FB1089A88900F4004040B1322043
:100BF00000EBC900B0FBF1F000F00700044308E08F
:100C0000322000EB09106421B0FBF1F000F00F007E
:100C100004432C8106B0BDE8F08700000038014095
:100C200001468888C0F30800704700BFFEE7014610
:100C300000BF704710B56FF00400FFF777FE0A4859
:100C400000680A49B0FBF1F00949087008460078CD
:100C500000EB4001C1EBC0104FF6FF7101EAC0008C
:100C60000449088010BD00000024002000127A0012
:100C700014240020162400200146114A12884A43F9
:100C80004FF0E0235A6100229A611A46126942F03D
:100C900001021A6100BF4FF0E022106900F001026A
:100CA0001AB100F48032002AF5D04FF0E022126928
:100CB00022F001024FF0E0231A6100229A6170478E
:100CC0001624002008B54FF000080A27002400264B
:100CD0000025FFF7AFFFF801FFF7BCFB4FF41650FC
:100CE00000F034F9FFF71CFCFFF7BEFB18E177E0DA
:100CF000002522E000208B4908800A2700240026D6
:100D000008F1010000F0FF088748082380224146CF
:100D100000900020FFF7C8FBC820FFF7ADFFFFF7EA
:100D2000A3FBB8F1050F00D1A04680480078022847
:100D300001D0002503E0681CC5B20F2DDADB00BF2F
:100D40007A480078022801D1012000E000200F2D10
:100D500001D1012100E000210840002840D00025F9
:100D60003BE0601CC4B2012C0ED1714808238022E4
:100D7000012100900020FFF797FB4FF4FA70FFF776
:100D80007BFFFFF771FB21E0022C0ED1694808239D
:100D90008022012100900020FFF786FB4FF4FA70BB
:100DA000FFF76AFFFFF760FB10E0032C0ED16248EB
:100DB00008238022012100900020FFF775FB4FF4EB
:100DC000FA70FFF759FFFFF74FFB002457480078F0
:100DD000022800D003E0681CC5B2062DC1DB00BFAD
:100DE00052480078022883D050480078012814D156
:100DF0004FF0000800240026781EC7B24F48082391
:100E00008022394600900020FFF74EFBC820FFF7F4
:100E100033FFFFF729FB07B90A2744480078032866
:100E200038D14FF000080A270026601CC4B2012CFC
:100E30000ED13F4808238022012100900020FFF7B7
:100E400033FB4FF4FA70FFF717FFFFF70DFB21E0BC
:100E5000022C0ED137480823802201210090002067
:100E6000FFF722FB4FF4FA70FFF706FFFFF7FCFADB
:100E700010E0032C0ED1304808238022012100907D
:100E80000020FFF711FB4FF4FA70FFF7F5FEFFF7B4
:100E9000EBFA002425480078042838D14FF00008E8
:100EA0000A270024701CC6B2012E0ED12448082344
:100EB0008022012100900020FFF7F6FA4FF4FA702B
:100EC000FFF7DAFEFFF7D0FA21E0022E0ED11D481F
:100ED00008238022012100900020FFF7E5FA4FF45B
:100EE000FA70FFF7C9FEFFF7BFFA10E0032E0ED12C
:100EF000154808238022012100900020FFF7D4FA32
:100F00004FF4FA70FFF7B8FEFFF7AEFA0026074875
:100F10000078092801D1FFF7A7FA002001490880CD
:100F2000E5E600001C240020000000201E24002014
:100F3000000C0020001000200014002000040020FD
:100F400000200020001C00200018002010B586B0F2
:100F50000446012144F20400FFF7F8FB4FF400704F
:100F6000ADF8140003208DF8160018208DF8170036
:100F700005A91C48FFF7A1F94FF48060ADF81400F3
:100F800004208DF8170005A91648FFF796F92520CB
:100F90008DF8000003208DF801008DF8020001207B
:100FA0008DF803006846FFF71DFA01940020ADF8A4
:100FB0000800ADF80A00ADF80C00ADF810000C20E8
:100FC000ADF80E0001A90848FFF7BEFD012240F26E
:100FD00025510548FFF792FD01210348FFF758FD11
:100FE00006B010BD00080140003801400C10000898
:100FF00000000020342400006C010008CC1100081F
:10100000342400202C070000C801000801B35BF065
:1010100030010276F0FAFF090168180B0103070D91
:10102000193161C1810101000A7281C16131190D5B
:101030000703010D72010306067801FF0187000C0A
:101040006F80C060301818103060C08058092030A0
:10105000382C2623E12001000870E02123262C38BB
:1010600030FAFF09016E7A010101FF01FF01FF0162
:1010700066880A80C06030180C06FFC001016A470C
:101080000C1E3361C0807AFF81036FFFFF07FF01F1
:1010900003060C183F01F00771FC183060C0804B4C
:1010A000FF010143FFFF00086B0103068CD870208D
:1010B0006A0301000A77FFC06030180C06030109BB
:1010C000767801FF01FF0135076FFC183060C080A2
:1010D0006BFF010143FFFF0008690103068CD87014
:1010E000208A0301000A77FFC06030180C06030154
:1010F00009767801FF01FF0135076EFC183060C0EA
:10110000807BFF010143FFFF0008680103068CD8C4
:1011100070209A0301000A77FFC06030180C0603A4
:101120000109767801FF01A9077480C0603018FCBE
:1011300040082070D88C0603017CFFFF0101026B80
:10114000FF980B0103060C183060C0FF0301017308
:1011500002FF0101FF01A7077480C0603018FC4046
:10116000082070D88C0603016CFFFF0101026CFFA0
:10117000880B0103060C183060C0FF0301017402E4
:10118000FF0101FF01A7077480C0603018FC400810
:101190002070D88C0603014CFFFF0101026EFF682E
:1011A0000B0103060C183060C0FF0301017602FF3B
:1011B0000101FF011A84A24A04F009010203040696
:0C11C0000708092917691B15020406081E
:040000050800020DE0
:00000001FF
