:020000040800F2
:10000000C8070020E5010008891600088F120008C3
:10001000851600086F110008971D000800000000F9
:10002000000000000000000000000000751900083A
:10003000731100080000000011170008891A000859
:10004000FF010008FF010008FF010008FF01000890
:10005000FF010008FF010008FF010008FF01000880
:10006000FF010008FF010008FF010008FF01000870
:10007000FF010008FF010008FF010008FF01000860
:10008000FF010008FF010008FF010008FF01000850
:10009000FF010008FF010008FF010008FF01000840
:1000A000FF010008FF010008FF010008FF01000830
:1000B000FF010008FF010008FF010008FF01000820
:1000C000FF010008FF010008FF010008FF01000810
:1000D000FF010008ED1A0008751B0008FF01000869
:1000E000FF010008FF010008FF010008FF010008F0
:1000F000FF010008FF010008FF010008FF010008E0
:10010000FF010008FF010008FF010008FF010008CF
:10011000FF010008FF010008FF010008FF010008BF
:10012000FF010008FF010008FF010008FF010008AF
:1001300000F002F800F047F80AA090E8000C8244B2
:100140008344AAF10107DA4501D100F03CF8AFF28F
:10015000090EBAE80F0013F0010F18BFFB1A43F0A5
:1001600001031847B8440000D8440000103A24BFE7
:1001700078C878C1FAD8520724BF30C830C144BF0C
:1001800004680C607047000000230024002500264E
:10019000103A28BF78C1FBD8520728BF30C148BFEA
:1001A0000B607047662902F00C86002070471FB56F
:1001B00000F09EFA04000020002102F025F8E06023
:1001C0001FBD10B510BD00F0ABFB1146FFF7EFFFF0
:1001D00001F0E4FE00F0C9FB03B4FFF7F2FF03BC3B
:1001E00001F0EFFD0948804709480047FEE7FEE7B8
:1001F000FEE7FEE7FEE7FEE7FEE7FEE7FEE7FEE7D7
:1002000004480549054A064B704700008D1A00084E
:1002100031010008C8010020C8070020C8030020E1
:10022000C8030020704700000FB4044910B503AAAA
:10023000029800F04BFA10BC5DF814FB340000206B
:100240002DE9F0410E460446002020622046E16878
:10025000884730B3252805D0D4E901219047206A8A
:10026000401CF2E7E168204600278847050018D0C7
:10027000A5F14100192802D820354FF40067324615
:10028000294620462760FFF78DFF40B1012804D0A2
:10029000F61D26F007060836D8E7361DD6E72846AD
:1002A000DAE7206ABDE8F081704770477047704711
:1002B00070472DE9FF4F0C461E464FF0FF378BB0BD
:1002C000D2E90001DDF860800A908A46C1F30A5540
:1002D00005B93D46002108464FF00000BAF1000F75
:1002E00000F4400005DA00EB80004FF4400101EA21
:1002F00050004FEA9059B9F1010F00DDB9460A9854
:1003000050EA4A000ED044F61050A5F2FF3545439E
:100310002F14B8F1000F1ED07542291E1EDDC9F141
:1003200000021CE0B8F1010F4FF0000001D03021B5
:1003300003E0F24305E02154401CB042FBDB3046B1
:100340000022002121540B99C1F80880C1E9002046
:100350000FB0BDE8F08FBD1B6D1CDEE74A4600DA2A
:10036000694206A800F066FA06AB93E8070003AB03
:1003700083E8070050460A9900F03EFB8DE807002D
:10038000A0F500501F3800900398002D09DD42F2BF
:100390001F014A46084403A90390684600F09DFDEA
:1003A00008E0A0F500504A461F3803A903906846AC
:1003B00000F0A7FD8DE807000004000C03D04FF00B
:1003C000FF30410800E01046B8F1000F03D00022D2
:1003D000009215461EE0751E05D400F08DF93032EE
:1003E00062556D1EF9D5B3460122084302D00022A2
:1003F0007F1C04E02078302801D100227F1E002AD3
:10040000099786D01DE0112D07DA00F075F930321A
:1004100062556D1C50EA0102F5D1084302D00098E4
:10042000C8B10EE00021681E05E0235C625C6354E5
:100430002254401E491C8142F7DBAB46A81B401EDC
:100440000990002004F80B000B98099AC0F8088066
:10045000C0E9002B7CE711264FF0000859E72DE991
:10046000F04F88460446D21D22F0070191B0D1E931
:100470000001CDE90A0101F090FC02460B98C00F83
:1004800001D02D2007E02068810701D52B2002E054
:10049000202101EAC000032A099001D0072A05DBC8
:1004A00003464146204600F085F90BE1207880069E
:1004B00001D5E06900E00620B8F1650F814606D05D
:1004C000B8F1660F18D0B8F1670F70D131E0002095
:1004D000B9F1110F009001DB112301E009F10103D3
:1004E0000AAA01A90CA8FFF7E4FEDDE90C700026BA
:1004F00009F10105834647E001204B4600904FF08B
:1005000000470AAA01A90CA8FFF7D3FEDDE90DB048
:100510000C995D46002610B909F101000D18B9EBE0
:10052000050003D4C0F1FF3609F10105A5EB090070
:100530002BE0B9F1010F01DA4FF001090020B9F108
:10054000110F0090484601DD112300E003460AAA7E
:1005500001A90CA8FFF7ADFEDDE90C704D460026A1
:100560008346207800070AD4AB4500DA5D4601A82F
:10057000012D04DD411911F8011C302907D04F4528
:1005800002DA17F1040F04DA012082460FE06D1E33
:10059000EEE7002F02DCED1B3E4403E0781CA8428E
:1005A00000DD7D1CB81B00F1010A4FF000472078E8
:1005B000000703D4AA4501DB4FF0FF3A0021B7F151
:1005C000004F0DF143088DF8431024D002202B2357
:1005D000002F01DA7F422D230A21021EA0F1010023
:1005E00000DC5FB197FBF1FC97FBF1F201FB1C7C97
:1005F00017460CF1300C08F801CDEEE7A8F1010028
:1006000003702188090501D5452100E06521A0F18D
:10061000010800F8011C09980FA9A1EB0807FF1DAC
:1006200000B10120411901EBEA70A1693844081AB0
:10063000401EA0612078C00602D42046AFF300809F
:10064000099828B1D4E901219047206A401C206212
:100650002078C00622D52046AFF300801EE0002E91
:1006600004DBB34502DD01A8805D00E03020D4E961
:1006700001219047206A401C2062761CAAF10100EB
:100680005FEA000A0AD100F033F8C0680168405CF4
:10069000D4E901219047206A401C2062281EA5F160
:1006A0000105DCDC07E0D4E9012118F8010B9047D3
:1006B000206A401C2062381EA7F10107F3DC2046A7
:1006C000AFF30080032011B043E60000074B70B584
:1006D0000D467B4400F05BF80446284600F018F90C
:1006E00010B14FF0FF3070BD204670BDAB18000058
:1006F000004870478801002030B5B0F10A024FEA87
:10070000900E71F100034EEA817EB0EB0E0061EBBA
:1007100091014FEA101E4EEA017E10EB0E0041EBF4
:1007200011114FEA102E4EEA016E10EB0E0041EB54
:1007300011214FEA104E4EEA014E10EB0E0041EB34
:100740001141401841F100014FEAD00040EA4170E8
:100750004FEAD10110EB80054FEA810444EA90741E
:1007600044EB01046D1944EB0404521BA3414FF008
:10077000000348BF0A3200D530BD401C41F10001E2
:1007800030BD000001694A1C02610878704700B55D
:100790008FB0CDE901310021059105497944CDE9BA
:1007A000031011466846FFF74BFD0FB000BD000077
:1007B000E5FFFFFF2DE9F0411F46044603260168CF
:1007C000072A01F4006004DB08B116A505E016A5B0
:1007D00003E008B115A500E015A521F01000206088
:1007E000A069C01EA0610FB1401EA0612046AFF3FA
:1007F00000804FB1D4E9012138469047206A401C5F
:100800002062C01C206206E0206AFAE7D4E90121D8
:1008100015F8010B9047761EF8D22046AFF3008002
:10082000BDE8F0814E414E006E616E00494E4600BB
:10083000696E66002DE9F047814616468AB0334856
:1008400078440DC88DE80D0030487844801C03AC16
:100850000DC884E80D0041F69B300844372190FB19
:10086000F1F290FBF1F5A5F1800501FB12041B3CB0
:1008700002D56442012000E00020DFF890A080460D
:100880000027FA44AAF1BE0A0DE0E00709D032467B
:10089000684607EB47010AEB810100F032FB8DE867
:1008A000070064107F1C002CEFD1184F7F44AC3F31
:1008B00018E0E80714D007EB04100DF1180A90E8CF
:1008C0000E008AE80E00C068F04201D19819089025
:1008D000324606A903A800F014FB03AB83E8070027
:1008E0006D10641C002DE4D132466946B8F1000F4A
:1008F00003A802D000F0F1FA01E000F002FBC9E920
:100900000001C9F808200AB0BDE8F087C03D00002A
:10091000007B00F0800070470048704768010020AD
:100920007546FFF7F9FFAE4605006946534620F0CD
:100930000700854618B020B5FFF762FCBDE82040EF
:100940004FF000064FF000074FF000084FF0000B8B
:1009500021F00701AC46ACE8C009ACE8C009ACE83E
:10096000C009ACE8C0098D4670470446AFF300806B
:100970002046FFF731FC00004FF0013C50F8042BFB
:1009800051F8043B9A4221D1A2EB0C03934313EAA2
:10099000CC1317D150F8042B51F8043B9A4215D1CF
:1009A000A2EB0C03934313EACC130BD150F8042BA6
:1009B00051F8043B9A4209D1A2EB0C03934313EA8A
:1009C000CC13DBD04FF00000704700BFD01A01BA43
:1009D000B1FA81F101F0180122FA01F0CB40C1F126
:1009E0002001DBB2C0B2C01A2CFA01F3D11A914334
:1009F00011EAC311E6D170475FEA400C08BF91F0DD
:100A0000000F4FEA8C234FEAC12243EA51514FEACB
:100A10001C5018BF00F5F0404FEA300018BF41F0FD
:100A200000415FEA6C5C00F02980BCF1FF3F08BF29
:100A300040F080407047130C06BF12044FF0100CBA
:100A40004FF0000C130E04BF12020CF1080C130F30
:100A500004BF12010CF1040C930F04BF92000CF1BF
:100A6000020CD30F04BF52000CF1010C11464FF0E1
:100A70000002A0F11F00A0EB0C00704711F0004F26
:100A800008BF704731F000413FF4D5AF0B0C06BFF3
:100A900009044FF0100C4FF0000C0B0E04BF0902BC
:100AA0000CF1080C0B0F04BF09010CF1040C8B0FA7
:100AB00004BF89000CF1020CCB0F04BF49000CF1FC
:100AC000010CCCF12003A0EB0C0022FA03F302FA94
:100AD0000CF241EA030100F10100704720F07F4C65
:100AE00080EA030023F07F47ACEB070303F57C5358
:100AF00000F0004003F1FF032DE980494FEA154B58
:100B000009B44FEA144325EA0B4E24EA03480FF2D6
:100B1000042606EB132749083E785FEA320203FBFE
:100B20000667C7F5000707FB06F64FEA54374FEA9A
:100B3000D64606F1020607FB066CCCF1005C4FEAD4
:100B40001C472CEA074C07FB06F40CFB06F504EBEC
:100B500015464FEA961634BF00204FF000404FEA8A
:100B6000D13706FB07FC4FEA1C4C0CFB0BF7D21BE2
:100B700003FB0CF761EB07010CFB0EF7B0EB074032
:100B800072EB17420CFB08F734BFA2EB0742B2EB43
:100B9000074261EB17414FEA0C444FEA910706FB0D
:100BA00007FC4FEA1C4C0CFB0BF7B0EBC74072EB99
:100BB000573203FB0CF734BFA2EBC742B2EBC7427C
:100BC00061EB57310CFB0EF7B0EBC70072EB5772BD
:100BD0000CFB08F734BFA2EBC702B2EBC70261EB14
:100BE0005771039F4FEA816141EA921104EBCC04F3
:100BF0004FEAD1374FEA826206FB07FC42EA9012C5
:100C00004FEA80604FEA1C4C0CFB0BF7D21B03FB36
:100C10000CF761EB07010CFB0EF7B0EB074072EB32
:100C200017420CFB08F734BFA2EB0742B2EB0742B6
:100C300061EB17414FEA8C554FEA910704EB9C2476
:100C400006FB07FC4FEA1C4C0CFB0BF7B0EBC74054
:100C500072EB573203FB0CF734BFA2EBC742B2EB87
:100C6000C74261EB57310CFB0EF7B0EBC70072EBDC
:100C700057720CFB08F734BFA2EBC702B2EBC702F6
:100C800061EB577115EB4C254FEA816141EA9211F6
:100C90004FEA82624FEAD13742EA901206FB07FC24
:100CA00044F100044FEA80604FEA1C4C0CFB0BF748
:100CB000D21B03FB0CF761EB07010CFB0EF7B0EB4B
:100CC000074072EB17420CFB08F734BFA2EB074258
:100CD000B2EB074261EB174115EB1C154FEA81316E
:100CE00041EA92414FEA823242EA90424FEA803032
:100CF0004FEA0C7644F1000448EA03434EEA0B48FD
:100D00004FF0000EB2EB080C71EB030724BF6246F4
:100D100039464EEB0E0E4FF0000B00185241494180
:100D20004BEB0B0BB2EB080C71EB03077BF1000BE9
:100D300024BF624639464EEB0E0E4FF0000B0018F2
:100D4000524149414BEB0B0BB2EB080C71EB030723
:100D50007BF1000B24BF624639464EEB0E0E51EA82
:100D6000020718BF46F0010616EB0E7655F1000299
:100D700054F1000103D5BDE88901BDE80088BDE854
:100D80008901BDE80048B619524141EB0101A3F1C8
:100D90000103704780807F7E7D7C7B7A79787776CF
:100DA00076757473727171706F6E6E6D6C6C6B6A48
:100DB0006A696868676666656464636362616160E6
:100DC000605F5F5E5E5D5D5C5C5B5B5A5A59595863
:100DD00058575756565555555454535352525251CD
:100DE000515050504F4F4F4E4E4D4D4D4C4C4C4B23
:100DF0004B4B4A4A4A49494948484847474747466A
:100E000046464545454444444443434343424242A5
:100E100042414141002B26D4770021D01CB54FEA36
:100E2000370703B44FF010004FF010014FF00000EF
:100E30000FBCBDE810400BF1010BBBF1010F08BF67
:100E40005FEA170722BF12F1010211F101014FF011
:100E5000004143F1000300F0004043EA0000704706
:100E6000F9D35708DAE746EA064613F1400F4FEA8E
:100E700016461FDD13F1200FDFBF16430A4600217F
:100E800020335B42C8D0C3F1200746EA064602FA87
:100E900007F74FEA164646EA0706C3F1200722FA8B
:100EA00003F201FA07F721FA03F14FF0000342EAD7
:100EB0000702B1E746EA020646EA06464FEA164648
:100EC00046EA0106BCBF46EA0646360C4FF0000370
:100ED0004FF000024FF000019EE72DE9C048934615
:100EE00030B491E8380007C831EA400C48BF34EA12
:100EF000430C03D5FFF7F2FDFFF78CFFF0BCBDE814
:100F000000882DE9C048934630B491E8380007C8FE
:100F100010F0804F08BF13F0804F03D100F005F8A8
:100F2000FFF778FFF0BCBDE8008820F07F4780EA3B
:100F3000030023F07F4C07EB0C03A3F57C5300F078
:100F40000040A3F1FE0392F0000F00F0B38095F093
:100F5000000F00F077802DE901494FEA11404FEA78
:100F6000144621EA004800FB06FC24EA064708FB79
:100F700006F607FB08F800FB07F718EB06484CEBF2
:100F8000164C4FEA124B18EB07484FEA15464CEB4C
:100F9000174022EA0B4E0BFB06FC25EA06470EFB28
:100FA00006F607FB0EFE0BFB07F71EEB064E4CEB9F
:100FB000164C4FF000061EEB074E4CEB174B18EB90
:100FC0000B0840F1000018EB0E0B58EB000840F145
:100FD00000008F1A4FF000013CBFC943661B14BFCD
:100FE000B5EB040C00213CBFC943F61B4FEA174484
:100FF0004EEA8E0E27EA04454FEA1C4704FB0762BF
:101000002CEA074C05FB07F70CFB05F604FB0CFC70
:1010100016EB074642EB174216EB0C4642EB1C421E
:101020001BEB060658EB0202414146EA9E0601D53B
:10103000BDE80189B619524141EB0101A3F1010359
:10104000BDE801894FEA14454FEA114724EA0546F5
:1010500021EA074C05FB07F406FB07F70CFB06F13A
:1010600005FB0CFC11EB074144EB17444FEA124718
:1010700011EB0C4144EB1C4422EA074C05FB07F240
:1010800006FB07F70CFB06F605FB0CFC16EB074608
:1010900042EB174216EB0C4642EB1C456A1854F122
:1010A000000148BF7047B619524141EB0101A3F15D
:1010B0000103704795F0000F37D04FEA11424FEA15
:1010C000144721EA024624EA074C02FB07F106FB1B
:1010D00007F70CFB06F402FB0CFC14EB074441EB96
:1010E00017414FEA154714EB0C4441EB1C4125EA2C
:1010F000074C02FB07F506FB07F70CFB06F602FBA5
:101100000CFC16EB074645EB174516EB0C4645EB7A
:101110001C42121951F1000148BF7047B6195241E3
:1011200041EB0101A3F1010370474FEA14454FEA77
:10113000114724EA054621EA074C05FB07F106FBA7
:1011400007F70CFB06F24FF0000605FB0CFC12EB58
:10115000074241EB174112EB0C4251EB1C4148BFD7
:101160007047921841EB0101A3F10103704700BFE2
:10117000FEE770472DE9F0410246002500260020D9
:1011800000230024002791F803C00CF00F0591F80C
:1011900003C00CF0100CBCF1000F03D091F802C09A
:1011A0004CEA050591F800C0BCF1000F31D014687D
:1011B00000202BE04FF0010C0CFA00F3B1F800C056
:1011C0000CEA03069E4220D183004FF00F0C0CFA6C
:1011D00003F7BC4305FA03FC4CEA040491F803C08E
:1011E000BCF1280F06D14FF0010C0CFA00FCC2F83C
:1011F00014C00AE091F803C0BCF1480F05D14FF0CC
:10120000010C0CFA00FCC2F810C0401C0828D1D315
:101210001460B1F800C0BCF1FF0F34DD5468002049
:101220002EE000F1080C4FF0010808FA0CF3B1F8B9
:1012300000C00CEA03069E4221D183004FF00F0C40
:101240000CFA03F7BC4305FA03FC4CEA040491F8DA
:1012500003C0BCF1280F05D100F1080C08FA0CF806
:10126000C2F8148091F803C0BCF1480F07D100F117
:10127000080C4FF0010808FA0CF8C2F81080401C66
:101280000828CED35460BDE8F0810161704700BFEB
:10129000FEE7000030B503460C4615465A488088E4
:1012A00049F24131884205D05748808845F21031D3
:1012B000884214D15449488900F0B0F9181200F05E
:1012C000A7F9D8B200F0A4F94F49888900F0A6F92F
:1012D000201200F09DF9E0B200F09AF98CE04A4843
:1012E000808845F21051884220D14749488900F052
:1012F00095F9181200F08CF943494989491C88B2C4
:1013000000F08CF9D8B200F083F93F49888900F0E9
:1013100085F9201200F07CF93B498989491C88B283
:1013200000F07CF9E0B200F073F965E0364880889F
:1013300041F66311884228D13348807920B9324878
:101340000088401EC01A83B22F49488900F066F910
:10135000181200F05DF9D8B200F05AF9181200F036
:1013600057F9D8B200F054F92749888900F056F9A6
:10137000201200F04DF9E0B200F04AF9201200F01E
:1013800047F9E0B200F044F936E01F48808846F69D
:10139000040188421DD11C488079012804D11A48D3
:1013A0000088401EC01A83B21749488900F036F9F8
:1013B000181200F02DF9D8B200F02AF912498889E4
:1013C00000F02CF9201200F023F9E0B200F020F92F
:1013D00012E00D488079012804D10B480088401E96
:1013E000C01A83B208494889194600F01DF9064918
:1013F0008889214600F018F90348008903490880CC
:10140000881C058030BD000050000020FE07006CE5
:1014100010B50246012000E050430B00A1F1010489
:10142000E1B2F9D110BD00002DE9F84F80460E461B
:1014300017461C46B3462046E31704EB5373DB10F4
:1014400021464FEAE47C04EB5C7C4FEAEC0CA4EB15
:10145000CC0CBCF1000F02D04FF0010C01E04FF0BA
:10146000000C6344224604EBD27C4FEA6C0C03FB75
:101470000CF3DBB20093A7F12000C7B2002556E0C1
:101480000C2C07D107EB47002B4901EB800010F82B
:10149000059013E0102C05D1284800EB071010F838
:1014A00005900BE0182C07D107EBC700244901EB8E
:1014B000800010F8059001E0BDE8F88F4FF0000AB9
:1014C0002FE009F0800030B11E48028831464046C6
:1014D000FFF7E0FE07E00A9828B91B48028831466A
:1014E0004046FFF7D7FE4FEA49604FEA1069701C8B
:1014F00086B216484088B04200DCDDE7A6EB0B0060
:10150000A0420AD15E4608F101001FFA80F80F4898
:101510000088404500DCCFE706E00AF1010000F05A
:10152000FF0ABAF1080FCCDB00BF681CC5B20098F7
:101530008542A5DB00BFBFE7C62D00083A32000890
:101540002A380008280000202A000020500000202F
:101550002DE9FF4F82B0064692461F46DDE90F484F
:101560000020019000254DE0781B401EC1B20A20EA
:10157000FFF74EFFBAFBF0F00A21B0FBF1F201FBDE
:101580001209019850BB781EA84227DDB9F1000F5F
:1015900022D108F0800078B108F00100A34604EBE6
:1015A000DB71491001FB0561009088B223463022AF
:1015B0000399FFF739FF0EE008F00100A34604EBA2
:1015C000DB71491001FB0561009088B2234620229F
:1015D0000399FFF729FF13E00120019008F00100B3
:1015E000A34604EBDB71491001FB0561009088B252
:1015F00009F13001CAB223460399FFF715FF00BF76
:10160000681CC5B2BD42AFDB06B0BDE8F08F00007C
:1016100001490880704700000008006C01490880FB
:1016200070470000FE07006C024A1080921C118077
:1016300070470000FE07006C08B50121482000F04B
:1016400089F82020ADF8000010208DF80300032059
:101650008DF8020069460948FFF78CFD20210748F4
:10166000FFF713FE2020ADF8000069460448FFF79D
:1016700081FD20210248FFF708FE08BD000C014053
:101680000018014000BFFEE77047000070B5002160
:1016900000230F22C47804B3154C246804F4E064DA
:1016A000C4F5E064210AC1F10403CA40447804FA95
:1016B00003F184781440214309010E4C0678A155AA
:1016C000047804F01F050124AC4005786D11AD00CD
:1016D00005F1E025C5F8004109E0047804F01F0594
:1016E0000124AC40044D0678761145F8264070BDC3
:1016F0000CED00E000E400E080E100E0024901437D
:10170000024A1160704700000000FA050CED00E08D
:101710007047000029B1064AD2690243044BDA61DE
:1017200004E0034AD2698243014BDA61704700004A
:101730000010024029B1064A12690243044B1A61A3
:1017400004E0034A12698243014B1A6170470000AA
:101750000010024029B1064A92690243044B9A6183
:1017600004E0034A92698243014B9A61704700008A
:101770000010024030B500210022002400232D4D2E
:101780006D6805F00C0121B1042905D0082923D189
:1017900005E0294D056022E0274D05601FE0254D3D
:1017A0006D6805F47012234D6D6805F480340225D0
:1017B00005EB92421CB9214D554305600BE01D4DD0
:1017C0006D6805F400351DB11C4D5543056002E000
:1017D000194D5543056002E0174D056000BF00BF7D
:1017E000144D6D6805F0F0010909154D6B5C056835
:1017F000DD4045600F4D6D6805F4E061090A104D4C
:101800006B5C4568DD4085600A4D6D6805F460518C
:10181000C90A0B4D6B5C4568DD40C560054D6D68C0
:1018200005F44041890B074D6B5CC568B5FBF3F5CA
:10183000056130BD0010024000127A0000093D0031
:101840003A0000204A00002010B586B0044601216D
:101850002420FFF77FFF01214804FFF75BFF802072
:10186000ADF8140010208DF8170003208DF8160035
:1018700005A92748FFF77EFC0420ADF814001820C6
:101880008DF8170005A92348FFF774FC0820ADF870
:10189000140004208DF8170005A91E48FFF76AFC04
:1018A00001214804FFF746FF00214FF40030FFF705
:1018B00041FF01940020ADF80800ADF80A00ADF832
:1018C0000C00ADF810000C20ADF80E0001A9124874
:1018D00000F0ECF926208DF8000003208DF80100BF
:1018E0008DF8020001208DF803006846FFF7CEFE58
:1018F000012240F22551084800F0B3F901210648C1
:1019000000F06CF900200549086006B010BD000029
:101910000014014000080140004400409C81224224
:1019200070B505460E4601200F49086000240CE002
:1019300000BF40210D4800F05DF90028F9D0295D75
:101940000A4800F024FA601CC4B2B442F0DB00BFC5
:101950004021064800F04EF90028F9D00020044943
:1019600008700149086070BD9C812242004400401B
:101970002C000020704710B500F002F810BD0000E8
:101980000CB50020019000903348006840F480308E
:101990003149086000BF3048006800F40030009012
:1019A0000198401C0190009818B90198B0F5A06FFB
:1019B000F1D12948006800F4003010B101200090F6
:1019C00001E0002000900098012843D123480068DE
:1019D00040F01000214908600846006820F003002C
:1019E00008600846006840F0020008601A48406835
:1019F000194948600846406848600846406840F415
:101A0000806048600846406820F47C1048600846C2
:101A1000406840F4E81048600846006840F0807074
:101A2000086000BF0C48006800F000700028F9D082
:101A30000948406820F003000749486008464068AC
:101A400040F00200486000BF0348406800F00C000E
:101A50000828F9D10CBD000000100240002002400F
:101A6000042808D14FF0E021096941F004014FF04A
:101A7000E022116107E04FF0E021096921F0040143
:101A80004FF0E022116170477047000010B5134815
:101A9000006840F00100114908600846406810499C
:101AA00008400E494860084600680E4908400B4946
:101AB00008600846006820F48020086008464068F6
:101AC00020F4FE0048604FF41F008860FFF753FFCA
:101AD0004FF000600449086010BD00000010024093
:101AE0000000FFF8FFFFF6FE08ED00E010B540F241
:101AF00025511D4800F08BF810B31B4800F042F947
:101B0000C4B21A48008800F40040C8B917480088D9
:101B100000F4804060B10A2C03D0002013490880F3
:101B200020E01248008840F400401049088019E085
:101B30000D2C06D10D48008840F480400B490880E8
:101B400010E00A480088C0F30D0009490C5407480A
:101B50000088401C0549088008460088C72801DD28
:101B60000020088010BD000000380140380000202F
:101B70009E0000207CB540F22551154800F047F842
:101B800028B3134800F0FEF8C5B212480078402888
:101B900008DA11480F49097845540E480078401C6E
:101BA0000C49087000240EE080201021CDE90010BF
:101BB00009490A5D1E2101EB44100323E621FFF7CA
:101BC000C7FC601CC4B2034800788442ECDB7CBDD7
:101BD000004400402C0000205E00002021B18289DA
:101BE00042F40052828104E082894DF6FF731A406C
:101BF0008281704702460020B1F5007F00D100BF0E
:101C000013880B400BB1012000E00020704770B535
:101C10000246002400230025002040F66A16B14247
:101C200000D100BFC1F3421501F01F03012606FADF
:101C300003F3012D02D19689334006E0022D02D133
:101C4000168A334001E0968A33400C12012606FAC8
:101C500004F41688344013B10CB1012000E00020D8
:101C600070BDF0B50346002400260025002040F694
:101C70006A17B94200D100BF1846C1F3421401F0FF
:101C80001F06012707FA06F5012C01D10C3004E0EC
:101C9000022C01D1103000E014301AB107682F4334
:101CA000076002E00768AF430760F0BD2DE9F04729
:101CB00086B005460E460024A24600BFA146002776
:101CC000B08900B100BF2F462C8A4CF6FF7004404B
:101CD000F08804432C82AC894EF6F3100440B0889F
:101CE00031890843718908430443AC81AC8A4FF6BB
:101CF000FF400440B0890443AC8201A8FFF73AFDDD
:101D00001F48874202D1DDF810A001E0DDF80CA0E9
:101D1000A88900F4004040B10AEBCA0000EB0A10A9
:101D200031684900B0FBF1F807E00AEBCA0000EBAC
:101D30000A1031688900B0FBF1F86420B8FBF0F0BC
:101D400004012009642101FB1089A88900F40040E6
:101D500040B1322000EBC900B0FBF1F000F0070009
:101D6000044308E0322000EB09106421B0FBF1F0DD
:101D700000F00F0004432C8106B0BDE8F08700009E
:101D80000038014001468888C0F308007047C1F35D
:101D900008028280704700BFFEE7490050EAC12078
:101DA00018BF04204A0D18BF40F0010040F2FF7236
:101DB000B2EB515F08BF40F00200012808BF0520C8
:101DC0007047014600BF704730B5044600202043ED
:101DD00000020843000210430002184330BD2DE901
:101DE000F04704460026002764022646012518E035
:101DF00006F0004008B1012600E00026A8B200F07D
:101E00005BF88146304600F053FE8246494600F0BA
:101E100097FE8046394600F0FBFC074664002646E4
:101E20006D1C172DE4DB3846BDE8F0872DE9F0473F
:101E3000044600260027E40D2646002511E006F0A2
:101E40000106A8B200F04AF800FB06F9484600F087
:101E50002FFE8046394600F0DBFC07466408A6B238
:101E60006D1C082DEBDB1349384600F035FE0DD212
:101E70003946104800F030FF814600F0F9FD1FFAA6
:101E800080F8404600F018F807460FE00949384648
:101E900000F022FF824600F0EBFD1FFA80F9484671
:101EA00000F01CF8804600F003FE07463846BDE807
:101EB000F08700000000FE4270B5044600254FF098
:101EC0007E5600BF06E04FF08041304600F00EFD28
:101ED00006466D1CA542F6DB304670BD0146002269
:101EE000012000BF01E04000521C8A42FBDB70472A
:101EF00010B56FF00400FFF7B3FD0A4800680A4907
:101F0000B0FBF1F0094908700846007800EB400189
:101F1000C1EBC0104FF6FF7101EAC0000449088010
:101F200010BD00001400002000127A002E000020D6
:101F3000300000200146114A12884A434FF0E02346
:101F40005A6100229A611A46126942F001021A612E
:101F500000BF4FF0E022106900F001021AB100F456
:101F60008032002AF5D04FF0E022126922F00102FF
:101F70004FF0E0231A6100229A6170473000002080
:101F800000BF054A128802F04002002AF9D0C2B20E
:101F9000014B1B1D1A807047003801401CB5FFF72C
:101FA000A7FFFFF749FB4FF4A060FFF7A7FB4FF433
:101FB000165000F0D9F84FF41650FFF745FCACE08E
:101FC0005648008818B101205549087002E00020E9
:101FD000534908705348007813280ED1514840786F
:101FE00014280AD14E480078012806D108214E480D
:101FF000FFF796FC002049490880C820FFF79AFFA8
:102000004A4800780028DAD000204849087048483B
:1020100000780228D3D1464CA37962792179E078FF
:10202000FFF7D2FE4349086008460068FFF7FEFE4E
:10203000019040480068FFF7D2FE0090009800F041
:10204000BBFB804600223C4B00F026F904460D46BF
:10205000019800F0B1FB064622462B4600F0C4F979
:10206000824600F0E7F8354908606420FFF762FF18
:1020700000213348FFF78BFE00BF40213048FFF7B7
:10208000B9FD0128F9D104212D48FFF780FE00BFDA
:1020900040212B48FFF7AEFD0128F9D10121284846
:1020A000FFF775FE00BF40212548FFF7A3FD01287B
:1020B000F9D10520FFF73EFF00212148FFF767FE19
:1020C00000BF40211E48FFF795FD0128F9D10421EA
:1020D0001B48FFF75CFE00BF40211948FFF78AFD4F
:1020E0000128F9D101211648FFF751FE00BF402118
:1020F0001348FFF77FFD0128F9D11048006800F070
:102100005BFB044622460B460EA0FEF78DF814A09A
:10211000FEF78AF8FF200649087051E738000020D2
:10212000090000209E000020000000202C0000205C
:102130005E000020100000200000F03F0C00002096
:1021400000380140456C656374726963206D657485
:10215000657231A3BA2566206B572E680000000017
:102160000D0A0D0A0000000010B586B004460121DA
:1021700044F20400FFF7EEFA4FF40070ADF81400DB
:1021800003208DF8160018208DF8170005A91C48AB
:10219000FEF7F0FF4FF48060ADF8140004208DF8D6
:1021A000170005A91648FEF7E5FF25208DF8000069
:1021B00003208DF801008DF8020001208DF8030046
:1021C0006846FFF763FA01940020ADF80800ADF807
:1021D0000A00ADF80C00ADF810000C20ADF80E00B0
:1021E00001A90848FFF762FD012240F22551054888
:1021F000FFF737FD01210348FFF7F0FC06B010BDE3
:10220000000801400038014010B500290AD00878C4
:10221000002807D005487844FEF7AEFB002801D01F
:10222000002010BD0248784410BD000026240000A4
:102230001E24000021F00042A2F16052B2F5801F7E
:1022400001F0004328BFD2F17F6C0BD95FEA001C7C
:1022500043EAC20242EB507018BF704728BF20F01B
:1022600001007047B2F5801FBCBF184670474FEAA7
:10227000410C1CF5001F02D2084600F028BD70B5C5
:1022800000F05CF900000089FFF7F6BF4FF0004056
:10229000A0F580007047000010B591EA030F48BF19
:1022A00083F0004300F1A681841A71EB030C05D280
:1022B000121943EB0C03001B61EB0C01DFF824E166
:1022C0004FEA1154A4EB135C1EEA430F18BF9EEAB9
:1022D000445F73D023EA0E03DCF1200E21EA04519F
:1022E00043F4801332D322FA0CFE10EB0E0023FAD3
:1022F0000CFE41EB0E01CCF1200E03FA0EFE10EBAA
:102300000E0051F10001B1F5801FCCF1200E32D248
:1023100001EB045112FA0EF2BDE8104058BF7047AD
:10232000401C38BF5FEA420218BF7047002814BF44
:1023300020F0010041F100014FEA410313F5001FB5
:1023400038BF7047A1F1C04100F046B9012A43EB04
:102350000302ACF1200CDCF11F0E32BF4FF0000E77
:1023600023FA0CF310EB030041EB0451B4EB115FC3
:10237000D0D0A1EB045101F5801149085FEA30008B
:1023800001EB04510ED350F1000038BF12FA0EFEDB
:1023900008D1BDE81040C9E7401C38BF5FEA4202DF
:1023A000CAD1C3E7BDE810404FEA410313F5001F4F
:1023B00038BF7047A1F1C04100F00EB99EEA445FFA
:1023C00008D011EA5E0FBDE8104004BF01F00041E3
:1023D00000207047BDE8104070B500F0AFF800BFB6
:1023E00064FBBE3E0000E0FFDFF848C170B51CEAA8
:1023F000111E1EBF1CEA13159EEA0C0F95EA0C0F66
:1024000000F06F8081EA030423EA4C134EEAD47E85
:1024100021EA4C1141F4801143F48013AE44A1FB36
:10242000024CA0FB0365AEF17F7E361955EB0C051F
:10243000A1FB034C4CF10003A0FB021C16EB0C06A5
:10244000654153F10003094218BF46F0010613F439
:10245000007F0BD14FEA03314FEA0530340341EAE4
:10246000155140EA16506FF003020AE04FEAC3210B
:102470004FEAC520F40241EA555140EA56506FF048
:10248000020202EB2E4201EB025585EACE710AD020
:102490005FEA440C18BF24F0004450F1000041F101
:1024A000000120EAD47040F2FE7C624500D270BD8B
:1024B000A84214BF4FF080444FF04044002E08BFA4
:1024C0000024BEF1806FA8BFA1F1C041BDE87040FB
:1024D00080F282804FF0000001F1C04101F0004124
:1024E00070479EEA0C0F0CEA131518BF95EA0C0F03
:1024F00006D04FF0000081EA030E0EF0004170BDDF
:1025000000F01CF88900013E00F007B800F009B89F
:102510004FEA430C5FEA5C5C08D081EA030100F0FB
:102520005BB84FEA410C5FEA5C5CF6D14FF000000B
:10253000014970470000FF070000F87F0EF1020E0E
:102540002EF0030E5EF8046B364205D4012A43EBED
:10255000030515F5001F12D8012841EB010C1CF5ED
:10256000001F0CD80ED14FEAD17C15F5001F0CEBE3
:102570004C0C0CF1020C08BF4CEBD37C04E04FF088
:10258000080C01E04FEAD37C0CEB4C0526FA05F66B
:1025900006F00706B6F1040C06D20EEB860CBDE879
:1025A00070404CF0010C6047DFE80CF0090B0202B0
:1025B0004FF000414FF00000A1F5002170BD194619
:1025C0001046012851EB010418BFD4F5001484BF54
:1025D000002001F0004170BD0808A0F500114FEA8D
:1025E0003101704710B591EA030F48BF83F00043F3
:1025F0003FF55AAE841A71EB030C07D212198CF016
:10260000004C43EB0C03001B61EB0C01DFF8A4E171
:102610004FEA1154A4EB135C1EEA430F18BF9EEA65
:10262000445F00F0B08023EA6E03524221EA045175
:10263000C3EB6E0338BF5B1EDCF1200E25D322FAFC
:102640000CFE10EB0E0043FA0CFE41EB0E01CCF138
:10265000200E03FA0EFE10EB0E0051F10001CCF13A
:10266000200E29D412FA0EF201EB0451BDE81040FD
:1026700058BF7047401C1CBFB2F1004F7047002884
:102680000CBF491C20F00100704712EB020E43EB17
:10269000030218BF4FF0010E4EEA4202ACF1200CCB
:1026A000DCF11E0E54D943FA0CFE10EB0E0051F172
:1026B000FF31CCF11E0ED5D50EF1010E12FA0EFE31
:1026C000404141EB010101EB445C5FEA5C5C10D9E5
:1026D00010EBDE7001EB045138BFBEF1004FBDE8D6
:1026E000104018BF704700280CBF491C20F00100A3
:1026F000704730D24FEAD42C11F5001124F4006455
:102700001BD0B1FA81F20B3AA41AA41ED2F1200315
:10271000914030FA03F31943904001EBCC71002C47
:1027200001EB0451BDE81040A8BF704701F1C04162
:102730004FF0000001F000417047B0FA80F310FA4A
:1027400003F100D110BDE41A173C4805C90AE4E7BB
:1027500001EB045110BD491001EB0451BDE81040DC
:102760004FEA300002E04FF0000170474A0008BF16
:102770000042F8D0B2F5001F28BF704701F00041B9
:102780004FF0000070479EEA445F07D011EA5E0FE9
:10279000BDE8104004BF002100207047BDE8104094
:1027A00070B5FFF7CBFE00BF40DFF63E83F000417F
:1027B000104670470000E0FF43004FEAD30C4FEA99
:1027C0003C0C43401FBF40070CF1605113F0FE4F1B
:1027D00070471CF0006F03D100200CF000417047DF
:1027E0000CF0004343EA507010B540EACC0000F012
:1027F00028FA00BF000000924FEA0001FFF7ECBE8C
:102800004FF000414FF00000A1F50021704700009B
:1028100090EA010F48BF81F0004100F16482421A42
:102820003CBF801A89184FEAD0524FF07F4C1CEA07
:10283000410FA2EBD15318BF9CEA026F00F03B801E
:102840004FF0004C4CEA00204CEA012121FA03FC35
:1028500010EB0C0C1ED202F1FF325FEA1C2040EBA1
:10286000C25038BF70471CF07F0F4FEA400C18BFB2
:10287000BCF17F4F38BF7047C3F12003994008BFB8
:1028800020F00100BCF17F4F38BF7047A0F1C0407D
:1028900000F01DBA4FEA3C00000A40EBC25028BFCE
:1028A0001CF0FF0F4FEA400CE6D018BFBCF17F4F81
:1028B00038BF7047EAE79CEA026F05D010EA5C0F68
:1028C00008BF00F00040704710B500F0BAF900BF33
:1028D00064FBBE3E401058BFC0F14040491058BF95
:1028E000C1F140418142EFF3008070474FF47F0C0B
:1028F0001CEAD0121EBF1CEAD11392EA0C0F93EA15
:102900000C0F00F0858090EA010F48BF42F48072FE
:1029100040F4000C41F400002CF07F4120F07F4097
:1029200000B58142A2EB03020FF2081CACEB504E43
:10293000C0F100009EF800E04FEA4E0E00FB0EFCD6
:1029400038BF49004FEA2C1C02F5FA020CFB0EF3CB
:102950004FEACE1E4FEA112C4FEAC1210EEB635E07
:1029600042EB22420EFB0CFC4FEA1C5300FB03110E
:102970004FEA112C4FEA01310EFB0CFC4FEADC4C04
:1029800000FB0C11C14228BF09184CEB03335DF862
:1029900004EB10EB410143EBC250B2F57C0F38BFA2
:1029A000704729D512F0F00F1CBF00F1C04000F0B5
:1029B00000407047008182838485868788898B8C5C
:1029C0008D8E8F919293959697999A9C9D9FA0A298
:1029D000A3A5A7A8AAACAEB0B2B3B5B7B9BCBEC0E8
:1029E000C2C5C7C9CCCED1D4D7D9DCDFE2E6E9EC89
:1029F000F0F3F7FAFE0000004FEA400C0CF1807C87
:102A0000BCF17E4F28BF7047B0F1C04000F05FB905
:102A100090EA010F0CEAD11348BF42F4807262457C
:102A200038BF634507D213F47F0F16D080EA010048
:102A300000F00040704710B500F003F9097EFC3E3D
:102A400000F005B880EA010000F00040704780EA1D
:102A5000010000F0004000F03AB912F47F0F04BF0B
:102A60000248704780EA010000F031B90000C07FE1
:102A7000C10DD1F19E0206DB4FEA002343F0004373
:102A800023FA02F07047004207D54FEA4001B1F146
:102A9000FE4F02D24FF00000704710B500F0D1F8A1
:102AA00049922480002070476FEA200070470000A0
:102AB000B0FA80F310FA03F2C3F19D030AD0D905EE
:102AC00001EB1220530638BF704700F1010008BF28
:102AD00020F001007047000050EA010C00F1138063
:102AE0001CF5000F58BFBCF5000F01D48842704799
:102AF00007D710F5000F58BF11F5000F15D4884205
:102B00007047894270471CF5000F04D5BCF5000FD3
:102B1000F7D5814270474FF0807C1CEB400F38BFE7
:102B20001CEB410F01D28142704710B500F089F8CB
:102B3000922449004FF000504FF08051FFF7CABE79
:102B40004FF47F0C1CEAD0121EBF1CEAD11392EA8C
:102B50000C0F93EA0C0F00F0478090EA010F48BF7A
:102B600042F480724FF0004C4CEA00204CEA012104
:102B700002EB0302A0FB0113A2F50002002918BF1B
:102B800043F001035B0028BF4FEA330342EB2242CC
:102B90005FEA132C4CEBC2502EBFBCEB436FB2F577
:102BA0007C0F70474FEA036CBCF1004F08BF20F068
:102BB0000100B2F57C0F38BF70470BD582F0FF02E1
:102BC00012F5803FC8BF704700F1C040D8BF00F089
:102BD0000040704700F5000C5FEA4C0C48BF70479E
:102BE000B0F1C04000F073B890EA010F0CEAD113C5
:102BF00048BF42F48072624538BF634504D280EA20
:102C0000010000F00040704710B500F01AF800BF56
:102C10008900013E00F007B800F009B85FEA410CF6
:102C20005FEA1C6C08D080EA010000F050B85FEA4F
:102C3000400C5FEA1C6CF6D14FF00040A0F580001C
:102C400070470EF1020E2EF0030E5EF8044B244284
:102C500004D44FEA4102B2F17F4F11D84FEA40034A
:102C6000B3F17F4F0CD80ED14FEAD07CB2F17F4F39
:102C70000CEB4C0C0CF1020C08BF4CEBD17C04E0CB
:102C80004FF0080C01E04FEAD17C0CEB4C0324FA26
:102C900003F404F00704B4F1040C06D20EEB840C28
:102CA000BDE810404CF0010C6047DFE80CF007086D
:102CB00002024FF00040A0F5800010BD084642001F
:102CC00018BFD2F1807288BF00F0004010BDFF2114
:102CD00041EAD050C005704790EA010F48BF81F02B
:102CE00000413FF59CAD421A04D882F00042A0EBAF
:102CF000020011444FEAD0524FF07F4C1CEA410FC2
:102D0000A2EBD15318BF9CEA026F4AD04FF0004C9F
:102D10004CEA00204CEA012121FA03FCB0EB0C0C38
:102D20000FD412F0FE0F36D05FEA4C001DD5001212
:102D300040EBC25038BF70471CF03F0F18BF7047C0
:102D40000BE0A2F101025FEA1C2040EBC25038BF49
:102D500070471CF07F0F18BF7047C3F120039940E4
:102D600014BF401E20F00100704780084FEA122374
:102D700008BF7047B0FA80FCA2EB0C02CCF1280C23
:102D800060FA0CF093EA122F04BF00EBC2507047B8
:102D90004FEAC3707047130A5FEADC1008BF704740
:102DA000F6E79CEA026F04D010EA5C0F08BF00202F
:102DB000704710B5FFF745FF40DFF63E81F0004059
:102DC0007047FDF74CBB0000000000000000000051
:102DD0000000000000003F40000000000000000074
:102DE0003000400030004000000009000BC03D00F2
:102DF0000BC03D00090018C024407FE02240318014
:102E00000000180024C01B000D80324001800380A8
:102E10001C4027401C80074000401000600000005C
:102E20000000000000000000000000001F802040A3
:102E300040200000402020401F80000000000900CA
:102E400006001F80060009000000040004003F8007
:102E500004000400000000100060000000000000FA
:102E6000000004000400040004000400000000004E
:102E700000400000000000000000002001C006002B
:102E80003800400000001F802040204020401F806C
:102E90000000000010403FC000400000000018C0CB
:102EA000214022402440184000001080204024404F
:102EB00024401B80000002000D0011003FC00140B3
:102EC00000003C80244024402440238000001F80D8
:102ED000244024403440038000003000200027C0FC
:102EE0003800200000001B802440244024401B8028
:102EF00000001C0022C0224022401F800000000071
:102F00000000084000000000000000000000046015
:102F1000000000000000000004000A0011002080F2
:102F200040400900090009000900090000000000F4
:102F30004040208011000A000400180020002340B7
:102F40002400180000001F802040274029401F4017
:102F50000000004007C039000F0001C000402040C1
:102F60003FC0244024401B8000001F8020402040A0
:102F700020403080000020403FC0204020401F8083
:102F8000000020403FC024402E4030C000002040C0
:102F90003FC024402E00300000000F001080204071
:102FA00022403380020020403FC0040004003FC0A4
:102FB0002040204020403FC02040204000000060D2
:102FC000202020203FC02000200020403FC024407F
:102FD0000B0030C0204020403FC020400040004057
:102FE00000C03FC03C0003C03C003FC00000204088
:102FF0003FC00C4023003FC020001F8020402040E5
:1030000020401F80000020403FC0244024001800C2
:1030100000001F802140214020E01FA00000204030
:103020003FC02440260019C0004018C0244024405E
:10303000224031800000300020403FC0204030005E
:10304000000020003F80004000403F802000200022
:103050003E0001C0070038002000380007C03C00D7
:1030600007C038000000204039C0060039C02040A9
:1030700000002000384007C03840200000003040E9
:1030800021C02640384020C00000000000007FE042
:10309000402040200000000070000C000380004031
:1030A00000000000402040207FE000000000000001
:1030B0002000400020000000000000100010001060
:1030C0000010001000100000000040000000000090
:1030D0000000000002800540054003C000402000C1
:1030E0003FC004400440038000000000038004400F
:1030F00004400640000000000380044024403FC01C
:10310000004000000380054005400340000000002F
:1031100004401FC0244024402000000002E005506D
:1031200005500650042020403FC00440040003C066
:1031300000400000044027C00040000000000010D4
:103140000010041027E00000000020403FC00140B4
:10315000070004C00440204020403FC00040004021
:10316000000007C0040007C0040003C000000440C2
:1031700007C00440040003C0004000000380044076
:10318000044003800000041007F004500440038052
:103190000000000003800440045007F000100440C9
:1031A00007C0024004000400000000000640054083
:1031B000054004C00000000004001F8004400040DF
:1031C0000000040007800040044007C000400400E5
:1031D000070004C0018006000400060001C00700CB
:1031E00001C006000000044006C0010006C0044003
:1031F00000000410071004E0018006000400000035
:10320000044005C006400440000000000000040027
:103210007BE040200000000000000000FFF0000004
:103220000000000040207BE004000000000040009F
:10323000800040002000200040000000000000004E
:10324000000000000000000000000000000000007E
:103250001FCC000C0000000000000000080030003F
:1032600060000800300060000000022003FC1E2007
:10327000022003FC1E200220000000000E18110492
:103280003FFF10840C78000000000F0010840F38FE
:1032900000C0077818840078000000780F8410C4FC
:1032A00011240E9800E400840008080068007000F3
:1032B000000000000000000000000000000000000E
:1032C00007E018182004400200000000400220041B
:1032D000181807E0000000000000024002400180D2
:1032E0000FF001800240024000000080008000805A
:1032F0000FF800800080008000000001000D000E2B
:1033000000000000000000000000000000800080BD
:10331000008000800080008000800000000C000C15
:10332000000000000000000000000000000600187F
:1033300000600180060018002000000007F0080867
:1033400010041004080807F0000000000804080436
:103350001FFC000400040000000000000E0C10140C
:103360001024104411840E0C000000000C181004EE
:103370001104110412880C700000000000E003200A
:10338000042408241FFC0024000000001F9810845F
:1033900011041104108810700000000007F0088864
:1033A0001104110418880070000000001C001000B7
:1033B00010FC13001C001000000000000E38114427
:1033C0001084108411440E38000000000700088C9F
:1033D00010441044088807F00000000000000000BE
:1033E000030C030C000000000000000000000001BE
:1033F0000106000000000000000000000080014005
:1034000002200410080810040000022002200220FC
:103410000220022002200220000000001004080800
:103420000410022001400080000000000E00120085
:10343000100C106C10800F00000003E00C1813E457
:10344000142417C4082807D000000004003C03C45B
:103450001C40074000E4001C000410041FFC110481
:10346000110411040E880070000003E00C18100411
:103470001004100410081C10000010041FFC10049D
:1034800010041004080807F0000010041FFC1104C9
:10349000110417C410040818000010041FFC1104C4
:1034A000110017C010000800000003E00C18100401
:1034B000100410441C780040000010041FFC10840D
:1034C0000080008010841FFC100400001004100411
:1034D0001FFC100410040000000000030001100194
:1034E00010011FFE10001000000010041FFC11044A
:1034F00003801464181C1004000010041FFC100446
:10350000000400040004000C000010041FFC1F0055
:1035100000FC1F001FFC1004000010041FFC0C0422
:10352000030000E010181FFC100007F0080810044A
:1035300010041004080807F0000010041FFC108499
:103540001080108010800F00000007F00818102471
:103550001024101C080A07F2000010041FFC1104BC
:10356000110011C011300E0C000400000E1C1104DB
:103570001084108410441C3800001800100010043F
:103580001FFC100410001800000010001FF81004A9
:103590000004000410041FF8100010001E0011E0C9
:1035A000001C007013801C0010001FC0103C00E0C5
:1035B0001F0000E0103C1FC000001004180C16345F
:1035C00001C001C01634180C100410001C001304B4
:1035D00000FC13041C00100000000804101C106400
:1035E000108413041C0410180000000000000000E8
:1035F0007FFE4002400240020000000030000C004C
:1036000003800060001C0003000000004002400234
:1036100040027FFE000000000000000000002000CB
:1036200040004000400020000000000100010001B7
:103630000001000100010001000100004000400005
:10364000200000000000000000000000009801249D
:1036500001440144014400FC000410001FFC0088E8
:103660000104010400880070000000000070008860
:1036700001040104010400880000000000700088BB
:103680000104010411081FFC0004000000F80144BB
:1036900001440144014400C8000000000104010489
:1036A0000FFC1104110411001800000000D60129BC
:1036B0000129012901C90106000010041FFC008432
:1036C00001000100010400FC0004000001041904D1
:1036D00019FC0004000400000000000000030001C9
:1036E0000101190119FE0000000010041FFC002454
:1036F000004001B4010C010400000000100410049B
:103700001FFC0004000400000000010401FC01048F
:10371000010001FC0104010000FC010401FC008423
:1037200001000100010400FC0004000000F8010495
:1037300001040104010400F80000010101FF0085FB
:10374000010401040088007000000000007000887F
:1037500001040104010501FF00010104010401FC51
:1037600000840104010001800000000000CC01245D
:10377000012401240124019800000000010001003F
:1037800007F80104010400000000010001F8000432
:1037900000040004010801FC000401000180017024
:1037A000000C001001600180010001F0010C0030EC
:1037B00001C00030010C01F0010000000104018C87
:1037C00000740170018C010400000101018101718C
:1037D000000E001801600180010000000184010C4E
:1037E000013401440184010C0000000000000000CD
:1037F000000001003EFC400240020000000000000A
:103800000000FFFF00000000000000004002400236
:103810003EFC01000000000000000000600080008D
:103820008000400040002000200000000000000058
:103830000000000000000000000000000000000088
:103840000000000000000000000000000000000078
:10385000000000000000000000000000000F8038A1
:103860000FFE380F8038000000000000000000004C
:1038700000000000000000000100000600000C0035
:10388000003800003100000600000C000038000085
:103890003000000000000000000061800067F807B1
:1038A000F9800061800061800061800061800067B4
:1038B000F807F980006180000000000000000000AF
:1038C00001C0E003E0F00630080418081FFFFE0402
:1038D0000E080787F00381E000000000000001F0FF
:1038E00000060C00040408060C7001F9C0000E006C
:1038F000003BE000EC18070808040C180003E00087
:1039000000000001E00007F003F818041C08041789
:103910000807E1D003C0E00023B0003C0800200805
:103920000000100000000000000100003100003223
:1039300000001C000000000000000000000000006B
:103940000000000000000000000000000000000077
:10395000000000000000000000007F0001FFC00721
:1039600080F00C001810000420000200000000008D
:10397000002000021000040C00180780F001FFC0B6
:10398000007F0000000000000000000000000000B8
:103990000000000000004200006600006600003CDD
:1039A0000000180003FFC0001800003C0000660083
:1039B000006600004200000000000800000800004F
:1039C000080000080000080001FFC000080000080F
:1039D00000000800000800000800000000000001CE
:1039E00000003100003200001C0000000000000058
:1039F00000000000000000000000000000000000C7
:103A0000000008000008000008000008000008008E
:103A1000000800000800000800000800000800007E
:103A20000000000000000000000038000038000026
:103A3000380000000000000000000000000000004E
:103A400000000000000000000000000600001C0054
:103A50000070000180000E0000380000C000070068
:103A6000001C0000300000000000000000007F800B
:103A700001FFE00380700600180400080400080637
:103A8000001803807001FFE0007F8000000000004C
:103A90000000000001000801000801000803FFF811
:103AA00007FFF80000080000080000080000000000
:103AB000000000000001C03802C058040098040152
:103AC00018040218040418061C1803F81801E0F87A
:103AD00000000000000000000001C0E003C0F0048E
:103AE000000804080804080806180803F41801E789
:103AF000F00001E0000000000000000000000300F2
:103B0000000D00001100006100008108030108079A
:103B1000FFF80FFFF8000108000108000000000096
:103B2000000000E007FCD006080806100806100890
:103B3000061008061838060FF00607C0000000003F
:103B40000000000000003F8001FFE0038430020815
:103B500018041008041008041008071810030FF0C8
:103B60000007C000000000000000000003C00007C4
:103B700000000600000600F80607F806180006E038
:103B80000007000006000000000000000001E1E066
:103B900003F7F0063410041808041808040C08048D
:103BA0000C0806161803F3F001C1E0000000000045
:103BB0000000F80003FC3003063804020804020881
:103BC0000402080404100308F001FFC0007F000095
:103BD00000000000000000000000000000000000E5
:103BE00000007038007038007038000000000000DD
:103BF00000000000000000000000000000000000C5
:103C0000000000000000301A00301C00000000001E
:103C100000000000000000000000000000000000A4
:103C20000008000014000022000041000080800114
:103C300000400200200400100800080000000000FE
:103C400000002100002100002100002100002100CF
:103C500000210000210000210000210000210000BF
:103C6000000000000000000008000804001002002E
:103C7000200100400080800041000022000014006C
:103C800000080000000000000003C00004C00004A1
:103C90000000080038080F380808380810000C30F9
:103CA0000007E00003C000000000000000003F80AB
:103CB00000FFE0038070020F1006708804C08804C3
:103CC0008308047F8802C09003012000FE400000AA
:103CD000080000180001F8003E0801C200070200B9
:103CE00007E20000FE00001FC80001F800003800D5
:103CF000000804000807FFF807FFF8040808040894
:103D00000804080804080806180803F41801E7F076
:103D10000001E0000000000000003F8001FFE00320
:103D20008070020018040008040008040008040061
:103D3000100600200780C000000004000807FFF8FC
:103D400007FFF80400080400080400080400180233
:103D5000001003807001FFE0007F8000000004007D
:103D60000807FFF807FFF804080804080804080813
:103D7000040808043E08040008060018010060005A
:103D8000000004000807FFF807FFF804080804080B
:103D900000040800040800043E00060000060000BD
:103DA000018000000000000000003F8001FFE003F0
:103DB00080700600180400080402080402080203C8
:103DC000F00783F000020000020004000807FFF87B
:103DD00007FFF804080800080000080000080000B9
:103DE000080004080807FFF807FFF80400080000AF
:103DF0000000000004000804000804000807FFF8A1
:103E000007FFF80400080400080400080000000090
:103E10000000000000000006000007000001040090
:103E20000104000104000307FFFE07FFFC0400007B
:103E300004000004000004000807FFF807FFF8046E
:103E40000C08001800003E0004C7800503C80600E7
:103E5000F804003804001800000804000807FFF800
:103E600007FFF80400080000080000080000080030
:103E700000080000080000180000600000000400B6
:103E80000807FFF807800807FC00007FC00003F860
:103E90000007C000780007800807FFF807FFF80454
:103EA000000804000807FFF807000803C00000E04E
:103EB00000003800001E000007000001C00400F0F0
:103EC00007FFF8040000000000007F8001FFE0030E
:103ED000807006001804000804000806001803009B
:103EE0003001FFE0007F8000000004000807FFF8B9
:103EF00007FFF80404080404000404000404000498
:103F00000400060C0003F80001F0000000000000AF
:103F100000007F8001FFE0038070060088040088B5
:103F20000400C806003C03003E01FFE6007F840059
:103F3000000004000807FFF807FFF8040808040859
:103F400000040C00040F00040BC00610F003F0384E
:103F500001E00800000800000001E0F803F030066E
:103F60003010041808041808040C08040C08020691
:103F7000180207F00781E000000001800006000041
:103F800004000004000004000807FFF807FFF8041D
:103F90000008040000040000060000018000040086
:103FA0000007FFE007FFF004001800000800000809
:103FB00000000800000800000804001007FFE004EB
:103FC000000004000006000007E00007FE00041FD8
:103FD000E00001F80000380001E0043E0007C000E6
:103FE00006000004000004000007E00007FFC00412
:103FF0001FF80007C007F80007FF80043FF800071C
:10400000C004F800070000040000000000040008DD
:1040100006001807C07805F1C8003E00001F8004A4
:1040200063E80780F8060018040008000000040098
:104030000006000007800007E008047C08001FF865
:104040000007F800180804E0080700000600000454
:1040500000000000000100080600380400F8040316
:10406000E8040F08047C0805F00807C008070018DA
:1040700004006000000000000000000000000000DC
:1040800000000000003FFFFE200002200002200090
:1040900002200002200002000000000000000000DA
:1040A00008000007000000C0000038000006000003
:1040B00001C000003000000E000001000000000000
:1040C0000000000020000220000220000220000268
:1040D0002000023FFFFE0000000000000000000082
:1040E00000000000000000000000000800001000B8
:1040F0000030000020000030000010000008000028
:1041000000000000000000000100000100000100AC
:10411000000100000100000100000100000100009A
:10412000010000010000010000010000000000008B
:10413000000000200000200000100000100000001F
:10414000000000000000000000000000000000006F
:10415000000000F00019F8001B18002208002608D3
:10416000002408002410003FF8001FF80000080099
:10417000001800000004000007FFF80FFFF000180F
:1041800018001008002008002008003018001FF058
:10419000000FC00000000000000007C0001FF0007A
:1041A0001830002008002008002008003C08001CEF
:1041B000100000600000000000000000000007C0C8
:1041C000001FF00038180020080020080020080414
:1041D000101007FFF80FFFF00000100000000000B3
:1041E000000000000007C0001FF00012300022187D
:1041F000002208002208003208001E10000E2000D5
:10420000000000000000200000200800200801FF3E
:10421000F803FFF8062008042008042008072000FF
:1042200003000000000000000000000E000E6E0001
:104230001FF30031B10020B10020B1003191001F07
:1042400013002E1E00200E003000000000040008A5
:1042500007FFF80FFFF80010080020000020000002
:104260002008003FF8001FF80000080000000000D0
:1042700000000000002008002008002008063FF889
:10428000063FF800000800000800000800000000D9
:1042900000000000000000000000030000030020F8
:1042A00001002001002003063FFE063FFC00000045
:1042B00000000000000000000004000807FFF80FE5
:1042C000FFF8000188000300002FC00038F800202C
:1042D0003800200800000800000000000000000076
:1042E00004000804000804000807FFF80FFFF800A6
:1042F0000008000008000008000000000000002086
:1043000008003FF8003FF8001008002000003FF8C8
:10431000003FF8001008002000003FF8003FF800C0
:104320000008000000002008003FF8003FF80010DF
:1043300008001000002000002008003FF8001FF8CF
:104340000000080000000000000007C0000FF0009F
:10435000183000300800200800200800300800183D
:1043600030000FF00007C000000000000000200136
:10437000003FFF003FFF001011002009002008004F
:104380002008003038001FF0000FC00000000000BF
:10439000000007C0001FF0003818002008002008A7
:1043A000002009001011001FFF003FFF0000010066
:1043B0000000002008002008002008003FF8003F0F
:1043C000F800080800100800200800200000300055
:1043D000003000000000000000000000000C780029
:1043E0001E1800330800230800210800218800213E
:1043F000980030F00038600000000000000020004D
:1044000000200000200000FFF003FFF8002008005B
:10441000200800200800003000000000000000001C
:1044200000002000003FF0007FF8000018000008A6
:10443000000008002010003FF8007FF0000010008E
:104440000000000000002000003000003C00003FA1
:10445000800023F0000078000070002380003C0002
:10446000003000002000002000003C00003FE00081
:1044700023F80000E0002700003E00003FE000219C
:10448000F80001E0003E00002000000000002008CD
:10449000002008003838003E680027800003C8006C
:1044A0002CF8003838002018002008000000000018
:1044B00000002000003003003C01003F830023EC9B
:1044C000000070002380003C00002000002000005D
:1044D0000000000000000000003808002038002024
:1044E000F80023E8002F88003E0800380800201854
:1044F000000070000000000000000000000000004C
:1045000000000000000008000014001FF7FC30004D
:104510000620000200000000000000000000000073
:10452000000000000000000000000000FFFFFF008E
:10453000000000000000000000000000000000007B
:10454000000000002000023000061FF7FC001400ED
:104550000008000000000000000000000000000053
:104560000000000000180000600000400000400053
:1045700000200000100000080000040000040000FB
:104580000C0000100000000002400000000000A02D
:104590000000000005400000000000C8000000000E
:1045A0000C4000000000409C00000000194000008A
:1045B0000020BCBE0000000034400000BFC91B8EBC
:1045C00000000004B5400000504BCFD06607E2CF9A
:1045D000010000006C4100003E8251AADFEEA734CA
:1045E00001000000D9420000DCB5A0E23A301F977C
:1045F000FFFFFFFFB4450000FD25A0C8E9A3C14FA0
:10460000FFFFFFFFFF3F00000000008000000000F0
:10461000FF3F000000000080000000005846000836
:1046200000000020500000006C010008A8460008AF
:104630005000002078070000880100081C000000DE
:1046400043000000F8FFFFFF0C0000000E00000018
:104650000F0000002E00000002040000000271F8AC
:1046600000010000000000000000000000A24A0459
:104670000000000000000000010203040607080912
:104680000000FFFF0000000000000000000000002C
:1046900000000000000001020304010203040607F9
:0846A0000809020406080000ED
:04000005080001E509
:00000001FF
