:020000040800F2
:10000000E80700203D2E000855130008571300088C
:100010005B1300085F130008631300080000000072
:10002000000000000000000000000000671300084E
:1000300069130008000000006B1300086D1300082E
:10004000572E0008572E0008572E0008572E00087C
:10005000572E0008572E0008572E0008572E00086C
:10006000572E0008572E0008572E0008572E00085C
:10007000572E0008572E0008572E0008572E00084C
:10008000572E0008572E0008572E0008572E00083C
:10009000572E0008572E0008572E0008572E00082C
:1000A000572E0008572E0008572E0008572E00081C
:1000B000572E0008B5290008572E0008572E0008B3
:1000C000572E0008572E0008572E0008572E0008FC
:1000D000572E0008B32D0008572E0008572E000891
:1000E000572E0008572E0008572E0008572E0008DC
:1000F000572E0008572E0008572E0008572E0008CC
:10010000572E0008572E0008572E0008572E0008BB
:10011000572E0008572E0008572E0008572E0008AB
:10012000572E0008572E0008572E0008572E00089B
:1001300000F002F800F047F80AA090E8000C8244B2
:100140008344AAF10107DA4501D100F03CF8AFF28F
:10015000090EBAE80F0013F0010F18BFFB1A43F0A5
:1001600001031847787B0000987B0000103A24BFF9
:1001700078C878C1FAD8520724BF30C830C144BF0C
:1001800004680C607047000000230024002500264E
:10019000103A28BF78C1FBD8520728BF30C148BFEA
:1001A0000B607047662907F0F683002070471FB583
:1001B00005F088F804000020002106F0BBFAE0609A
:1001C0001FBD10B510BD05F07DF91146FFF7EFFF1B
:1001D00000F09FFD05F09BF903B4FFF7F2FF03BCAD
:1001E00002F08CFD2DE9F04105460C460022114637
:1001F000FEA001F088FC284607F09EF8064632462D
:100200000B46FCA1FD4804F061FD02220021FB48E1
:1002100001F079FC04220021F9A001F074FC002215
:100220000121FAA001F06FFC00220221FCA001F0E4
:100230006AFC204607F080F8064632460B46EDA1E0
:10024000EE4804F043FD03220221EC4801F05BFC80
:1002500005220221EAA001F056FC00220321F2A0AF
:1002600001F051FC06220321F1A001F04CFCBDE895
:10027000F0812DE9FF4F8DB00D4616469946229C20
:10028000012C61D100221146EBA001F03CFC0422BC
:100290000021DCA001F037FC00220121E9A001F0DF
:1002A00032FC0D9807F0BCF9099007F045F8E74AD1
:1002B000E74BCDE90A0106F02FFD82460022E54B0F
:1002C00006F03CFB07463A460B46CAA1CB4804F071
:1002D000FDFC03220121C94801F015FC0522012182
:1002E000C8A001F010FC00220221DBA001F00BFCF1
:1002F000284607F095F9099007F01EF8D34AD44B29
:10030000CDE90A0106F008FD82460022D14B06F035
:1003100015FB07463A460B46D1A1B84804F0D6FC77
:1003200003220221B54801F0EEFB05220221B5A00F
:1003300001F0E9FB00220321BBA001F0E4FB06224F
:100340000321BBA001F0DFFB022C61D1002211468A
:10035000C5A001F0D8FB04220021AAA001F0D3FB24
:1003600000220121B7A001F0CEFB304607F058F97A
:10037000099006F0E1FFB54AB54BCDE90A0106F058
:10038000CBFC82460022B34B06F0D8FA07463A4629
:100390000B4698A1994804F099FC03220121974843
:1003A00001F0B1FB0522012196A001F0ACFB002277
:1003B0000221A9A001F0A7FB484607F031F90990F6
:1003C00006F0BAFF0746A14AA14B06F0A5FC0022A1
:1003D000A04BCDE90A0106F0B1FA824652460B461F
:1003E00084A1864804F072FC03220221834801F0B4
:1003F0008AFB0522022183A001F085FB0022032154
:1004000089A001F080FB0622032189A001F07BFB7B
:10041000032C61D10022114696A001F074FB042246
:10042000002178A001F06FFB0022012185A001F0DE
:100430006AFB1A9807F0F4F8099006F07DFF8246EF
:10044000824A834B06F068FC07460022814B06F087
:1004500075FA02460B46CDE90A0166A1674804F029
:1004600035FC03220121654801F04DFB05220121E5
:1004700064A001F048FB0022022177A001F043FBB9
:100480001B9807F0CDF8099006F056FF07466F4A13
:100490006F4B06F041FC824600226E4B06F04EFA8E
:1004A00002460B46CDE90A0152A1544804F00EFC65
:1004B00003220221514801F026FB0522022151A00E
:1004C00001F021FB0022032157A001F01CFB0622B2
:1004D000032157A001F017FB042C63D10022114621
:1004E00067A001F010FB0422002146A001F00BFBE5
:1004F0000022012153A001F006FB1C9807F090F8A0
:10050000099006F019FF4FF06632604BCDE90A0101
:1005100006F002FC074600224E4B06F00FFA824618
:1005200052460B4633A1354804F0D0FB032201218B
:10053000324801F0E8FA0522012132A001F0E3FA85
:100540000022022144A001F0DEFA1D9807F068F8AD
:10055000099006F0F1FE4FF066324C4BCDE90A01EE
:1005600006F0DAFB824600223A4B06F0E7F907462E
:100570003A460B461FA1214804F0A8FB03220221A2
:100580001E4801F0C0FA052202211EA001F0BBFAAC
:100590000022032124A001F0B6FA0622032124A0A0
:1005A00001F0B1FA052C79D10022114638A001F0F2
:1005B000AAFA0422002113A001F0A5FA00220121C9
:1005C00020A001F0A0FA1E9807F02AF8099006F082
:1005D000B3FE82464FF066322C4B06F09DFB074679
:1005E00000221C4B06F0AAF9024658E0B5E7C1F715
:1005F0000000000025332E32660000003E0000207F
:10060000202020202020202000000000202020206A
:10061000202020202020202020202020202000001A
:10062000B5E7D1B900000000C8B7B6A800000000C7
:10063000B7B5BBD8000000004120CFE0B5E7C1F757
:10064000A3BA0000B7F9D6B5A3BA00009A99999950
:10065000991946400000B040BDC7B6C8A3BA000013
:1006600025332E31660000004220CFE0B5E7C1F708
:10067000A3BA00004320CFE0B5E7C1F7A3BA00005A
:100680004120CFE0B5E7D1B9A3BA000066BA8440F3
:100690004220CFE0B5E7D1B9A3BA000049E00B464C
:1006A000CDE90A01AFF2B401FC4804F00FFB0322CC
:1006B0000121FA4801F027FA05220121AFF2BC001E
:1006C00001F021FA00220221AFF2740001F01BFABE
:1006D0001F9806F0A5FF099006F02EFE4FF0663237
:1006E000EF4BCDE90A0106F017FB07460022ED4B60
:1006F00006F024F9824652460B46AFF20811E7484D
:1007000004F0E4FA03220221E44801F0FCF9052296
:100710000221AFF2101001F0F6F900220321AFF22E
:10072000F80001F0F0F906220321AFF2FC0001F01D
:10073000EAF9062C6CD100221146DBA001F0E3F9A6
:1007400004220021AFF2441001F0DDF90022012162
:10075000AFF2101001F0D7F9209806F061FF099070
:1007600006F0EAFD4FF06632CD4BCDE90A0106F006
:10077000D3FA07460022CB4B06F0E0F882465246F9
:100780000B46AFF29011C54804F0A0FA03220121F4
:10079000C24801F0B8F905220121AFF2981001F02A
:1007A000B2F900220221AFF2501001F0ACF9219809
:1007B00006F036FF099006F0BFFD82464FF0663224
:1007C000B74B06F0A9FA07460022B64B06F0B6F87A
:1007D00002460B46CDE90A01AFF2E811AF4804F03A
:1007E00075FA03220221AD4801F08DF9052202219C
:1007F000AFF2F01001F087F900220321AFF2D81018
:1008000001F081F906220321AFF2DC1001F07BF93F
:10081000072C7DD100221146A6A001F074F9042214
:100820000021AFF2202001F06EF9A548006806F023
:10083000DFFE019006F080FD4FF06632984BCDE967
:10084000020106F069FA07460022964B06F076F898
:10085000824605F085FF06909A48006806F0C8FEBB
:10086000019006F069FD07464FF066328C4B06F0AA
:1008700053FA00228B4BCDE9020106F05FF8824665
:1008800005F06EFF05909048006806F0B1FE0190FB
:1008900006F052FD07464FF06632814B06F03CFAF7
:1008A000824600227F4B06F049F8CDE9020105F0AF
:1008B00057FF864904900698854BCDE90001002139
:1008C000DDE9040201F038F9079006F035FD814AB0
:1008D000814BCDE9080106F045FCCDE90A0105F0A0
:1008E0003FFF7E4908604FF080417C48006806F079
:1008F000ABFE02D27A48794908607848006806F071
:100900001BFD07460022774B06F004FB04D200E0F3
:100910002DE07548714908607048006806F00CFDCC
:1009200007463A460B4671A15C4804F0CFF9002215
:1009300001215A4801F0E7F8032201216DA001F0DE
:10094000E2F8002202216FA001F0DDF8002203216D
:100950006CA001F0D8F800220321AFF2343001F08E
:10096000D2F806220321AFF2383001F0CCF811B0F2
:10097000BDE8F08F10B54FF4FA7002F092F9002242
:10098000114665A001F0BFF80222002164A001F029
:10099000BAF80022012159A001F0B5F80222012184
:1009A00062A001F0B0F800220321AFF2843001F020
:1009B000AAF806220321AFF2883001F0A4F85E48BD
:1009C0000078082801D1012000E000205B49097867
:1009D00009B9012100E00021084000285DD0012074
:1009E000564908705648006801282BD1002211464C
:1009F00049A001F088F80222002149A001F083F803
:100A0000002201213DA001F07EF80222012147A031
:100A100001F079F8002202213AA001F074F80022D6
:100A20000321AFF2FC3001F06EF806220321AFF291
:100A3000004001F068F80020414908600120414968
:100A400008702AE0002211462CA001F05CF8022276
:100A5000002133A001F057F8002201212EA001F05F
:100A600052F80222012131A001F04DF800220221AA
:100A700024A001F048F800220321AFF2544001F015
:100A800042F806220321AFF2584001F03CF8012061
:100A90002B49086002202B49087010BD3E00002041
:100AA00066BA84400000B0404320CFE0B5E7D1B93A
:100AB000A3BA0000B8BAD0F2B5E7C1F70000000051
:100AC0002800002020000020180000200000F0C2B4
:100AD0000000F0429A9999999999C93F4C000020D9
:100AE000CDCC4C3D000012400AD7233D25332E3299
:100AF00066202000202020202020202020202020D0
:100B00000000000020202020202020202020202065
:100B100020202020000000002D2D3E20000000009D
:100B2000CAB5CAB1CAFDBEDD00000000D5FBB6A83B
:100B3000D6B5B5F7D5FB00003000002048000020F6
:100B4000440000203D00002010B502E0012000F02C
:100B50005BFFFE4800780128F8D04FF4FA7002F0ED
:100B6000A0F804E001220321F9A000F0CCFFF7482F
:100B700000780228F6D0012000F046FF04E00122B0
:100B80000221F3A000F0BFFFF04800780328F6D060
:100B9000012000F039FF04E001221146ECA000F032
:100BA000B2FFEA4800780428F6D0012000F02CFFBC
:100BB00004E001220021E6A000F0A5FFE348007850
:100BC0000528F6D009E001220021E1A000F09BFFFA
:100BD00003221146E0A000F096FFDC4800780628CA
:100BE000F1D0012000F010FF09E001220021D8A07F
:100BF00000F089FF03220221D7A000F084FFD34830
:100C000000780728F1D0012000F0FEFE09E0012263
:100C10000021CFA000F077FF03220121CEA000F039
:100C200072FFCA4800780828F1D0012000F0ECFEDD
:100C300013E001220021C6A000F065FF032201217C
:100C4000C5A000F060FF05220221C5A000F05BFFF7
:100C500006220221C3A000F056FFBC4800780928F4
:100C6000E7D0012000F0D0FE02E0012000F0CCFE31
:100C7000B64800780A28F8D019E000221146AFF2F1
:100C8000646000F040FF01220021B1A000F03BFFB2
:100C900003220121B0A000F036FF05220221B0A0FE
:100CA00000F031FF06220221AEA000F02CFFA74881
:100CB00000780B28E1D0012000F0A6FE02E0012020
:100CC00000F0A2FEA14800780C28F8D019E03220EC
:100CD00001F0E7FF012200219DA000F014FF032294
:100CE00001219DA000F00FFF052202219CA000F031
:100CF0000AFF062202219BA000F005FF01209B496C
:100D00000870924800780D28E1D0012000F07CFEA8
:100D100010BD8AB0012401F087FF4FF4A06002F0FB
:100D2000ADF800F015FC00F08FFC00F0DFFD41F69F
:100D30001F4140F2F31001F0DFFD00F0B1FE01F0C1
:100D4000DBFE8B488B49086080078B4908600020D8
:100D50008A49087021038A4802F033FCC5E201E0A9
:100D6000FFF7F2FE794800780D28F9DD01207F4970
:100D70000870B5E283480078012807D182480078DE
:100D800020B9FFF7F7FD01207F49087031E201200B
:100D90007E4908700BE07D48007800F0CDFF05200B
:100DA00001F07FFF79480078401C78490870774847
:100DB00000780628EFDB734800780228E6D17248F5
:100DC00000780028E2D101206F4908706B48007854
:100DD000082800D1641C012C38D1322001F061FFB9
:100DE000002000F0A9FF642001F05BFFA0B2684979
:100DF000098889B2674A128892B2674B1B889BB2F6
:100E0000CDE90532CDE907106448008882B2644814
:100E1000008880B26349098889B2634B1B889BB202
:100E2000CDE90131CDE903026048008880B2604D10
:100E300000902D88ABB25F4D2D88AAB25E4D2D88F3
:100E4000A9B25E4D2D88A8B2FFF713FA022C38D153
:100E5000322001F026FF012000F06EFF642001F037
:100E600020FFA1B24A48008882B24A48008880B276
:100E7000494B1B889BB2CDE90530CDE90721474896
:100E8000008881B24648008882B24648008880B215
:100E9000454B1B889BB2CDE90130CDE90321434886
:100EA000008880B2424D00902D88ABB2414D2D8814
:100EB000AAB2414D2D88A9B2404D2D88A8B2FFF7A6
:100EC000D8F9032C38D1322001F0EBFE022000F0DB
:100ED00033FF642001F0E5FEA1B22D48008880B206
:100EE0002C4A128892B22C4B1B889BB2CDE905325A
:100EF000CDE907012948008880B22949098889B2CB
:100F0000284A128892B2284B1B889BB2CDE9013245
:100F1000CDE903102548008880B2254D00902D882A
:100F2000ABB2244D2D88AAB2234D2D88A9B2234DF2
:100F30002D88A8B2FFF79DF9042C73D1322001F05F
:100F4000B0FE032000F0F8FE642039E042000020EB
:100F5000BBB6D3AD00000000BDF8C8EB0000000038
:100F60004D000000D0A1B6D30000000043000020D7
:100F7000295CCF3F340000203800002030000020E2
:100F8000001001403C0000204A00002049000020E1
:100F90002C00002028000020240000202000002039
:100FA0001C00002018000020140000201000002069
:100FB0000C00002008000020040000200000002099
:100FC00001F06FFEA2B2C948008880B2C849098802
:100FD00089B2C84B1B889BB2CDE90531CDE9070228
:100FE000C548008880B2C549098889B2C44A1288B8
:100FF00092B2C44B1B889BB2CDE90132CDE90310FC
:10100000C148008880B2C14D00902D88ABB2C04D60
:101010002D88AAB2BF4D2D88A9B2BF4D2D88A8B288
:10102000FFF727F9052C38D1322001F03AFE0420D1
:1010300000F082FE642001F034FEA1B2AB480088CB
:1010400080B2AB4A128892B2AA4B1B889BB2CDE900
:101050000532CDE90701A848008880B2A749098870
:101060008AB2A749098889B2A64B1B889BB2CDE9F1
:101070000131CDE90320A448008880B2A34D00903F
:101080002D88ABB2A24D2D88AAB2A24D2D88A9B24F
:10109000A14D2D88A8B2FFF7ECF8062C38D13220EC
:1010A00001F0FFFD052000F047FE642001F0F9FD8E
:1010B000A2B28E48008880B28D49098889B28D4BD2
:1010C0001B889BB2CDE90531CDE907028A4800882B
:1010D00081B28A48008880B2894A128892B2894BCC
:1010E0001B889BB2CDE90132CDE903018648008817
:1010F00080B2864D00902D88ABB2854D2D88AAB266
:10110000844D2D88A9B2844D2D88A8B2FFF7B1F87F
:10111000072C6BD164E04FF4FA7001F0C2FD01209E
:101120007E4908700BE07D48007800F005FE052040
:1011300001F0B7FD79480078401C7849087077487D
:1011400000780628EFDB07236848008880B26849EA
:10115000098889B2674A128892B2CDE90703CDE9BE
:1011600005216548008880B2644909888AB26449CB
:10117000098889B2634B1B889BB2CDE90131CDE967
:1011800003206148008880B2604D00902D88ABB28A
:101190005F4D2D88AAB25F4D2D88A9B25E4D2D8876
:1011A000A8B2FFF766F85E48006801F0E0FC4FF077
:1011B00081415B48006806F047FB11D22021594865
:1011C00002F0FFF90421584802F0FBF94FF4805176
:1011D000564802F0F6F94FF40051524802F0F1F986
:1011E000072C03D152480078032894D1072C00D152
:1011F000002450480078022804D14D480078032884
:101200007FF4C5AD64E04B480078032854D14A48C8
:101210000078002850D101204749087044480078E0
:1012200004280DD14548006806F086F80546444A72
:10123000444B05F0C7FA074605F092FA3F490860AB
:101240003B48007806280DD13C48006806F074F849
:1012500005463B4A3B4B05F085FF074605F080FA03
:10126000364908603248007807280DD136480068B2
:1012700006F062F80546324A324B05F0A3FA0746FB
:1012800005F06EFA304908602948007809280DD128
:101290002D48006806F050F80546294A294B05F00C
:1012A00061FF074605F05CFA274908602648016897
:1012B00022480068FEF796FF1D480078032807D1F2
:1012C00001201C4908702149087000201A49087043
:1012D00018480078032803D115480078032892D1D4
:1012E0001B48007801283FF445AD38E52C0000206C
:1012F0002800002024000020200000201C000020E6
:101300001800002014000020100000200C00002015
:1013100008000020040000200000002049000020F8
:101320004C000020000C014000140140001001405E
:10133000300000203C0000204A0000203400002043
:101340007B14AE47E17A843F380000203D00002046
:1013500043000020704700BFFEE700BFFEE700BF6C
:10136000FEE700BFFEE77047704770477047000018
:101370000CB50020019000906C48006840F480306B
:101380006A49086000BF6948006800F400300090B6
:101390000198401C0190009818B90198B0F5A06F11
:1013A000F1D16248006800F4003010B101200090D3
:1013B00001E0002000900098012843D15C480068BB
:1013C00040F010005A4908600846006820F0030009
:1013D00008600846006840F0020008605348406812
:1013E000524948600846406848600846406840F4F2
:1013F000806048600846406820F47C1048600846D9
:10140000406840F4E81048600846006840F080708A
:10141000086000BF4548006800F000700028F9D05F
:101420004248406820F00300404948600846406850
:1014300040F00200486000BF3C48406800F00C00EB
:101440000828F9D10CBD10B5FFF792FF10BD10B5FB
:101450003648006840F0010034490860084640689A
:10146000344908403149486008460068324908401C
:101470002E4908600846006820F48020086008466D
:10148000406820F4FE0048604FF41F008860FFF7BA
:10149000DAFF4FF000602949086010BD10B5002147
:1014A00000200022214B5B6803F00C0121B10429CC
:1014B00006D0082928D107E0214B224C236027E0E1
:1014C0001F4B204C236023E0184B5B6803F4701023
:1014D000164B5B6803F48032022303EB904022B981
:1014E000194B4343174C23600DE0104B5B6803F42A
:1014F000003323B1144B4343124C236003E0104BE1
:101500004343104C236003E00D4B0E4C236000BF9F
:1015100000BF064B5B68C3F303130C4CE15C094B43
:101520001B68CB40074C236010BD00000010024038
:10153000002002400000FFF8FFFFF6FE08ED00E08B
:1015400000127A005000002000093D0054000020E5
:1015500008B501211C2002F043FA4FF40050ADF809
:10156000000010208DF8030003208DF8020069466A
:10157000324801F079FF4FF40051304802F021F871
:101580004FF48050ADF8000010208DF803000320C8
:101590008DF8020069462A4801F066FF4FF4805139
:1015A000274802F00EF84020ADF8000010208DF81A
:1015B000030003208DF802006946224801F054FF21
:1015C0004021204801F0FDFF4FF40060ADF800001D
:1015D00010208DF8030003208DF80200694618489A
:1015E00001F042FF4FF40061154801F0EAFF4FF4AB
:1015F0000040ADF8000010208DF8030003208DF8A6
:10160000020069460D4801F02FFF4FF400410B48DE
:1016100001F0D7FF4FF48070ADF8000010208DF876
:10162000030003208DF802006946054801F01CFF05
:101630004FF48071024801F0C4FF08BD000C014066
:10164000000801400010014008B50121102002F0FF
:10165000C7F90720ADF8000010208DF80300032023
:101660008DF8020069469B4801F0FEFE3820ADF877
:10167000000028208DF803006946964801F0F4FE2A
:1016800008BD10B500249348C06800F47F404FF6B1
:10169000077108438F49C860084680683F210840A9
:1016A000C4B2072C6DD00A2001F0FBFA072C66D0DB
:1016B000002089490870894908700F2C04D0172C24
:1016C00020D0272C5AD13BE000208549086085486E
:1016D000D0F80C0108B9012010BD00208049091D77
:1016E00008608048D0F80C0108B90420F4E7002015
:1016F0007B49083108607B48D0F80C0108B9072005
:10170000EAE73BE00020764908607648D0F810010F
:1017100008B90220E0E700207149091D08607148FE
:10172000D0F8100108B90520D6E700206C4908312F
:1017300008606C48D0F8900108B90820CCE71DE09B
:101740000020674908606748D0F8140108B90320F1
:10175000C2E700206249091D08606248D0F8140100
:1017600008B90620B8E700205D49083108605D48E7
:10177000D0F8140108B90920AEE700BF01E000204D
:10178000AAE7FF20A8E710B5FFF77BFF01280DD1DE
:10179000FFF777FF012809D15349087000BFFFF711
:1017A00070FF0128FBD00A2001F07BFAFFF769FFE8
:1017B00002280DD1FFF765FF022809D14A490870B8
:1017C00000BFFFF75EFF0228FBD00A2001F069FA94
:1017D000FFF757FF03280DD1FFF753FF032809D167
:1017E0004149087000BFFFF74CFF0328FBD00A20D7
:1017F00001F057FAFFF745FF04280DD1FFF741FF2D
:10180000042809D13849087000BFFFF73AFF0428BF
:10181000FBD00A2001F045FAFFF733FF05280DD170
:10182000FFF72FFF052809D12F49087000BFFFF7E8
:1018300028FF0528FBD00A2001F033FAFFF721FF2B
:1018400006280DD1FFF71DFF062809D1264908708B
:1018500000BFFFF716FF0628FBD00A2001F021FA8F
:10186000FFF70FFF07280DD1FFF70BFF072809D15E
:101870001D49087000BFFFF704FF0728FBD00A20AE
:1018800001F00FFAFFF7FDFE08280DD1FFF7F9FE72
:10189000082809D11449087000BFFFF7F2FE082894
:1018A000FBD00A2001F0FDF9FFF7EBFE09280DD16E
:1018B000FFF7E7FE092809D10B49087000BFFFF7C1
:1018C000E0FE0928FBD00A2001F0EBF90648007879
:1018D00010BD000000100140480000204A00002018
:1018E00080012242000022426400002000B587B03F
:1018F00001214FF4017002F073F84FF4004001F041
:10190000D3FF3F20ADF8040000208DF8070001A9A7
:101910002E4801F0A9FD2E4801F01EFB0020029088
:101920008DF80C008DF80D004FF46020049000201D
:10193000059001208DF8180002A9254801F033FB1D
:101940000121234801F05BFB214801F07AFB00BF35
:101950001F4801F07BFB0028FAD11D4801F080FBF5
:1019600000BF1B4801F081FB0028FAD107B000BD81
:1019700010B50446072301222146154801F0ABFBB0
:101980000121134801F07BFB00BF0221104801F048
:10199000E7FC0028F9D00E4801F004FC10BD2DE949
:1019A000F04107460C460025002608E03846FFF7C0
:1019B000DFFF0544012001F074F9701CC6B2A64295
:1019C000F4DBB5FBF4F080B2BDE8F0810008014023
:1019D000002401400146002013E001FA00F202F069
:1019E00080021AB10122504B1A6002E000224E4BD5
:1019F0001A6000224D4B1A6001224D4BC3F8AC21F6
:101A0000401C0828E9D3704710B504460120474917
:101A10000C390860F820FFF7DDFF04F0F000FFF755
:101A2000D9FFF02101EA0410FFF7D4FFC82001F02C
:101A300014F910BD10B5044601203C490C3908606A
:101A4000FA20FFF7C7FF04F0F000FFF7C3FFF02113
:101A500001EA0410FFF7BEFFC82001F0FEF810BD38
:101A600010B5142001F01DF93020FFF7CDFF05203F
:101A700001F017F90C20FFF7C7FF052001F011F95D
:101A800010BD10B5044606E02078FFF7D3FF641CB4
:101A9000052001F006F920780028F5DC10BD70471C
:101AA00010B5002023490860642001F0D6F8FFF744
:101AB000D7FF642001F0D1F810BD70B505460C4683
:101AC00035B1012D0AD0022D0ED0032D18D111E011
:101AD00004F18001C8B2FFF797FF12E004F1900112
:101AE000C8B2FFF791FF0CE004F18801C8B2FFF71C
:101AF0008BFF06E004F19801C8B2FFF785FF00E014
:101B000000BF00BF70BD70B504460D461646314695
:101B10002846FFF7D2FF03E014F8010BFFF78AFF16
:101B200020780028F8D170BDBC812142AC0121424F
:101B300000002142980122422DE9FF4F93B00C464C
:101B400015461E46219805F0F7FB0746F74AF84B65
:101B500005F0E2F80022F74BCDE9040104F0EEFEB7
:101B6000CDE9060104F022FDCDE90A01209805F037
:101B7000E3FBCDE90801DDE90A2305F0CDF8CDE965
:101B80000E01304605F0D8FB0746E84AE84B05F061
:101B9000C3F80022E74BCDE9000104F0CFFECDE908
:101BA000020104F003FDCDE90601284605F0C4FB5F
:101BB000CDE90401DDE9062305F0AEF8CDE90A011F
:101BC000204605F0B9FBD94AD94BCDE9000105F013
:101BD000A3F80022D74BCDE9020104F0AFFE07467F
:101BE00004F0E4FCCDE90601139805F0A5FBCDE96E
:101BF0000401DDE9062305F08FF8CDE90801DDE9F0
:101C00000A2304F0DFFDCDE90C01DDE90E2304F029
:101C1000D9FDCDE9100104F0A3FD8146219805F01E
:101C20008BFBC24AC24BCDE9040105F075F80746AB
:101C30000022C04B04F082FECDE9060104F004FD51
:101C4000CDE90A01209805F077FBCDE90801DDE92F
:101C50000A2305F061F8CDE90E01304605F06CFB72
:101C6000B24AB34BCDE9000105F056F80746002211
:101C7000B04B04F063FECDE9020104F0E5FCCDE9D0
:101C80000601284605F058FBCDE90401DDE90623ED
:101C900005F042F8CDE90A01204605F04DFBA34AC4
:101CA000A34BCDE9000105F037F807460022A14B10
:101CB00004F044FECDE9020104F0C6FCCDE90601C2
:101CC000139805F039FBCDE90401DDE9062305F0A1
:101CD00023F8CDE90801DDE90A2304F073FDCDE91D
:101CE0000C01DDE90E2304F06DFDCDE9100104F0D7
:101CF00037FD82465146504605F0DAFC49460D90C4
:101D0000484605F0D5FC0C900D9905F041FB834643
:101D100005F012FBCDE90E0104F0E6FC0022864B33
:101D2000CDE9100104F00AFE074604F019FD1290F7
:101D3000129817B0BDE8F08F01B59AB00020179047
:101D400016901A98002872D1189013E01A98FFF78D
:101D50000FFE7A4A189922F8110079480078142168
:101D600091FBF0F080B2159000F09BFF1898401C9A
:101D7000C0B218907249097818988842E6DB0020B2
:101D800018904CE06E48007804F076FFCDE90E0123
:101D90006B48007805F044FC0490189840006949AD
:101DA00009784843019005F023FC029066480168D9
:101DB000029805F07DFC0390049905F057FB05900F
:101DC00005F0BAFACDE9060104F03EFCCDE90A01BE
:101DD0005A49189831F81000079004F04DFFCDE9EA
:101DE0000801DDE90A2304F097FFCDE90C01DDE9E4
:101DF0000E2304F0A3FDCDE91201179804F025FF8E
:101E0000CDE91001DDE9122304F0DCFCCDE9140179
:101E100004F0ECFE17901898401CC0B21890484986
:101E2000097818988842ADDB002018904DE076E0E4
:101E30004348007804F020FFCDE90E0140480078C7
:101E400005F0EEFB0490189840003E49097848439D
:101E5000019005F0CDFB02903B480168029805F027
:101E600027FC0390049905F001FB059005F064FA46
:101E7000CDE9060104F09AFBCDE90A012F49189833
:101E800031F81000079004F0F7FECDE90801DDE914
:101E90000A2304F041FFCDE90C01DDE90E2304F033
:101EA0004DFDCDE91201169804F0CFFECDE91001E9
:101EB000DDE9122304F086FCCDE9140104F096FE5E
:101EC00016901898401CC0B218901D4909781898AF
:101ED0008842ADDB179800FB00F1169800FB00105C
:101EE000119004F0B2FECDE9120104F0FDFBCDE942
:101EF000140104F07BFE15490860DDE9160190FB32
:101F0000F1F0119004F0A1FECDE9120104F03EFAC7
:101F1000CDE9140104F06AFE0D49086001E11A9848
:101F20000128FBD10020189028E000006F1283C028
:101F3000CA21094000806640000008409800002047
:101F400068000020690000206C00002018000020BC
:101F50001C0000201A98FFF70BFDFA4A189922F886
:101F60001100F9480078142191FBF0F080B215902F
:101F700000F097FE1898401CC0B21890F2490978FA
:101F800018988842E6DB002018904CE0EE48007874
:101F900004F072FECDE90E01EB48007805F040FB3D
:101FA000049018984000E94909784843019005F0E9
:101FB0001FFB0290E6480168029805F079FB039048
:101FC000049905F053FA059005F0B6F9CDE906013C
:101FD00004F03AFBCDE90A01DA49189831F810000B
:101FE000079004F049FECDE90801DDE90A2304F079
:101FF00093FECDE90C01DDE90E2304F09FFCCDE951
:102000001201179804F021FECDE91001DDE9122339
:1020100004F0D8FBCDE9140104F0E8FD17901898FE
:10202000401CC0B21890C849097818988842ADDBA6
:10203000002018904CE0C448007804F01DFECDE963
:102040000E01C148007805F0EBFA049018984000A2
:10205000BE4909784843019005F0CAFA0290BC488D
:102060000168029805F024FB0390049905F0FEF93D
:10207000059005F061F9CDE9060104F097FACDE984
:102080000A01B049189831F81000079004F0F4FDE7
:10209000CDE90801DDE90A2304F03EFECDE90C019B
:1020A000DDE90E2304F04AFCCDE91201169804F094
:1020B000CCFDCDE91001DDE9122304F083FBCDE96D
:1020C000140104F093FD16901898401CC0B21890AB
:1020D0009D49097818988842ADDB179800FB00F1FC
:1020E000169800FB0010119004F0AFFDCDE912012D
:1020F00004F0FAFACDE9140104F078FD954908607E
:10210000DDE9160190FBF1F0119004F09EFDCDE9A0
:10211000120104F03BF9CDE9140104F067FD8E498A
:1021200008601A98022873D10020189013E01A98BA
:10213000FFF71EFC834A189922F8110082480078A4
:10214000142191FBF0F080B2159000F0AAFD1898D0
:10215000401CC0B218907C49097818988842E6DB88
:10216000002018904CE07848007804F085FDCDE917
:102170000E017548007805F053FA04901898400055
:10218000724909784843019005F032FA029070488C
:102190000168029805F08CFA0390049905F066F93D
:1021A000059005F0C9F8CDE9060104F04DFACDE936
:1021B0000A016449189831F81000079004F05CFD9A
:1021C000CDE90801DDE90A2304F0A6FDCDE90C0103
:1021D000DDE90E2304F0B2FBCDE91201179804F0FB
:1021E00034FDCDE91001DDE9122304F0EBFACDE96D
:1021F000140104F0FBFC17901898401CC0B2189012
:102200005149097818988842ADDB002018904DE0BC
:1022100075E04D48007804F02FFDCDE90E014A48E5
:10222000007805F0FDF904901898400047490978B6
:102230004843019005F0DCF9029045480168029896
:1022400005F036FA0390049905F010F9059005F0B1
:1022500073F8CDE9060104F0A9F9CDE90A0139497D
:10226000189831F81000079004F006FDCDE9080138
:10227000DDE90A2304F050FDCDE90C01DDE90E2370
:1022800004F05CFBCDE91201169804F0DEFCCDE908
:102290001001DDE9122304F095FACDE9140104F0F0
:1022A000A5FC16901898401CC0B2189026490978D1
:1022B00018988842ADDB179800FB00F1169800FBD8
:1022C0000010119004F0C1FCCDE9120104F00CFAE9
:1022D000CDE9140104F08AFC20490860DDE916010B
:1022E00090FBF1F0119004F0B0FCCDE9120104F084
:1022F0004DF8CDE9140104F079FC194908601A98E9
:1023000003287DD10020189013E01A98FFF730FBC6
:102310000C4A189922F811000B480078142191FBFF
:10232000F0F080B2159000F0BCFC1898401CC0B2D0
:1023300018900549097818988842E6DB0020189023
:102340005DE0000098000020680000206900002087
:102350006C00002020000020240000202800002025
:102360002C000020FE48007804F086FCCDE90E0128
:10237000FB48007805F054F9049018984000F9499A
:1023800009784843019005F033F90290F648016856
:10239000029805F08DF90390049905F067F805900F
:1023A00004F0CAFFCDE9060104F04EF9CDE90A01B7
:1023B000EE49189831F81000079004F05DFCCDE963
:1023C0000801DDE90A2304F0A7FCCDE90C01DDE9F1
:1023D0000E2304F0B3FACDE91201179804F035FC8E
:1023E000CDE91001DDE9122304F0ECF9CDE9140187
:1023F00004F0FCFB17901898401CC0B2189000E045
:102400007DE0D749097818988842ABDB0020189006
:102410004CE0D348007804F02FFCCDE90E01D04801
:10242000007805F0FDF8049018984000CD4909782F
:102430004843019005F0DCF80290CB48016802980F
:1024400005F036F90390049905F010F8059004F0B2
:1024500073FFCDE9060104F0A9F8CDE90A01C349EB
:10246000189831F81000079004F006FCCDE9080137
:10247000DDE90A2304F050FCCDE90C01DDE90E236F
:1024800004F05CFACDE91201169804F0DEFBCDE908
:102490001001DDE9122304F095F9CDE9140104F0EF
:1024A000A5FB16901898401CC0B21890AC4909784A
:1024B00018988842ADDB179800FB00F1169800FBD6
:1024C0000010119004F0C1FBCDE9120104F00CF9E9
:1024D000CDE9140104F08AFBA5490860DDE9160185
:1024E00090FBF1F0119004F0B0FBCDE9120103F084
:1024F0004DFFCDE9140104F079FB9E4908601A985C
:10250000042873D10020189013E01A98FFF730FACE
:10251000964A189922F8110091480078142191FBED
:10252000F0F080B2159000F0BCFB1898401CC0B2CF
:1025300018908B49097818988842E6DB002018909B
:102540004CE08748007804F097FBCDE90E01844801
:10255000007805F065F804901898400081490978E2
:102560004843019005F044F802907F4801680298C2
:1025700005F09EF80390049904F078FF059004F0AC
:10258000DBFECDE9060104F05FF8CDE90A017749E9
:10259000189831F81000079004F06EFBCDE908019F
:1025A000DDE90A2304F0B8FBCDE90C01DDE90E23D7
:1025B00004F0C4F9CDE91201179804F046FBCDE907
:1025C0001001DDE9122304F0FDF8CDE9140104F057
:1025D0000DFB17901898401CC0B2189060490978FC
:1025E00018988842ADDB002018904DE075E05C48FB
:1025F000007804F041FBCDE90E015948007805F060
:102600000FF8049018984000564909784843019003
:1026100004F0EEFF029054480168029805F048F873
:102620000390049904F022FF059004F085FECDE9A3
:10263000060103F0BBFFCDE90A014C49189831F8B7
:102640001000079004F018FBCDE90801DDE90A232A
:1026500004F062FBCDE90C01DDE90E2304F06EF914
:10266000CDE91201169804F0F0FACDE91001DDE988
:10267000122304F0A7F8CDE9140104F0B7FA16907C
:102680001898401CC0B218903549097818988842AB
:10269000ADDB179800FB00F1169800FB00101190BD
:1026A00004F0D3FACDE9120104F01EF8CDE91401CB
:1026B00004F09CFA30490860DDE9160190FBF1F066
:1026C000119004F0C2FACDE9120103F05FFECDE9EA
:1026D000140104F08BFA294908601A9805287DD165
:1026E0000020189013E01A98FFF742F91F4A189932
:1026F00022F811001A480078142191FBF0F080B202
:10270000159000F0CEFA1898401CC0B218901449E9
:10271000097818988842E6DB002018905DE01048A0
:10272000007804F0A9FACDE90E010D48007804F014
:1027300077FF0490189840000A49097848430190AF
:1027400004F056FF029008480168029804F0B0FFB8
:102750000390049904F08AFE059004F0EDFD0FE06B
:1027600068000020690000206C0000209800002014
:102770000000002004000020080000200C000020C1
:10278000CDE9060103F060FFCDE90A01544918982C
:1027900031F81000079004F06FFACDE90801DDE987
:1027A0000A2304F0B9FACDE90C01DDE90E2304F0A7
:1027B000C5F8CDE91201179804F047FACDE91001E8
:1027C000DDE9122303F0FEFFCDE9140104F00EFA57
:1027D00017901898401CC0B2189000E07DE0414965
:1027E0000978189888429ADB002018904CE03D4800
:1027F000007804F041FACDE90E013A48007804F07F
:102800000FFF049018984000374909784843019019
:1028100004F0EEFE029035480168029804F048FF8B
:102820000390049904F022FE059004F085FDCDE9A3
:10283000060103F0BBFECDE90A012949189831F8D9
:102840001000079004F018FACDE90801DDE90A2329
:1028500004F062FACDE90C01DDE90E2304F06EF814
:10286000CDE91201169804F0F0F9CDE91001DDE987
:10287000122303F0A7FFCDE9140104F0B7F9169075
:102880001898401CC0B218901649097818988842C8
:10289000ADDB179800FB00F1169800FB00101190BB
:1028A00004F0D3F9CDE9120103F01EFFCDE91401C4
:1028B00004F09CF90E490860DDE9160190FBF1F087
:1028C000119004F0C2F9CDE9120103F05FFDCDE9EA
:1028D000140104F08BF9074908601BB000BD00002B
:1028E0009800002068000020690000206C00002093
:1028F00010000020140000207FB505460C46012181
:10290000022001F07AF8ADF80850ADF8044000203C
:10291000ADF80A00ADF8060001A9654801F09CFB7E
:1029200001221146624801F00EFF1D208DF80000C3
:1029300000208DF8010003208DF8020001208DF8A1
:102940000300684600F09FFA0121594801F0E0FEBB
:102950007FBD10B557480078012800D100E0002065
:1029600055490978012900D100E00021084010B143
:102970000220524908704F480078012800D100E039
:1029800000204D490978022901D1012100E00021F0
:10299000084010B1032049490870464800780328D0
:1029A00007D10120454908700022022144A0FFF709
:1029B000AAF810BD2DE9FF5F01213D4802F071F931
:1029C000002873D001213A4802F07CF9FEF7DBFEC3
:1029D00038490870FFF7BDFF3E480068401C3D497C
:1029E00008603D480068401C3B4908603B4800685F
:1029F00004F0FEFD019004F09FFC80464FF066322B
:102A0000374B04F089F906460022364B03F096FF57
:102A1000044603F0A5FE82463048006804F0E8FD55
:102A2000019004F089FC80464FF066322C4B04F094
:102A300073F9064600222B4B03F080FF044603F097
:102A40008FFE03902848006804F0D2FD019004F046
:102A500073FC06464FF06632214B04F05DF90446E4
:102A60000022204B03F06AFF804603F079FE0290BB
:102A70001E481F4BCDE900A00021DDE90202FFF74F
:102A80005BF8834600F073F8124800680A280DDDF1
:102A900000201049086017480078401C154908704C
:102AA000084600780F2801D100200870BDE8FF9F7C
:102AB00000040040300000203D0000203C000020C9
:102AC0002020202020202020202020202020202006
:102AD0000000000070000020740000202000002092
:102AE000665280400000B040180000200000F0C294
:102AF0000000F0424200002008B50121382000F01B
:102B00006FFF2020ADF8000010208DF80300032097
:102B10008DF8020069463C4800F0A6FC20213A48A6
:102B200000F04FFD0420ADF8000010208DF80300E8
:102B300003208DF802006946344800F095FC04211A
:102B4000324800F03EFD4FF48050ADF800001020F8
:102B50008DF8030003208DF8020069462C4800F030
:102B600083FC4FF480512A4800F02BFD08BD2DE96D
:102B7000F04105462748008884B22748006884420F
:102B800002DA2548008884B224480068844202DAC8
:102B90002248008884B222480168284604F054FE86
:102BA0001DD2284604F0C8FB06464FF033321D4BB9
:102BB00004F076F813D24FF40051134800F003FDEF
:102BC0000421124800F0FFFC4FF48051104800F03F
:102BD000FAFC4FF400510C4800F0F5FC11E0202104
:102BE000094800F0EEFC0421084800F0EAFC4FF42C
:102BF0008051074800F0E5FC4FF40051024800F016
:102C0000E0FCBDE8F0810000000C01400014014030
:102C100000100140000000200800002010000020EB
:102C20003800002033330F4010B56FF0040000F07F
:102C300074F92E4800682E49B0FBF1F02D49087058
:102C40000846007800EB4001C1EBC0104FF6FF7161
:102C500001EAC0002849088010BD0146254A1278C3
:102C60004A434FF0E0235A6100229A611A461269E2
:102C700042F001021A6100BF4FF0E022106900F03B
:102C800001021AB100F48032002AF5D04FF0E022A0
:102C9000126922F001024FF0E0231A6100229A61CA
:102CA00070470146144A12884A434FF0E0235A61A4
:102CB00000229A611A46126942F001021A6100BFAD
:102CC0004FF0E022106900F001021AB100F48032E6
:102CD000002AF5D04FF0E022126922F001024FF0F5
:102CE000E0231A6100229A61704700005000002022
:102CF00000127A00780000207A000020014600BF10
:102D0000704700BF494A128802F04002002AF9D0F9
:102D1000C2B2464B1B1D1A80704710B586B00446E0
:102D2000012144F2040000F05BFE4FF40070ADF8A6
:102D3000140003208DF8160018208DF8170005A93F
:102D40003B4800F091FB4FF48060ADF81400042084
:102D50008DF8170005A9364800F086FB25208DF870
:102D6000000003208DF801008DF8020001208DF88D
:102D70000300684600F087F801940020ADF80800D1
:102D8000ADF80A00ADF80C00ADF810000C20ADF85D
:102D90000E0001A9254800F0CAFE012240F225518B
:102DA000224800F05CFF0121204800F04CFF06B0F3
:102DB00010BD10B540F225511C4801F035F810B394
:102DC0001A4800F0B1FFC4B21A48008800F400406D
:102DD000C8B91848008800F4804060B10A2C03D0BC
:102DE00000201449088020E01248008840F4004088
:102DF0001049088019E00D2C06D10E48008840F4D7
:102E000080400C49088010E00A480088C0F30D009B
:102E100009490C5407480088401C064908800846A8
:102E20000088C72801DD0020088010BD003801405F
:102E30000008014080000020C000002009488047B1
:102E400009480047FEE7FEE7FEE7FEE7FEE7FEE78C
:102E5000FEE7FEE7FEE7FEE704480549054A064BA4
:102E6000704700004F14000831010008E8010020FD
:102E7000E8070020E8030020E8030020314901436F
:102E8000314A1160704770B5002100230F22C478C9
:102E900004B32D4C246804F4E064C4F5E064210A12
:102EA000C1F10403CA40447804FA03F18478144061
:102EB00021430901254C0678A155047804F01F052B
:102EC0000124AC4005786D11AD0005F1E025C5F891
:102ED000004109E0047804F01F050124AC401C4DBA
:102EE0000678761145F8264070BD1A4A0A4002431A
:102EF000154B1B1F1A60704739B1134A121D126817
:102F00000243114B1B1D1A6006E00F4A121D126886
:102F100082430D4B1B1D1A607047042808D14FF0E7
:102F2000E021096941F004014FF0E022116107E05E
:102F30004FF0E021096921F004014FF0E022116116
:102F4000704700000000FA050CED00E000E400E02E
:102F500080E100E080FFFF1F10B50446FA4884427C
:102F600008D10121401500F055FD0021601500F049
:102F700051FD17E0F548844208D10121001500F009
:102F800049FD0021201500F045FD0BE0F04884428A
:102F900008D10121C80300F03DFD00214FF400409D
:102FA00000F038FD10BD30B5024600200023506807
:102FB000E84C20400D790C6844EA05242043506019
:102FC0009068E54C2040D1E902542C434D7944EA05
:102FD000450420439060D06A20F470000C7C641E8D
:102FE000E4B2234340EA0350D06230BD00210160C7
:102FF000017141718160C16001210174704721B18B
:10300000826842F00102826003E0826822F00102DD
:103010008260704721B1826842F48072826003E06E
:10302000826822F480728260704710B50023CBB2B0
:103030001AB144681C43446002E044689C43446005
:1030400010BD816841F00801816070470146002091
:103050008A6802F008020AB1012000E000207047EF
:10306000816841F0040181607047014600208A6850
:1030700002F004020AB1012000E00020704721B1F3
:10308000826842F4A002826003E0826822F4A00217
:1030900082607047014600208A6802F480020AB10B
:1030A000012000E00020704710B50A4600210023EF
:1030B000416821F46041531E41EA4331416010BD33
:1030C00021B1426842F40062426003E0426822F4A7
:1030D000006242607047F0B504460D4600200021B2
:1030E000092D11DDE068A5F10A0606EB4607072663
:1030F00006FA07F18843A5F10A0606EB460603FA2D
:1031000006F10843E0600CE0206905EB450707265F
:1031100006FA07F1884305EB450603FA06F1084372
:103120002061072A0FDA606B561E06EB86071F2602
:1031300006FA07F18843561E06EB860605FA06F1E5
:103140000843606322E00D2A0FDA206BD61F06EBDE
:1031500086071F2606FA07F18843D61F06EB860668
:1031600005FA06F10843206310E0E06AA2F10D06BB
:1031700006EB86071F2606FA07F18843A2F10D0623
:1031800006EB860605FA06F10843E062F0BD21B1C0
:10319000826842F48012826003E0826822F4801226
:1031A000826070470146C86C80B2704766484C30F8
:1031B0000068704721B1426842F48062426003E0D7
:1031C000426822F480624260704721B1426842F452
:1031D0008052426003E0426822F4805242607047AD
:1031E0000A460021816821F4E04111438160704763
:1031F00021B1826842F40042826003E0826822F4D6
:1032000000428260704721B1826842F402128260FB
:1032100003E0826822F402128260704701460020B7
:103220008A6802F400120AB1012000E00020704711
:10323000F0B504461546002000220026092911DDBC
:10324000E068A1F10A0707EB470C072707FA0CF221
:103250009043A1F10A0707EB470703FA07F210436F
:10326000E0600CE0206901EB410C072707FA0CF243
:10327000904301EB410703FA07F210432061A06B72
:10328000C0F30156EF1C06F1010CA7EB0C0707EB8E
:10329000870C1F2707FA0CF29043EF1C06F1010C74
:1032A000A7EB0C0707EB870701FA07F21043A063AF
:1032B000F0BD10B50A4600210023816B21F44011B6
:1032C000531E41EA0351816310BD08B500230093EA
:1032D0000090009B0B440093009B1A6008BD08B54A
:1032E000024600200090009201F12800009B184443
:1032F00000900098006880B208BD0A46002141682D
:10330000164B194011434160704741628262704719
:103310000A460021416821F01F01114341607047B6
:1033200040B109490831096841F40001064A0832F0
:10333000116007E004490831096821F40001024ADC
:10334000083211607047000000240140002801404D
:10335000003C0140FFFEF0FFFDF7F1FFFFFD3FFFE6
:103360000246002013680B400BB1012000E0002052
:103370007047CA430260704770B5024600200023C0
:1033800000240B125568CEB205EA060415681D40EC
:1033900015B10CB1012000E0002070BD00220A121E
:1033A000D34303607047000010B50446CC48844204
:1033B00008D10121042000F02DFB0021042000F0A1
:1033C00029FB46E0C748844208D10121082000F0CB
:1033D00021FB0021082000F01DFB3AE0C248844296
:1033E00008D10121102000F015FB0021102000F071
:1033F00011FB2EE0BD48844208D10121202000F0BD
:1034000009FB0021202000F005FB22E0B84884429F
:1034100008D10121402000F0FDFA0021402000F0F9
:10342000F9FA16E0B348844208D10121802000F067
:10343000F1FA0021802000F0EDFA0AE0AE48844263
:1034400007D10121801500F0E5FA0021A01500F058
:10345000E1FA10BD10B50121084600F0DBFA0021A9
:10346000012000F0D7FA10BD2DE9F04102460025F9
:103470000026002000230024002791F803C00CF050
:103480000F0591F803C00CF0100CBCF1000F03D035
:1034900091F802C04CEA050591F800C0BCF1000F9C
:1034A00031D0146800202BE04FF0010C0CFA00F32F
:1034B000B1F800C00CEA03069E4220D183004FF011
:1034C0000F0C0CFA03F7BC4305FA03FC4CEA0404A6
:1034D00091F803C0BCF1280F06D14FF0010C0CFA93
:1034E00000FCC2F814C00AE091F803C0BCF1480F18
:1034F00005D14FF0010C0CFA00FCC2F810C0401CC2
:103500000828D1D31460B1F800C0BCF1FF0F34DD3E
:10351000546800202EE000F1080C4FF0010808FA72
:103520000CF3B1F800C00CEA03069E4221D18300DF
:103530004FF00F0C0CFA03F7BC4305FA03FC4CEAFE
:10354000040491F803C0BCF1280F05D100F1080C68
:1035500008FA0CF8C2F8148091F803C0BCF1480FC7
:1035600007D100F1080C4FF0010808FA0CF8C2F876
:103570001080401C0828CED35460BDE8F0814FF67F
:10358000FF710180022181700421C17070470246E1
:10359000002093680B400BB1012000E00020704731
:1035A0000146886880B2704702460020D3680B400D
:1035B0000BB1012000E0002070470146C86880B2CE
:1035C000704701617047416170470AB1016100E0D5
:1035D00041617047C16070474FF480320A43826195
:1035E0008161826182698269704702460020434B93
:1035F00018684FF68073184040EA021008433F4BAA
:10360000186070473E49C8617047F0B50A4600230C
:1036100000240021002500F00046B6F1004F02D141
:10362000364EF16901E0354E7168C0F3034583B24F
:1036300000F44016B6F5401F08D121F070612F4EFE
:10364000766826F070662D4F7E6012E000F48016DA
:10365000B6F5801F06D1032606FA05F4A14341F012
:10366000706106E0460D360103FA06F6B14341F0FB
:10367000706122B1460D360103FA06F6314300F0BF
:103680000046B6F1004F02D11C4EF16101E01B4E25
:103690007160F0BD30B500228B071C0F0F2303FAB9
:1036A00004F2164B08338C1053F824309343134C18
:1036B00008348D1044F8253023468C1053F82430FC
:1036C0008C07240F00FA04F423430C4C08348D10AB
:1036D00044F8253030BD0A49DC31086070470000ED
:1036E00000080140000C014000100140001401409E
:1036F00000180140001C0140002001400000014072
:1037000000002042DF48006840F00100DD49086009
:1037100008464068DC490840DA49486008460068C5
:10372000DA490840D74908600846006820F480203C
:1037300008600846406820F4FE0048604FF41F000F
:1037400088607047CF49096821F48031CD4A116003
:103750001146096821F480211160B0F5803F03D043
:10376000B0F5802F0ED106E0C649096841F48031DA
:10377000C44A116007E0C349096841F4A021C14A65
:10378000116000E000BF00BF704710B50146002285
:10379000002300204A11012A02D1BA4C236806E016
:1037A000022A02D1B74C236A01E0B64C636A01F0E9
:1037B0001F02012494401C400CB1012000E00020B5
:1037C00010BD38B5002000900024002500BF312036
:1037D000FFF7DBFF05460098401C00900098B0F50D
:1037E000A06F01D0002DF2D03120FFF7CEFF08B13D
:1037F000012400E00024204638BD01460020A14AF3
:10380000106820F0F80040EAC10010607047A0493D
:1038100008607047024600209A4B586820F47C10DC
:1038200042EA01031843974B58607047984908666D
:10383000704701460020934A506820F00300084377
:10384000506070478F48406800F00C007047014698
:1038500000208C4A506820F0F00008435060704708
:1038600001460020874A506820F4E0600843506019
:10387000704701460020834A506820F4605040EAB7
:10388000C1005060704729B17E4A527A02437D4B95
:103890005A7204E07B4A527A82437A4B5A727047DA
:1038A0007B49D8310860704701460020754A50684E
:1038B00020F440400843506070470021714A203294
:1038C0001170704A82F82010012802D004280AD111
:1038D00004E001216B4A2032117005E00521694A9C
:1038E0002032117000E000BF00BF704769490860D6
:1038F00070476449096A0143624A11627047654929
:1039000044390860704730B50021002200240023AC
:103910005C4D6D6805F00C0121B1042905D0082922
:1039200023D105E05C4D056022E05B4D05601FE0A2
:10393000544D6D6805F47012524D6D6805F4803475
:10394000022505EB92421CB9544D554305600BE02E
:103950004C4D6D6805F400351DB1504D5543056063
:1039600002E04D4D5543056002E04B4D056000BF40
:1039700000BF444D6D6805F0F0010909484D6B5CCE
:103980000568DD4045603F4D6D6805F4E061090A5A
:10399000434D6B5C4568DD4085603A4D6D6805F4CC
:1039A0006051C90A3E4D6B5C4568DD40C560354DD0
:1039B0006D6805F44041890B3A4D6B5CC568B5FBF9
:1039C000F3F5056130BD29B12E4A526902432D4BF2
:1039D0005A6104E02B4A526982432A4B5A6170476C
:1039E00029B1284A92690243264B9A6104E0254A8C
:1039F00092698243234B9A61704729B1214AD26967
:103A00000243204BDA6104E01E4AD26982431D4B17
:103A1000DA61704729B11B4AD2680243194BDA6058
:103A200004E0184AD2688243164BDA60704729B125
:103A3000144A12690243134B1A6104E0114A1269D5
:103A40008243104B1A617047124940390860704731
:103A50000F49C86470470B49C87170470948406AEC
:103A600040F0807007494862704701460020054ACF
:103A700092680A400AB1012000E000207047014925
:103A800088727047001002400000FFF8FFFFF6FE4A
:103A9000000042428004424200127A0000093D00C8
:103AA000820000209200002010B50446FB488442AA
:103AB00009D101218803FFF7ADFF00214FF48040B9
:103AC000FFF7A8FF32E0F648844209D101214804FB
:103AD000FFF7ADFF00214FF40030FFF7A8FF25E00E
:103AE000F048844209D101218804FFF7A0FF00219A
:103AF0004FF48020FFF79BFF18E0EB48844209D188
:103B00000121C804FFF793FF00214FF40020FFF7C5
:103B10008EFF0BE0E548844208D101210805FFF73C
:103B200086FF00214FF48010FFF781FF10BD2DE9C3
:103B3000F04786B005460E460024A24600BFA146C7
:103B40000027B08900B100BF2F462C8A4CF6FF70C9
:103B50000440F08804432C82AC894EF6F3100440F4
:103B6000B08831890843718908430443AC81AC8A29
:103B70004FF6FF400440B0890443AC8201A8FFF730
:103B8000C2FEC648874202D1DDF810A001E0DDF890
:103B90000CA0A88900F4004040B10AEBCA0000EB79
:103BA0000A1031684900B0FBF1F807E00AEBCA00DF
:103BB00000EB0A1031688900B0FBF1F86420B8FB13
:103BC000F0F004012009642101FB1089A88900F4A8
:103BD000004040B1322000EBC900B0FBF1F000F032
:103BE0000700044308E0322000EB09106421B0FB19
:103BF000F1F000F00F0004432C8106B0BDE8F0871F
:103C00004FF41651016000218180C18001810C2197
:103C1000418100218181704710B502460020108A41
:103C20004FF2FF0318400B884C8823438C882343B2
:103C3000CC8823431843108210BD002101804180AD
:103C40008180C180704721B1828942F40052828113
:103C500004E082894DF6FF731A4082817047F0B507
:103C60000346002400260025002040F66A17B942CA
:103C700000D100BF1846C1F3421401F01F0601270E
:103C800007FA06F5012C01D10C3004E0022C01D119
:103C9000103000E014301AB107682F43076002E0CB
:103CA0000768AF430760F0BD1AB1838A0B43838274
:103CB00002E0838A8B4383827047028A4FF6F07357
:103CC0001A400282028A0A430282704782894FF2B6
:103CD000FF731A40828182890A438281704721B131
:103CE000828942F00202828104E082894FF6FD73EC
:103CF0001A4082817047028A4FF6DF731A400282AF
:103D0000028A0A430282704721B1028A42F4804249
:103D1000028204E0028A4BF6FF731A400282704767
:103D2000C1F308028280704701468888C0F308000A
:103D30007047818941F0010181817047028BD2B2C5
:103D40000283028B42EA012202837047028B02F453
:103D50007F420283028B0A430283704721B1828A29
:103D600042F02002828204E0828A4FF6DF731A401A
:103D70008282704721B1828A42F01002828204E07E
:103D8000828A4FF6EF731A408282704721B1828A8D
:103D900042F00802828204E0828A4FF6F7731A40EA
:103DA0008282704721B1828942F40042828103E01D
:103DB0008289C2F30E028281704721B1828A42F465
:103DC0000062828204E0828A4FF2FF731A4082828C
:103DD0007047828A4FF6FB731A408282828A0A43B6
:103DE0008282704721B1828A42F00202828204E01C
:103DF000828A4FF6FD731A40828270470246002085
:103E0000B1F5007F00D100BF13880B400BB101203A
:103E100000E00020704701F40072B2F5007F00D18D
:103E200000BFCA430280704770B5024600240023D9
:103E30000025002040F66A16B14200D100BFC1F350
:103E4000421501F01F03012606FA03F3012D02D1EA
:103E50009689334006E0022D02D1168A334001E0F4
:103E6000968A33400C12012606FA04F41688344070
:103E700013B10CB1012000E0002070BD10B500228C
:103E8000002340F66A14A14200D100BF0A120124A7
:103E90009440A3B2DC43048010BD00000038014010
:103EA0000044004000480040004C004000500040EA
:103EB00010B50446FE48844208D10121C014FFF722
:103EC000A9FD0021E014FFF7A5FDC4E0B4F1804F87
:103ED00008D101210846FFF7AAFD00210120FFF7C4
:103EE000A6FDB8E0F348844208D101210220FFF783
:103EF0009EFD00210220FFF79AFDACE0EE488442CF
:103F000008D101210420FFF792FD00210420FFF7D2
:103F10008EFDA0E0E948844208D101210820FFF786
:103F200086FD00210820FFF782FD94E0E4488442EA
:103F300008D101211020FFF77AFD00211020FFF7A2
:103F400076FD88E0DF48844208D101212020FFF778
:103F50006EFD00212020FFF76AFD7CE0DA488442F4
:103F600008D101214014FFF755FD00216014FFF72F
:103F700051FD70E0D548844209D10121C804FFF702
:103F800049FD00214FF40020FFF744FD63E0D048D5
:103F9000844209D101210805FFF73CFD00214FF4BF
:103FA0008010FFF737FD56E0CA48844209D101214D
:103FB0004805FFF72FFD00214FF40010FFF72AFD01
:103FC00049E0C548844208D101214020FFF72FFD78
:103FD00000214020FFF72BFD3DE0C048844208D17E
:103FE00001218020FFF723FD00218020FFF71FFD26
:103FF00031E0BB48844208D101218015FFF717FD4D
:104000000021A015FFF713FD25E0B648844209D131
:1040100001210804FFF7FEFC00214FF48030FFF778
:10402000F9FC18E0B048844209D101214804FFF7A7
:10403000F1FC00214FF40030FFF7ECFC0BE0AB4843
:10404000844208D101218804FFF7E4FC00214FF4E9
:104050008020FFF7DFFC10BD00220288944B9842BD
:104060000ED0994B98420BD0B0F1804F08D0914BB5
:10407000984205D0904B984202D0904B984204D180
:104080004FF68F731A404B881A438D4B984207D0D6
:104090008C4B984204D04FF6FF431A40CB881A430A
:1040A00002808B8883850B880385814B98420BD0D7
:1040B000854B984208D08B4B984205D08A4B98424A
:1040C00002D08A4B984201D10B7A03860123838266
:1040D000704770B5002400220023058C4FF6FE7651
:1040E00035400584028C8388048B4FF68F752C40F5
:1040F000B51E2C400D882C43751E2A400D892A437D
:104100004D882A436A4DA8420BD06F4DA84208D073
:10411000744DA84205D0744DA84202D0734DA842F8
:1041200013D14FF6F7752A404D892A434FF6FB7598
:104130002A408D882A434FF6FF652B404FF6FF55E6
:104140002B408D892B43CD892B4383800483CD88DD
:104150008586028470BD70B5002400220023058C82
:104160004FF6EF7635400584028C8388048B48F641
:10417000FF752C404FF6FF452C400D884FF6FF761B
:1041800006EA05252C434FF6DF752A400D8906EA1D
:1041900005152A434D8806EA05152A43444DA842D1
:1041A00002D0494DA8421DD14FF67F752A404D8956
:1041B0004FF6FF7606EA05152A434FF6BF752A40EB
:1041C0008D8806EA05152A434FF6FF352B404FF23E
:1041D000FF752B408D8906EA85052B43CD8906EABC
:1041E00085052B4383800483CD880587028470BDB9
:1041F00070B5002400220023058C4FF6FF66354081
:104200000584028C8388848B4FF68F752C404FF683
:10421000FC752C400D882C434FF6FF552A400D8924
:104220004FF6FF7606EA05252A434D8806EA05255E
:104230002A431F4DA84202D0234DA8421DD14FF260
:10424000FF752A404D894FF6FF7606EA05252A4379
:104250004FF6FF352A408D8806EA05252A434EF69B
:10426000FF752B404DF6FF752B408D8906EA05152D
:104270002B43CD8906EA05152B4383808483CD88A3
:104280008587028470BD70B5002200230024058C50
:104290004EF6FF7635400584038C8488828B48F681
:1042A000FF752A404FF6FF452A400D8820E00000A8
:1042B000002C01400004004000080040000C0040B9
:1042C000001000400014004000340140004C014048
:1042D000005001400054014000180040001C004004
:1042E00000200040004001400044014000480140DF
:1042F0004FF6FF7606EA05252A434DF6FF752B405B
:104300000D8906EA05352B434D8806EA05352B4312
:10431000FA4DA84202D0FA4DA84208D14BF6FF75DB
:104320002C408D894FF6FF7606EA85152C43848054
:104330008283CD88A0F84050038470BD828B4FF2F9
:10434000FF331A408283828B4FF6FF7303EA012307
:104350001A4382837047F0B50C46154600220021AF
:104360000026078C4EF6FF7C07EA0C070784828B39
:10437000018C4FF6FF7707EA043640F6FF473A40D4
:104380004FF6FF7707EA05273A434FF6FF7707EA2C
:1043900003373A43D94FB8420ED0D94FB8420BD069
:1043A000B0F1804F08D0D74FB84205D0D64FB842B1
:1043B00002D0D64FB84206D14DF6FF77394046F4C9
:1043C0008057394305E047F6FF57394044F480579A
:1043D000394382830184F0BD828B4FF6F3731A4018
:1043E0008283828B0A4382837047F0B50C46154660
:1043F000002200210026078C4FF6FF6C07EA0C070D
:104400000784828B018C4FF6FF7707EA04264FF66C
:104410000C773A404FF6FF7707EA03172F433A43EA
:10442000B64FB8420ED0B64FB8420BD0B0F1804F65
:1044300008D0B44FB84205D0B34FB84202D0B34F02
:10444000B84206D14FF6FF57394046F480773943DA
:1044500005E04FF2FF57394044F4807739438283B7
:104460000184F0BD028B4FF2FF331A400283028BAE
:104470004FF6FF7303EA01231A4302837047F0B536
:104480000C461546002200210026078C4FF6EF7CD3
:1044900007EA0C070784028B018C4FF6FF7707EAC7
:1044A000041640F6FF473A404FF6FF7707EA033716
:1044B0003A434FF6FF7707EA05273A438F4FB84252
:1044C0000ED08F4FB8420BD0B0F1804F08D08D4F37
:1044D000B84205D08C4FB84202D08C4FB84206D1BA
:1044E0004FF6DF77394046F01007394305E04FF6C5
:1044F0005F77394044F01007394302830184F0BDEF
:10450000028B4FF6F3731A400283028B0A43028335
:104510007047F0B50C46154600220021068C4FF678
:10452000FE773E400684028B018C4FF60C763240BB
:104530007E1C06EA03162E433243704EB0420ED064
:104540006F4EB0420BD0B0F1804F08D06D4EB042EC
:1045500005D06D4EB04202D06C4EB04206D14FF63F
:10456000FD76314044F00106314305E04FF6F57623
:10457000314044F00106314302830184F0BD70B53F
:1045800005460C465D4885420ED05D4885420BD0FD
:10459000B5F1804F08D05B48854205D05A48854226
:1045A00002D05A48854200D100E000BF208850B9AF
:1045B0002389A28861882846FFF7ABFFE188284657
:1045C000FFF79EFF25E0208804280AD12389A288CE
:1045D00061882846FFF753FFE1882846FFF742FF2E
:1045E00017E0208808280AD12389A28861882846F4
:1045F000FFF7FBFEE1882846FFF7EEFE09E023897E
:10460000A28861882846FFF7A6FEE1882846FFF7C2
:1046100095FE70BD2DE9F04105460C4600260127A8
:10462000608808B9022600E00026A088012801D190
:10463000022700E001272088A0B92389A288618889
:104640002846FFF766FFE1882846FFF759FF2389D0
:104650003A4631462846FFF712FFE1882846FFF721
:1046600001FF13E02389A28861882846FFF707FF2E
:10467000E1882846FFF7F6FE23893A463146284668
:10468000FFF747FFE1882846FFF73AFFBDE8F081D2
:104690000A884B881A438B881A43CB881A430B89A4
:1046A0001A434B891A438B891A43A0F84420704758
:1046B0004FF6FF71818000210180C180418001722D
:1046C00070470021018041808180C180018141814A
:1046D0008181C18170470021018041800121818059
:1046E0000021C180018170470021018041808180CB
:1046F000C18001814181818170470000002C01400F
:10470000003401400004004000080040000C00405C
:1047100021B1028842F00102028004E002884FF6D3
:10472000FE731A400280704731B1B0F8442042F461
:104730000042A0F8442005E0B0F84420C2F30E0285
:10474000A0F8442070471AB183890B43838102E0AB
:1047500083898B43838170478182704741EA0203DA
:10476000A0F8483070471AB183890B43838102E077
:1047700083898B438381704701894FF6F87211401A
:10478000018170470A46002101894FF68F73194055
:1047900011430181704730B504460D462946204635
:1047A000FFF7F0FF208940F00700208130BD2DE9A0
:1047B000F04104460D4616461F46602D06D13B4685
:1047C000012231462046FFF75AFE05E03B46012212
:1047D00031462046FFF79DFE29462046FFF7D2FFCF
:1047E000208940F007002081BDE8F08130B50C46FB
:1047F00000210189C9B24FF6FF7505EA032515436B
:1048000025432943018130BD2DE9F04105460E467F
:1048100017469846002443463A4631462846FFF755
:10482000E5FF2C894FF6F870044044F007044FF67A
:104830008F70044044F070042C81BDE8F081F0B525
:1048400004460D4616461F463B463246294620463C
:10485000FFF7CCFF208940F480402081F0BD018526
:10486000828270470A46002101884FF68F731940F3
:10487000114301807047F0B50C4615461E460021D5
:10488000002200230189028B038C4FF6F877394010
:1048900021434FF6FC473A4040F201173A434FF6A6
:1048A000DD773B404FF6FF7707EA06172F433B4380
:1048B000018102830384F0BD0A460021018B4FF67B
:1048C0008F7319401143018370470A460021018B01
:1048D00048F6FF7319404FF6FF7303EA02231943AA
:1048E000018370470A460021818B4FF68F73194070
:1048F0001143818370470A460021818B48F6FF737C
:1049000019404FF6FF7303EA02231943818370476E
:1049100021B1028842F08002028004E002884FF652
:104920007F731A400280704721B1828842F00402EE
:10493000828004E082884FF6FB731A4082807047C1
:1049400021B1828842F00802828004E082884FF61A
:10495000F7731A408280704721B1828842F00102C9
:10496000828004E082884FF6FE731A40828070478E
:104970000A460021018B4FF6F7731940114301835A
:1049800070470A460021018B4FF2FF7319404FF622
:10499000FF7303EA02231943018370470A4600218B
:1049A000818B4FF6F77319401143818370470A4694
:1049B0000021818B4FF2FF7319404FF6FF7303EA1A
:1049C00002231943818370470A460021018B4FF669
:1049D000FB7319401143018370470A460021018B84
:1049E0004FF6FF3319404FF6FF7303EA02231943D2
:1049F000018370470A460021818B4FF6FB731940F3
:104A00001143818370470A460021818B4FF6FF33A3
:104A100019404FF6FF7303EA02231943818370475D
:104A20000A460021018B4FF67F7319401143018321
:104A300070470A460021018BC1F30E014FF6FF7348
:104A400003EA02231943018370470A460021818B40
:104A50004FF67F7319401143818370470A46002146
:104A6000818BC1F30E014FF6FF7303EA0223194352
:104A7000818370470A460021018C4FF6FD7319406F
:104A80001143018470470A460021018C4FF6F773E9
:104A900019401143018470470A460021018C4FF6EA
:104AA000DF7319404FF6FF7303EA021319430184C1
:104AB00070470A460021018C4FF67F7319404FF66C
:104AC000FF7303EA02131943018470470A46002169
:104AD000018C4FF6FF5319404FF6FF7303EA022390
:104AE0001943018470470A460021018C4FF2FF737D
:104AF00019404FF6FF7303EA0223194301847047FC
:104B00000A460021018C4DF6FF7319404FF6FF73E2
:104B100003EA023319430184704730B500230124AE
:104B20008C40A3B2048C9C430484048C02FA01F5EB
:104B3000ADB22C43048430BD30B5002304248C4036
:104B4000A3B2048C9C430484048C02FA01F5ADB238
:104B50002C43048430BD70B5034600200024184661
:104B6000183001258D40ACB21D8CA5431D8409B1C0
:104B7000082909D100EB6100056825F07005056082
:104B80000568154305600EE00D1FC5F34E0528446A
:104B9000056825F4E045056005684FF6FF7606EAEE
:104BA00002263543056070BD21B1028842F0020241
:104BB000028004E002884FF6FD731A4002807047BD
:104BC00021B1028842F00402028004E002884FF61C
:104BD000FB731A400280704721B1828842F0800244
:104BE000828004E082884FF67F731A40828070478B
:104BF00002884FF6F7731A40028002880A43028047
:104C0000704782884FF68F731A40828082880A43E9
:104C10008280704702894FF6F8731A400281028938
:104C20000A430281704702894FF67F731A4002815E
:104C300002890A43028170478184704781857047E9
:104C4000818670470187704781877047A0F84010C0
:104C5000704702884FF6FF431A40028002880A43D9
:104C6000028070470146888E70470146088F704762
:104C70000146888F70470146B1F8400070470146F1
:104C8000888C70470146088D704702460020138AC1
:104C90000B400BB1012000E000207047CA430282A4
:104CA000704730B50246002000230024158A05EA2B
:104CB0000103958905EA010413B10CB1012000E05C
:104CC000002030BDCA430282704770470FB41CB544
:104CD000074B06AA7B4469460090059800F0D9FA74
:104CE0000020694600F0E8FA1CBC5DF814FB0000E7
:104CF000E105000070B5044685690068C10601D56C
:104D0000302600E02026C00707D070BDD4E901217D
:104D100030469047206A401C20626D1EF6D570BD5B
:104D200070B5044685690078C00707D170BDD4E925
:104D3000012120209047206A401C20626D1EF6D57C
:104D400070BD2DE9F0474FF0000A89460446C0F8CF
:104D500020A02046E1688847002876D0252806D084
:104D6000D4E901219047206A401C2062F1E7E16804
:104D7000204600258847C4F81CA006460027C4F832
:104D800018A02A2E09D0304601F0F8FA38B304EB07
:104D90008708303EC8F8186019E059F8041B20460F
:104DA00004EB87029161E1688847012F064618D11C
:104DB000E069002820DA25F020051DE0D8F8180069
:104DC00000EB800006EB40003038C8F818002046A1
:104DD000E1688847064601F0D1FA0028EED1012F9C
:104DE0000AD02E2E08D12046E16888477F1C06464F
:104DF000022F45F02005C4DBA069002803DA4042F9
:104E000045F00105A061E80701D025F01005B6B115
:104E1000A6F14100192802D8203645F400654A461B
:104E20003146204625604D46FBF7BCF958B10128B4
:104E300006D0ED1D25F0070000F1080989E704E020
:104E400005F1040985E730468AE7206ABDE8F08766
:104E5000704770477047704710B500F037FA006828
:104E600010BD10B5044600F031FA046010BD704763
:104E70002DE9FF4F0C461E464FF0FF378BB0D2E9AD
:104E80000001DDF860800A908A46C1F30A5505B931
:104E90003D46002108464FF00000BAF1000F00F433
:104EA000400005DA00EB80004FF4400101EA5000B9
:104EB0004FEA9059B9F1010F00DDB9460A9850EA5E
:104EC0004A000ED044F61050A5F2FF3545432F148A
:104ED000B8F1000F1ED07542291E1EDDC9F1000277
:104EE0001CE0B8F1010F4FF0000001D0302103E0C9
:104EF000F24305E02154401CB042FBDB3046002267
:104F0000002121540B99C1F80880C1E900200FB09D
:104F1000BDE8F08FBD1B6D1CDEE74A4600DA694232
:104F200006A800F05DFA06AB93E8070003AB83E840
:104F3000070050460A9900F031FB8DE80700A0F504
:104F400000501F3800900398002D09DD42F21F0128
:104F50004A46084403A90390684600F090FD08E023
:104F6000A0F500504A461F3803A90390684600F098
:104F70009AFD8DE807000004000C03D04FF0FF30CD
:104F8000410800E01046B8F1000F03D00022009263
:104F900015461EE0751E05D400F09CF930326255AE
:104FA0006D1EF9D5B3460122084302D000227F1CB2
:104FB00004E02078302801D100227F1E002A0997C2
:104FC00086D01DE0112D07DA00F084F930326255E9
:104FD0006D1C50EA0102F5D1084302D00098C8B117
:104FE0000EE00021681E05E0235C625C63542254DD
:104FF000401E491C8142F7DBAB46A81B401E0990AE
:10500000002004F80B000B98099AC0F80880C0E94A
:10501000002B7CE711264FF0000859E72DE9F04FEF
:1050200088460446D21D22F0070191B0D1E9000163
:10503000CDE90A0100F06DFE02460B98C00F01D0C9
:105040002D2007E02068810701D52B2002E02021D8
:1050500001EAC000032A099001D0072A05DB0346B4
:105060004146204600F07CF90BE12078800601D50E
:10507000E06900E00620B8F1650F814606D0B8F17E
:10508000660F18D0B8F1670F70D131E00020B9F188
:10509000110F009001DB112301E009F101030AAABD
:1050A00001A90CA8FFF7E4FEDDE90C70002609F168
:1050B0000105834647E001204B4600904FF0004732
:1050C0000AAA01A90CA8FFF7D3FEDDE90DB00C99DF
:1050D0005D46002610B909F101000D18B9EB050075
:1050E00003D4C0F1FF3609F10105A5EB09002BE05F
:1050F000B9F1010F01DA4FF001090020B9F1110FE8
:105100000090484601DD112300E003460AAA01A9E8
:105110000CA8FFF7ADFEDDE90C704D460026834676
:10512000207800070AD4AB4500DA5D4601A8012DBE
:1051300004DD411911F8011C302907D04F4502DA6E
:1051400017F1040F04DA012082460FE06D1EEEE72E
:10515000002F02DCED1B3E4403E0781CA84200DD7A
:105160007D1CB81B00F1010A4FF0004720780007B2
:1051700003D4AA4501DB4FF0FF3A0021B7F1004FFD
:105180000DF143088DF8431024D002202B23002F6B
:1051900001DA7F422D230A21021EA0F1010000DC6A
:1051A0005FB197FBF1FC97FBF1F201FB1C7C17460A
:1051B0000CF1300C08F801CDEEE7A8F10100037006
:1051C0002188090501D5452100E06521A0F10108EC
:1051D00000F8011C09980FA9A1EB0807FF1D00B1F9
:1051E0000120411901EBEA70A1693844081A401EF8
:1051F000A0612078C00602D42046FFF77BFD099805
:1052000028B1D4E901219047206A401C206220780F
:10521000C00622D52046FFF76DFD1EE0002E04DB00
:10522000B34502DD01A8805D00E03020D4E9012112
:105230009047206A401C2062761CAAF101005FEAB8
:10524000000A0AD100F03EF8C0680168405CD4E969
:1052500001219047206A401C2062281EA5F101050B
:10526000DCDC07E0D4E9012118F8010B9047206A43
:10527000401C2062381EA7F10107F3DC2046FFF72F
:105280004FFD032011B043E601694A1C0261087812
:10529000704700B58FB0CDE9013100210591054976
:1052A0007944CDE9031011466846FFF74AFD0FB077
:1052B00000BD0000E5FFFFFF0A6802F8010B0A606D
:1052C0007047000000487047A80100200048704760
:1052D0008801002030B5B0F10A024FEA900E71F15A
:1052E00000034EEA817EB0EB0E0061EB91014FEAC4
:1052F000101E4EEA017E10EB0E0041EB11114FEA39
:10530000102E4EEA016E10EB0E0041EB11214FEA18
:10531000104E4EEA014E10EB0E0041EB11414018C9
:1053200041F100014FEAD00040EA41704FEAD1015B
:1053300010EB80054FEA810444EA907444EB0104C9
:105340006D1944EB0404521BA3414FF0000348BF06
:105350000A3200D530BD401C41F1000130BD0000D3
:105360002DE9F0411F46044603260168072A01F48F
:10537000006004DB08B116A505E016A503E008B13E
:1053800015A500E015A521F010002060A069C01E41
:10539000A0610FB1401EA0612046FFF7ABFC4FB1EA
:1053A000D4E9012138469047206A401C2062C01C85
:1053B000206206E0206AFAE7D4E9012115F8010B22
:1053C0009047761EF8D22046FFF7AAFCBDE8F08190
:1053D0004E414E006E616E00494E4600696E660099
:1053E0002DE9F047814616468AB0334878440DC807
:1053F0008DE80D0030487844801C03AC0DC884E86B
:105400000D0041F69B300844372190FBF1F290FBF0
:10541000F1F5A5F1800501FB12041B3C02D56442A5
:10542000012000E00020DFF890A080460027FA4429
:10543000AAF1BE0A0DE0E00709D03246684607EB44
:1054400047010AEB810100F02EFB8DE80700641094
:105450007F1C002CEFD1184F7F44AC3F18E0E807C9
:1054600014D007EB04100DF1180A90E80E008AE83A
:105470000E00C068F04201D198190890324606A982
:1054800003A800F010FB03AB83E807006D10641C59
:10549000002DE4D132466946B8F1000F03A802D0CE
:1054A00000F0EDFA01E000F0FEFAC9E90001C9F8E8
:1054B00008200AB0BDE8F087D428000000487047F3
:1054C000880100207546FFF7F9FFAE4605006946E2
:1054D000534620F00700854618B020B5FDF7BCFC08
:1054E000BDE820404FF000064FF000074FF00008E5
:1054F0004FF0000B21F00701AC46ACE8C009ACE866
:10550000C009ACE8C009ACE8C0098D467047044644
:10551000AFF300802046FAF75FFE00004FF0013C39
:1055200050F8042B51F8043B9A4221D1A2EB0C0312
:10553000934313EACC1317D150F8042B51F8043BD2
:105540009A4215D1A2EB0C03934313EACC130BD16F
:1055500050F8042B51F8043B9A4209D1A2EB0C03FA
:10556000934313EACC13DBD04FF00000704700BF29
:10557000D01A01BAB1FA81F101F0180122FA01F052
:10558000CB40C1F12001DBB2C0B2C01A2CFA01F34A
:10559000D11A914311EAC311E6D170475FEA400C7A
:1055A00008BF91F0000F4FEA8C234FEAC12243EA73
:1055B00051514FEA1C5018BF00F5F0404FEA30003F
:1055C00018BF41F000415FEA6C5C00F02980BCF13B
:1055D000FF3F08BF40F080407047130C06BF120425
:1055E0004FF0100C4FF0000C130E04BF12020CF120
:1055F000080C130F04BF12010CF1040C930F04BF2D
:1056000092000CF1020CD30F04BF52000CF1010CFC
:1056100011464FF00002A0F11F00A0EB0C007047F4
:1056200011F0004F08BF704731F000413FF4D5AF93
:105630000B0C06BF09044FF0100C4FF0000C0B0EC2
:1056400004BF09020CF1080C0B0F04BF09010CF197
:10565000040C8B0F04BF89000CF1020CCB0F04BFAC
:1056600049000CF1010CCCF12003A0EB0C0022FA54
:1056700003F302FA0CF241EA030100F10100704762
:1056800020F07F4C80EA030023F07F47ACEB070358
:1056900003F57C5300F0004003F1FF032DE980493E
:1056A0004FEA154B09B44FEA144325EA0B4E24EA9E
:1056B00003480FF2042606EB132749083E785FEAF9
:1056C000320203FB0667C7F5000707FB06F64FEA41
:1056D00054374FEAD64606F1020607FB066CCCF1BA
:1056E000005C4FEA1C472CEA074C07FB06F40CFB56
:1056F00006F504EB15464FEA961634BF00204FF02E
:1057000000404FEAD13706FB07FC4FEA1C4C0CFB6C
:105710000BF7D21B03FB0CF761EB07010CFB0EF739
:10572000B0EB074072EB17420CFB08F734BFA2EB5B
:105730000742B2EB074261EB17414FEA0C444FEAD4
:10574000910706FB07FC4FEA1C4C0CFB0BF7B0EB78
:10575000C74072EB573203FB0CF734BFA2EBC742D2
:10576000B2EBC74261EB57310CFB0EF7B0EBC70051
:1057700072EB57720CFB08F734BFA2EBC702B2EB17
:10578000C70261EB5771039F4FEA816141EA9211B1
:1057900004EBCC044FEAD1374FEA826206FB07FCE8
:1057A00042EA90124FEA80604FEA1C4C0CFB0BF768
:1057B000D21B03FB0CF761EB07010CFB0EF7B0EB00
:1057C000074072EB17420CFB08F734BFA2EB07420D
:1057D000B2EB074261EB17414FEA8C554FEA910754
:1057E00004EB9C2406FB07FC4FEA1C4C0CFB0BF75C
:1057F000B0EBC74072EB573203FB0CF734BFA2EBA0
:10580000C742B2EBC74261EB57310CFB0EF7B0EB6E
:10581000C70072EB57720CFB08F734BFA2EBC7024C
:10582000B2EBC70261EB577115EB4C254FEA816172
:1058300041EA92114FEA82624FEAD13742EA90126E
:1058400006FB07FC44F100044FEA80604FEA1C4C61
:105850000CFB0BF7D21B03FB0CF761EB07010CFBF6
:105860000EF7B0EB074072EB17420CFB08F734BFA2
:10587000A2EB0742B2EB074261EB174115EB1C1597
:105880004FEA813141EA92414FEA823242EA904244
:105890004FEA80304FEA0C7644F1000448EA0343B3
:1058A0004EEA0B484FF0000EB2EB080C71EB030709
:1058B00024BF624639464EEB0E0E4FF0000B001827
:1058C000524149414BEB0B0BB2EB080C71EB030758
:1058D0007BF1000B24BF624639464EEB0E0E4FF0B3
:1058E000000B0018524149414BEB0B0BB2EB080C7B
:1058F00071EB03077BF1000B24BF624639464EEB88
:105900000E0E51EA020718BF46F0010616EB0E769E
:1059100055F1000254F1000103D5BDE88901BDE84D
:105920000088BDE88901BDE80048B619524141EB45
:105930000101A3F10103704780807F7E7D7C7B7A2B
:105940007978777676757473727171706F6E6E6D2B
:105950006C6C6B6A6A6968686766666564646363D1
:1059600062616160605F5F5E5E5D5D5C5C5B5B5A57
:105970005A595958585757565655555554545353C4
:1059800052525251515050504F4F4F4E4E4D4D4D1F
:105990004C4C4C4B4B4B4A4A4A494949484848476A
:1059A00047474746464645454544444444434343A8
:1059B0004342424242414141002B26D4770021D04C
:1059C0001CB54FEA370703B44FF010004FF0100139
:1059D0004FF000000FBCBDE810400BF1010BBBF114
:1059E000010F08BF5FEA170722BF12F1010211F190
:1059F00001014FF0004143F1000300F0004043EA91
:105A000000007047F9D35708DAE746EA064613F173
:105A1000400F4FEA16461FDD13F1200FDFBF16437C
:105A20000A46002120335B42C8D0C3F1200746EA72
:105A3000064602FA07F74FEA164646EA0706C3F19A
:105A4000200722FA03F201FA07F721FA03F14FF0D7
:105A5000000342EA0702B1E746EA020646EA0646C2
:105A60004FEA164646EA0106BCBF46EA0646360C31
:105A70004FF000034FF000024FF000019EE72DE9C8
:105A8000C048934630B491E8380007C831EA400C6A
:105A900048BF34EA430C03D5FFF7F2FDFFF78CFF54
:105AA000F0BCBDE800882DE9C048934630B491E8C9
:105AB000380007C810F0804F08BF13F0804F03D1A3
:105AC00000F005F8FFF778FFF0BCBDE8008820F093
:105AD0007F4780EA030023F07F4C07EB0C03A3F51C
